{
  "transactions": [
    {
      "hash": "0xe5ce85cc7917f3038ad6277de152dc0b8f33ff0afaa9ea34851e5325633ccd57",
      "transactionType": "CALL",
      "contractName": null,
      "contractAddress": "0x5366e9a276d02b30d0631e9f32ed4375165eb939",
      "function": "registerAgent(address,address,bytes32,string,bytes32[],uint96)",
      "arguments": [
        "0x70997970C51812dc3A010C7d01b50e0d17dc79C8",
        "0x70997970C51812dc3A010C7d01b50e0d17dc79C8",
        "0x9c6076002db2b8917552f5a045baae223fbdd23bf47f62b8eaa353e2322b4f9f",
        "ipfs://main-agent-manifest",
        "[0xb635b0ee6e4c15c18d1b36f84d92442e53da477ae300027dd06478d4ee0559db]",
        "0"
      ],
      "transaction": {
        "from": "0x6fc0922431192c84a5faddeb3db3c9f935a3719a",
        "to": "0x5366e9a276d02b30d0631e9f32ed4375165eb939",
        "gas": "0x5556e",
        "value": "0x0",
        "input": "0xaa724b4400000000000000000000000070997970c51812dc3a010c7d01b50e0d17dc79c800000000000000000000000070997970c51812dc3a010c7d01b50e0d17dc79c89c6076002db2b8917552f5a045baae223fbdd23bf47f62b8eaa353e2322b4f9f00000000000000000000000000000000000000000000000000000000000000c000000000000000000000000000000000000000000000000000000000000001000000000000000000000000000000000000000000000000000000000000000000000000000000000000000000000000000000000000000000000000000000001a697066733a2f2f6d61696e2d6167656e742d6d616e69666573740000000000000000000000000000000000000000000000000000000000000000000000000001b635b0ee6e4c15c18d1b36f84d92442e53da477ae300027dd06478d4ee0559db",
        "nonce": "0x12",
        "chainId": "0x14a34"
      },
      "additionalContracts": [],
      "isFixedGasLimit": false
    },
    {
      "hash": "0x81758e843db482d33792a80f4791986f41eb517d1660789193bfe93215626ea7",
      "transactionType": "CALL",
      "contractName": null,
      "contractAddress": "0xe6d543d5519882e1a4833b76be337eb002df8336",
      "function": "setPolicy(address,uint96,uint96,uint64,uint64)",
      "arguments": [
        "0x70997970C51812dc3A010C7d01b50e0d17dc79C8",
        "1000000000000000000",
        "20000000000000000000",
        "1773708026",
        "1776300036"
      ],
      "transaction": {
        "from": "0x6fc0922431192c84a5faddeb3db3c9f935a3719a",
        "to": "0xe6d543d5519882e1a4833b76be337eb002df8336",
        "gas": "0x17e33",
        "value": "0x0",
        "input": "0x5cece49300000000000000000000000070997970c51812dc3a010c7d01b50e0d17dc79c80000000000000000000000000000000000000000000000000de0b6b3a7640000000000000000000000000000000000000000000000000001158e460913d000000000000000000000000000000000000000000000000000000000000069b8a2fa0000000000000000000000000000000000000000000000000000000069e03004",
        "nonce": "0x13",
        "chainId": "0x14a34"
      },
      "additionalContracts": [],
      "isFixedGasLimit": false
    },
    {
      "hash": "0xa19577c1ff9500d309b51e2869ea596f42164015633b5750290f6fb051b80050",
      "transactionType": "CALL",
      "contractName": null,
      "contractAddress": "0xe6d543d5519882e1a4833b76be337eb002df8336",
      "function": "setApprovedTarget(address,address,bool)",
      "arguments": [
        "0x70997970C51812dc3A010C7d01b50e0d17dc79C8",
        "0xcB92AF9D683de4835002A1f90931aD0BCF6D8951",
        "true"
      ],
      "transaction": {
        "from": "0x6fc0922431192c84a5faddeb3db3c9f935a3719a",
        "to": "0xe6d543d5519882e1a4833b76be337eb002df8336",
        "gas": "0x11763",
        "value": "0x0",
        "input": "0xa285be3200000000000000000000000070997970c51812dc3a010c7d01b50e0d17dc79c8000000000000000000000000cb92af9d683de4835002a1f90931ad0bcf6d89510000000000000000000000000000000000000000000000000000000000000001",
        "nonce": "0x14",
        "chainId": "0x14a34"
      },
      "additionalContracts": [],
      "isFixedGasLimit": false
    },
    {
      "hash": "0x81780ab226d99d3635806cf691846303d3b4eea4e31235e4b6017c9d6ebde165",
      "transactionType": "CALL",
      "contractName": null,
      "contractAddress": "0x5366e9a276d02b30d0631e9f32ed4375165eb939",
      "function": "registerAgent(address,address,bytes32,string,bytes32[],uint96)",
      "arguments": [
        "0x3C44CdDdB6a900fa2b585dd299e03d12FA4293BC",
        "0x3C44CdDdB6a900fa2b585dd299e03d12FA4293BC",
        "0x9a90806e35db6d432c32af78b468706a6f04f6a9b3bab235f9198ce819552397",
        "ipfs://price-agent-manifest",
        "[0x6af8d57439ffc95a5893d7485897e6bc79cda8d8f7ad59da55f23c3028406a38]",
        "0"
      ],
      "transaction": {
        "from": "0x6fc0922431192c84a5faddeb3db3c9f935a3719a",
        "to": "0x5366e9a276d02b30d0631e9f32ed4375165eb939",
        "gas": "0x5a5d2",
        "value": "0x0",
        "input": "0xaa724b440000000000000000000000003c44cdddb6a900fa2b585dd299e03d12fa4293bc0000000000000000000000003c44cdddb6a900fa2b585dd299e03d12fa4293bc9a90806e35db6d432c32af78b468706a6f04f6a9b3bab235f9198ce81955239700000000000000000000000000000000000000000000000000000000000000c000000000000000000000000000000000000000000000000000000000000001000000000000000000000000000000000000000000000000000000000000000000000000000000000000000000000000000000000000000000000000000000001b697066733a2f2f70726963652d6167656e742d6d616e6966657374000000000000000000000000000000000000000000000000000000000000000000000000016af8d57439ffc95a5893d7485897e6bc79cda8d8f7ad59da55f23c3028406a38",
        "nonce": "0x15",
        "chainId": "0x14a34"
      },
      "additionalContracts": [],
      "isFixedGasLimit": false
    },
    {
      "hash": "0x4eef0113eb054befca429bbb8413454b6c80c6af5008b1f179e8e38a1f912a9d",
      "transactionType": "CALL",
      "contractName": null,
      "contractAddress": "0x5366e9a276d02b30d0631e9f32ed4375165eb939",
      "function": "registerAgent(address,address,bytes32,string,bytes32[],uint96)",
      "arguments": [
        "0x90F79bf6EB2c4f870365E785982E1f101E93b906",
        "0x90F79bf6EB2c4f870365E785982E1f101E93b906",
        "0x6a9053d4333f339ecfe08ce3445aa444e18dfbf23132918f71884f3c5a4f54d8",
        "ipfs://volume-agent-manifest",
        "[0x6a5a6bbc61eee87da7722fbf47558e3abfb4f2f0de82cb61196beacea7683270]",
        "0"
      ],
      "transaction": {
        "from": "0x6fc0922431192c84a5faddeb3db3c9f935a3719a",
        "to": "0x5366e9a276d02b30d0631e9f32ed4375165eb939",
        "gas": "0x555b0",
        "value": "0x0",
        "input": "0xaa724b4400000000000000000000000090f79bf6eb2c4f870365e785982e1f101e93b90600000000000000000000000090f79bf6eb2c4f870365e785982e1f101e93b9066a9053d4333f339ecfe08ce3445aa444e18dfbf23132918f71884f3c5a4f54d800000000000000000000000000000000000000000000000000000000000000c000000000000000000000000000000000000000000000000000000000000001000000000000000000000000000000000000000000000000000000000000000000000000000000000000000000000000000000000000000000000000000000001c697066733a2f2f766f6c756d652d6167656e742d6d616e69666573740000000000000000000000000000000000000000000000000000000000000000000000016a5a6bbc61eee87da7722fbf47558e3abfb4f2f0de82cb61196beacea7683270",
        "nonce": "0x16",
        "chainId": "0x14a34"
      },
      "additionalContracts": [],
      "isFixedGasLimit": false
    },
    {
      "hash": "0x5a87dd676114c5f7ad32b55d121e8c66ee451aa85684ddc044473cb992db281d",
      "transactionType": "CALL",
      "contractName": null,
      "contractAddress": "0x5366e9a276d02b30d0631e9f32ed4375165eb939",
      "function": "registerAgent(address,address,bytes32,string,bytes32[],uint96)",
      "arguments": [
        "0x15d34AAf54267DB7D7c367839AAf71A00a2C6A65",
        "0x15d34AAf54267DB7D7c367839AAf71A00a2C6A65",
        "0xfa1228dee14be75c442791891428ec91d0cda9931396c8fd4d30b7bd697d8531",
        "ipfs://yield-agent-manifest",
        "[0x89a06dff28f52cee41ea301afe84fa01147a3d9eb01357854221a525ccacf0ea]",
        "0"
      ],
      "transaction": {
        "from": "0x6fc0922431192c84a5faddeb3db3c9f935a3719a",
        "to": "0x5366e9a276d02b30d0631e9f32ed4375165eb939",
        "gas": "0x5a5f5",
        "value": "0x0",
        "input": "0xaa724b4400000000000000000000000015d34aaf54267db7d7c367839aaf71a00a2c6a6500000000000000000000000015d34aaf54267db7d7c367839aaf71a00a2c6a65fa1228dee14be75c442791891428ec91d0cda9931396c8fd4d30b7bd697d853100000000000000000000000000000000000000000000000000000000000000c000000000000000000000000000000000000000000000000000000000000001000000000000000000000000000000000000000000000000000000000000000000000000000000000000000000000000000000000000000000000000000000001b697066733a2f2f7969656c642d6167656e742d6d616e69666573740000000000000000000000000000000000000000000000000000000000000000000000000189a06dff28f52cee41ea301afe84fa01147a3d9eb01357854221a525ccacf0ea",
        "nonce": "0x17",
        "chainId": "0x14a34"
      },
      "additionalContracts": [],
      "isFixedGasLimit": false
    }
  ],
  "receipts": [
    {
      "status": "0x1",
      "cumulativeGasUsed": "0x345e7a",
      "logs": [
        {
          "address": "0x5366e9a276d02b30d0631e9f32ed4375165eb939",
          "topics": [
            "0x0ccbece07e9e942dc3afc804e70ce0fa736f9176c6f004ee07f7a57648e9e0a0",
            "0x00000000000000000000000070997970c51812dc3a010c7d01b50e0d17dc79c8",
            "0x0000000000000000000000006fc0922431192c84a5faddeb3db3c9f935a3719a",
            "0x9c6076002db2b8917552f5a045baae223fbdd23bf47f62b8eaa353e2322b4f9f"
          ],
          "data": "0x0000000000000000000000000000000000000000000000000000000000000020000000000000000000000000000000000000000000000000000000000000001a697066733a2f2f6d61696e2d6167656e742d6d616e6966657374000000000000",
          "blockHash": "0x0000000000000000000000000000000000000000000000000000000000000000",
          "blockNumber": "0x252a219",
          "blockTimestamp": "0x69b8a312",
          "transactionHash": "0xe5ce85cc7917f3038ad6277de152dc0b8f33ff0afaa9ea34851e5325633ccd57",
          "transactionIndex": "0x11",
          "logIndex": "0x71",
          "removed": false
        },
        {
          "address": "0x5366e9a276d02b30d0631e9f32ed4375165eb939",
          "topics": [
            "0x3ae051ea27c02ca8d0a57aaabe89edb5a424fb26fe51db141e72deec01a11df7",
            "0x00000000000000000000000070997970c51812dc3a010c7d01b50e0d17dc79c8",
            "0xb635b0ee6e4c15c18d1b36f84d92442e53da477ae300027dd06478d4ee0559db"
          ],
          "data": "0x",
          "blockHash": "0x0000000000000000000000000000000000000000000000000000000000000000",
          "blockNumber": "0x252a219",
          "blockTimestamp": "0x69b8a312",
          "transactionHash": "0xe5ce85cc7917f3038ad6277de152dc0b8f33ff0afaa9ea34851e5325633ccd57",
          "transactionIndex": "0x11",
          "logIndex": "0x72",
          "removed": false
        }
      ],
      "logsBloom": "0x00000400000000000002000000000000000000000000000080000000000000000000000000000000000000000000000000000000000020000000000000000000000000010000000810000040001000000000000000000000000000000080000000000800000000000000000000000000010000000000000000001000000000000000000000000000000000000000000000000000000000000000000000000000004000000000000000000000080000000000000000000000000000000000000000000000000000000000004000000000000000000000000000000000020000000001000000000000000000000000000001000000000000000000400000010000",
      "type": "0x2",
      "transactionHash": "0xe5ce85cc7917f3038ad6277de152dc0b8f33ff0afaa9ea34851e5325633ccd57",
      "transactionIndex": "0x11",
      "blockHash": "0x0000000000000000000000000000000000000000000000000000000000000000",
      "blockNumber": "0x252a219",
      "gasUsed": "0x3dc8d",
      "effectiveGasPrice": "0x5b8d80",
      "blobGasUsed": "0x63e8",
      "from": "0x6fc0922431192c84a5faddeb3db3c9f935a3719a",
      "to": "0x5366e9a276d02b30d0631e9f32ed4375165eb939",
      "contractAddress": null,
      "daFootprintGasScalar": "0x8b",
      "l1BaseFeeScalar": "0x44d",
      "l1BlobBaseFee": "0x1",
      "l1BlobBaseFeeScalar": "0xa118b",
      "l1Fee": "0x51",
      "l1GasPrice": "0x9",
      "l1GasUsed": "0xb81"
    },
    {
      "status": "0x1",
      "cumulativeGasUsed": "0x35732f",
      "logs": [
        {
          "address": "0xe6d543d5519882e1a4833b76be337eb002df8336",
          "topics": [
            "0x3d053cf4440e8c79eb14f39dfb689ac34be777c68559f207b5d2abac1d4f1058",
            "0x00000000000000000000000070997970c51812dc3a010c7d01b50e0d17dc79c8",
            "0x0000000000000000000000006fc0922431192c84a5faddeb3db3c9f935a3719a"
          ],
          "data": "0x0000000000000000000000000000000000000000000000000de0b6b3a7640000000000000000000000000000000000000000000000000001158e460913d000000000000000000000000000000000000000000000000000000000000069b8a2fa0000000000000000000000000000000000000000000000000000000069e03004",
          "blockHash": "0x0000000000000000000000000000000000000000000000000000000000000000",
          "blockNumber": "0x252a219",
          "blockTimestamp": "0x69b8a312",
          "transactionHash": "0xa19577c1ff9500d309b51e2869ea596f42164015633b5750290f6fb051b80050",
          "transactionIndex": "0x12",
          "logIndex": "0x73",
          "removed": false
        }
      ],
      "logsBloom": "0x00000400000000000002000000000000000000000000000000000000000000000000000000000000000000000001000000000000000000000000000000000000000000000000000000100000000000000000000000000000000000000000000000000800000000000000000000000000000000000000000000000000000000000000000000000000000000000000000008000000000008000000000000000000000000000000000000000080000000000000000000000800000000000000000000000000000000000000000000000000000000000000000000000000020000000000000000000000000000000000000001000000000000000000400000000000",
      "type": "0x2",
      "transactionHash": "0xa19577c1ff9500d309b51e2869ea596f42164015633b5750290f6fb051b80050",
      "transactionIndex": "0x12",
      "blockHash": "0x0000000000000000000000000000000000000000000000000000000000000000",
      "blockNumber": "0x252a219",
      "gasUsed": "0x114b5",
      "effectiveGasPrice": "0x5b8d80",
      "blobGasUsed": "0x4128",
      "from": "0x6fc0922431192c84a5faddeb3db3c9f935a3719a",
      "to": "0xe6d543d5519882e1a4833b76be337eb002df8336",
      "contractAddress": null,
      "daFootprintGasScalar": "0x8b",
      "l1BaseFeeScalar": "0x44d",
      "l1BlobBaseFee": "0x1",
      "l1BlobBaseFeeScalar": "0xa118b",
      "l1Fee": "0x51",
      "l1GasPrice": "0x9",
      "l1GasUsed": "0x788"
    },
    {
      "status": "0x1",
      "cumulativeGasUsed": "0x363238",
      "logs": [
        {
          "address": "0xe6d543d5519882e1a4833b76be337eb002df8336",
          "topics": [
            "0xcac24fc34fb6fc6a8c4d1b197dc1db1ba3d1814c14cdd7e4c07a6264d1da0c71",
            "0x00000000000000000000000070997970c51812dc3a010c7d01b50e0d17dc79c8",
            "0x000000000000000000000000cb92af9d683de4835002a1f90931ad0bcf6d8951"
          ],
          "data": "0x0000000000000000000000000000000000000000000000000000000000000001",
          "blockHash": "0x0000000000000000000000000000000000000000000000000000000000000000",
          "blockNumber": "0x252a219",
          "blockTimestamp": "0x69b8a312",
          "transactionHash": "0x81758e843db482d33792a80f4791986f41eb517d1660789193bfe93215626ea7",
          "transactionIndex": "0x13",
          "logIndex": "0x74",
          "removed": false
        }
      ],
      "logsBloom": "0x00000000000000000002000000000000000000000000000000000000000000000000000000000000000000000000000000000000000000000000000000000000000000000000000000200000000000000000000000000000000000000000000000000800000000000000002000000000000000000000000000000000000000000000000000000000008000000000000208000000000008000000000000000000000000000000000000000080000000000000000000000800000000000000000000000000000000000000000010000000000000000000000000000000000000000000000000000000000000000000000001000000000000000000000000000000",
      "type": "0x2",
      "transactionHash": "0x81758e843db482d33792a80f4791986f41eb517d1660789193bfe93215626ea7",
      "transactionIndex": "0x13",
      "blockHash": "0x0000000000000000000000000000000000000000000000000000000000000000",
      "blockNumber": "0x252a219",
      "gasUsed": "0xbf09",
      "effectiveGasPrice": "0x5b8d80",
      "blobGasUsed": "0x3903",
      "from": "0x6fc0922431192c84a5faddeb3db3c9f935a3719a",
      "to": "0xe6d543d5519882e1a4833b76be337eb002df8336",
      "contractAddress": null,
      "daFootprintGasScalar": "0x8b",
      "l1BaseFeeScalar": "0x44d",
      "l1BlobBaseFee": "0x1",
      "l1BlobBaseFeeScalar": "0xa118b",
      "l1Fee": "0x51",
      "l1GasPrice": "0x9",
      "l1GasUsed": "0x697"
    },
    {
      "status": "0x1",
      "cumulativeGasUsed": "0x3a0ed1",
      "logs": [
        {
          "address": "0x5366e9a276d02b30d0631e9f32ed4375165eb939",
          "topics": [
            "0x0ccbece07e9e942dc3afc804e70ce0fa736f9176c6f004ee07f7a57648e9e0a0",
            "0x0000000000000000000000003c44cdddb6a900fa2b585dd299e03d12fa4293bc",
            "0x0000000000000000000000006fc0922431192c84a5faddeb3db3c9f935a3719a",
            "0x9a90806e35db6d432c32af78b468706a6f04f6a9b3bab235f9198ce819552397"
          ],
          "data": "0x0000000000000000000000000000000000000000000000000000000000000020000000000000000000000000000000000000000000000000000000000000001b697066733a2f2f70726963652d6167656e742d6d616e69666573740000000000",
          "blockHash": "0x0000000000000000000000000000000000000000000000000000000000000000",
          "blockNumber": "0x252a219",
          "blockTimestamp": "0x69b8a312",
          "transactionHash": "0x81780ab226d99d3635806cf691846303d3b4eea4e31235e4b6017c9d6ebde165",
          "transactionIndex": "0x14",
          "logIndex": "0x75",
          "removed": false
        },
        {
          "address": "0x5366e9a276d02b30d0631e9f32ed4375165eb939",
          "topics": [
            "0x3ae051ea27c02ca8d0a57aaabe89edb5a424fb26fe51db141e72deec01a11df7",
            "0x0000000000000000000000003c44cdddb6a900fa2b585dd299e03d12fa4293bc",
            "0x6af8d57439ffc95a5893d7485897e6bc79cda8d8f7ad59da55f23c3028406a38"
          ],
          "data": "0x",
          "blockHash": "0x0000000000000000000000000000000000000000000000000000000000000000",
          "blockNumber": "0x252a219",
          "blockTimestamp": "0x69b8a312",
          "transactionHash": "0x81780ab226d99d3635806cf691846303d3b4eea4e31235e4b6017c9d6ebde165",
          "transactionIndex": "0x14",
          "logIndex": "0x76",
          "removed": false
        }
      ],
      "logsBloom": "0x00000400001000000000100000000000000000000000000080000000000000000000000000000020000000000000000000000000000020000000000000100000000000010000000810000000001000000000000000000000000000000080000000000000000000000000000000000000000800000000000000000208000000000000000000000000000000000000000000000000000000000000000000000000004000000000200000000000000000000000000000000000000000000000000000001000000000000000000000000000000000000000000000000000020000000000000000000000000000000000000000000000000000000000400000010000",
      "type": "0x2",
      "transactionHash": "0x81780ab226d99d3635806cf691846303d3b4eea4e31235e4b6017c9d6ebde165",
      "transactionIndex": "0x14",
      "blockHash": "0x0000000000000000000000000000000000000000000000000000000000000000",
      "blockNumber": "0x252a219",
      "gasUsed": "0x3dc99",
      "effectiveGasPrice": "0x5b8d80",
      "blobGasUsed": "0x63e8",
      "from": "0x6fc0922431192c84a5faddeb3db3c9f935a3719a",
      "to": "0x5366e9a276d02b30d0631e9f32ed4375165eb939",
      "contractAddress": null,
      "daFootprintGasScalar": "0x8b",
      "l1BaseFeeScalar": "0x44d",
      "l1BlobBaseFee": "0x1",
      "l1BlobBaseFeeScalar": "0xa118b",
      "l1Fee": "0x51",
      "l1GasPrice": "0x9",
      "l1GasUsed": "0xb8f"
    },
    {
      "status": "0x1",
      "cumulativeGasUsed": "0x3deb8e",
      "logs": [
        {
          "address": "0x5366e9a276d02b30d0631e9f32ed4375165eb939",
          "topics": [
            "0x0ccbece07e9e942dc3afc804e70ce0fa736f9176c6f004ee07f7a57648e9e0a0",
            "0x00000000000000000000000090f79bf6eb2c4f870365e785982e1f101e93b906",
            "0x0000000000000000000000006fc0922431192c84a5faddeb3db3c9f935a3719a",
            "0x6a9053d4333f339ecfe08ce3445aa444e18dfbf23132918f71884f3c5a4f54d8"
          ],
          "data": "0x0000000000000000000000000000000000000000000000000000000000000020000000000000000000000000000000000000000000000000000000000000001c697066733a2f2f766f6c756d652d6167656e742d6d616e696665737400000000",
          "blockHash": "0x0000000000000000000000000000000000000000000000000000000000000000",
          "blockNumber": "0x252a219",
          "blockTimestamp": "0x69b8a312",
          "transactionHash": "0x5a87dd676114c5f7ad32b55d121e8c66ee451aa85684ddc044473cb992db281d",
          "transactionIndex": "0x15",
          "logIndex": "0x77",
          "removed": false
        },
        {
          "address": "0x5366e9a276d02b30d0631e9f32ed4375165eb939",
          "topics": [
            "0x3ae051ea27c02ca8d0a57aaabe89edb5a424fb26fe51db141e72deec01a11df7",
            "0x00000000000000000000000090f79bf6eb2c4f870365e785982e1f101e93b906",
            "0x6a5a6bbc61eee87da7722fbf47558e3abfb4f2f0de82cb61196beacea7683270"
          ],
          "data": "0x",
          "blockHash": "0x0000000000000000000000000000000000000000000000000000000000000000",
          "blockNumber": "0x252a219",
          "blockTimestamp": "0x69b8a312",
          "transactionHash": "0x5a87dd676114c5f7ad32b55d121e8c66ee451aa85684ddc044473cb992db281d",
          "transactionIndex": "0x15",
          "logIndex": "0x78",
          "removed": false
        }
      ],
      "logsBloom": "0x00000400000000000000000000000000000000000000000080000000000000000000000000000000000000000000000000000000000020008000000000000000000000010000000810000000001000000000000000000000000000000080000000000000000000000000000000000000000000000000000000000000000000000000000000000800002000000000000000000000000000000400000000000000004000000000000000000000000000000000000000000000000000000000000000000000000000000000000200080000400000000000800000000000020000000000000000000000000010000000000000000000000000000000400000010000",
      "type": "0x2",
      "transactionHash": "0x5a87dd676114c5f7ad32b55d121e8c66ee451aa85684ddc044473cb992db281d",
      "transactionIndex": "0x15",
      "blockHash": "0x0000000000000000000000000000000000000000000000000000000000000000",
      "blockNumber": "0x252a219",
      "gasUsed": "0x3dcbd",
      "effectiveGasPrice": "0x5b8d80",
      "blobGasUsed": "0x6473",
      "from": "0x6fc0922431192c84a5faddeb3db3c9f935a3719a",
      "to": "0x5366e9a276d02b30d0631e9f32ed4375165eb939",
      "contractAddress": null,
      "daFootprintGasScalar": "0x8b",
      "l1BaseFeeScalar": "0x44d",
      "l1BlobBaseFee": "0x1",
      "l1BlobBaseFeeScalar": "0xa118b",
      "l1Fee": "0x51",
      "l1GasPrice": "0x9",
      "l1GasUsed": "0xb9c"
    },
    {
      "status": "0x1",
      "cumulativeGasUsed": "0x41c83f",
      "logs": [
        {
          "address": "0x5366e9a276d02b30d0631e9f32ed4375165eb939",
          "topics": [
            "0x0ccbece07e9e942dc3afc804e70ce0fa736f9176c6f004ee07f7a57648e9e0a0",
            "0x00000000000000000000000015d34aaf54267db7d7c367839aaf71a00a2c6a65",
            "0x0000000000000000000000006fc0922431192c84a5faddeb3db3c9f935a3719a",
            "0xfa1228dee14be75c442791891428ec91d0cda9931396c8fd4d30b7bd697d8531"
          ],
          "data": "0x0000000000000000000000000000000000000000000000000000000000000020000000000000000000000000000000000000000000000000000000000000001b697066733a2f2f7969656c642d6167656e742d6d616e69666573740000000000",
          "blockHash": "0x0000000000000000000000000000000000000000000000000000000000000000",
          "blockNumber": "0x252a219",
          "blockTimestamp": "0x69b8a312",
          "transactionHash": "0x4eef0113eb054befca429bbb8413454b6c80c6af5008b1f179e8e38a1f912a9d",
          "transactionIndex": "0x16",
          "logIndex": "0x79",
          "removed": false
        },
        {
          "address": "0x5366e9a276d02b30d0631e9f32ed4375165eb939",
          "topics": [
            "0x3ae051ea27c02ca8d0a57aaabe89edb5a424fb26fe51db141e72deec01a11df7",
            "0x00000000000000000000000015d34aaf54267db7d7c367839aaf71a00a2c6a65",
            "0x89a06dff28f52cee41ea301afe84fa01147a3d9eb01357854221a525ccacf0ea"
          ],
          "data": "0x",
          "blockHash": "0x0000000000000000000000000000000000000000000000000000000000000000",
          "blockNumber": "0x252a219",
          "blockTimestamp": "0x69b8a312",
          "transactionHash": "0x4eef0113eb054befca429bbb8413454b6c80c6af5008b1f179e8e38a1f912a9d",
          "transactionIndex": "0x16",
          "logIndex": "0x7a",
          "removed": false
        }
      ],
      "logsBloom": "0x00000400040000000000000001000000000000000000000080800000000000000000000000000000000000000000000000000000000020000000000000000000000000010000000810000800001000000000000000000000000000000080000000008000000000000000000000000000000000000000000000000000000000000000000000000000000000000000000000000000000000000000000100000000004000000000000000000000000000000000000000000000000000000000000000000000000000000000000000000000000000000000000000000000020004000000000010000000010000000000000000000000000000000000400000010000",
      "type": "0x2",
      "transactionHash": "0x4eef0113eb054befca429bbb8413454b6c80c6af5008b1f179e8e38a1f912a9d",
      "transactionIndex": "0x16",
      "blockHash": "0x0000000000000000000000000000000000000000000000000000000000000000",
      "blockNumber": "0x252a219",
      "gasUsed": "0x3dcb1",
      "effectiveGasPrice": "0x5b8d80",
      "blobGasUsed": "0x63e8",
      "from": "0x6fc0922431192c84a5faddeb3db3c9f935a3719a",
      "to": "0x5366e9a276d02b30d0631e9f32ed4375165eb939",
      "contractAddress": null,
      "daFootprintGasScalar": "0x8b",
      "l1BaseFeeScalar": "0x44d",
      "l1BlobBaseFee": "0x1",
      "l1BlobBaseFeeScalar": "0xa118b",
      "l1Fee": "0x51",
      "l1GasPrice": "0x9",
      "l1GasUsed": "0xb8f"
    }
  ],
  "libraries": [],
  "pending": [],
  "returns": {},
  "timestamp": 1773708048807,
  "chain": 84532,
  "commit": null
}