{
  "transactions": [
    {
      "hash": "0x3b0fdd37d745452d4f7d10705e74213e196da3dbe68d86d0c749950cbab44200",
      "transactionType": "CALL",
      "contractName": null,
      "contractAddress": "0x5366e9a276d02b30d0631e9f32ed4375165eb939",
      "function": "registerAgent(address,address,bytes32,string,bytes32[],uint96)",
      "arguments": [
        "0x727a2483C4F90CA03FB1a8Db16d9ED86e86FB8Dc",
        "0x727a2483C4F90CA03FB1a8Db16d9ED86e86FB8Dc",
        "0x9c6076002db2b8917552f5a045baae223fbdd23bf47f62b8eaa353e2322b4f9f",
        "ipfs://main-agent-manifest",
        "[0xb635b0ee6e4c15c18d1b36f84d92442e53da477ae300027dd06478d4ee0559db]",
        "0"
      ],
      "transaction": {
        "from": "0x6fc0922431192c84a5faddeb3db3c9f935a3719a",
        "to": "0x5366e9a276d02b30d0631e9f32ed4375165eb939",
        "gas": "0x54410",
        "value": "0x0",
        "input": "0xaa724b44000000000000000000000000727a2483c4f90ca03fb1a8db16d9ed86e86fb8dc000000000000000000000000727a2483c4f90ca03fb1a8db16d9ed86e86fb8dc9c6076002db2b8917552f5a045baae223fbdd23bf47f62b8eaa353e2322b4f9f00000000000000000000000000000000000000000000000000000000000000c000000000000000000000000000000000000000000000000000000000000001000000000000000000000000000000000000000000000000000000000000000000000000000000000000000000000000000000000000000000000000000000001a697066733a2f2f6d61696e2d6167656e742d6d616e69666573740000000000000000000000000000000000000000000000000000000000000000000000000001b635b0ee6e4c15c18d1b36f84d92442e53da477ae300027dd06478d4ee0559db",
        "nonce": "0x19",
        "chainId": "0x14a34"
      },
      "additionalContracts": [],
      "isFixedGasLimit": false
    },
    {
      "hash": "0xc065270a6ee63966b62fdd7bbcfa4921b0012d27b5adf10c69d680d55ef6bbd6",
      "transactionType": "CALL",
      "contractName": null,
      "contractAddress": "0xe6d543d5519882e1a4833b76be337eb002df8336",
      "function": "setPolicy(address,uint96,uint96,uint64,uint64)",
      "arguments": [
        "0x727a2483C4F90CA03FB1a8Db16d9ED86e86FB8Dc",
        "1000000000000000000",
        "20000000000000000000",
        "1773711674",
        "1776303684"
      ],
      "transaction": {
        "from": "0x6fc0922431192c84a5faddeb3db3c9f935a3719a",
        "to": "0xe6d543d5519882e1a4833b76be337eb002df8336",
        "gas": "0x17e33",
        "value": "0x0",
        "input": "0x5cece493000000000000000000000000727a2483c4f90ca03fb1a8db16d9ed86e86fb8dc0000000000000000000000000000000000000000000000000de0b6b3a7640000000000000000000000000000000000000000000000000001158e460913d000000000000000000000000000000000000000000000000000000000000069b8b13a0000000000000000000000000000000000000000000000000000000069e03e44",
        "nonce": "0x1a",
        "chainId": "0x14a34"
      },
      "additionalContracts": [],
      "isFixedGasLimit": false
    },
    {
      "hash": "0x383836766d41c824bc8404dee524143061f952c127696e2eefa127e440ef39c6",
      "transactionType": "CALL",
      "contractName": null,
      "contractAddress": "0xe6d543d5519882e1a4833b76be337eb002df8336",
      "function": "setApprovedTarget(address,address,bool)",
      "arguments": [
        "0x727a2483C4F90CA03FB1a8Db16d9ED86e86FB8Dc",
        "0xcB92AF9D683de4835002A1f90931aD0BCF6D8951",
        "true"
      ],
      "transaction": {
        "from": "0x6fc0922431192c84a5faddeb3db3c9f935a3719a",
        "to": "0xe6d543d5519882e1a4833b76be337eb002df8336",
        "gas": "0x11763",
        "value": "0x0",
        "input": "0xa285be32000000000000000000000000727a2483c4f90ca03fb1a8db16d9ed86e86fb8dc000000000000000000000000cb92af9d683de4835002a1f90931ad0bcf6d89510000000000000000000000000000000000000000000000000000000000000001",
        "nonce": "0x1b",
        "chainId": "0x14a34"
      },
      "additionalContracts": [],
      "isFixedGasLimit": false
    },
    {
      "hash": "0xb049b3af421afc360a7db5f864dff43179854378f479989e0330a22b3a82eaac",
      "transactionType": "CALL",
      "contractName": null,
      "contractAddress": "0x5366e9a276d02b30d0631e9f32ed4375165eb939",
      "function": "registerAgent(address,address,bytes32,string,bytes32[],uint96)",
      "arguments": [
        "0x3B93DA6DA26998da057d2997306dE32e97222125",
        "0x3B93DA6DA26998da057d2997306dE32e97222125",
        "0x9a90806e35db6d432c32af78b468706a6f04f6a9b3bab235f9198ce819552397",
        "ipfs://price-agent-manifest",
        "[0x6af8d57439ffc95a5893d7485897e6bc79cda8d8f7ad59da55f23c3028406a38]",
        "0"
      ],
      "transaction": {
        "from": "0x6fc0922431192c84a5faddeb3db3c9f935a3719a",
        "to": "0x5366e9a276d02b30d0631e9f32ed4375165eb939",
        "gas": "0x4f95d",
        "value": "0x0",
        "input": "0xaa724b440000000000000000000000003b93da6da26998da057d2997306de32e972221250000000000000000000000003b93da6da26998da057d2997306de32e972221259a90806e35db6d432c32af78b468706a6f04f6a9b3bab235f9198ce81955239700000000000000000000000000000000000000000000000000000000000000c000000000000000000000000000000000000000000000000000000000000001000000000000000000000000000000000000000000000000000000000000000000000000000000000000000000000000000000000000000000000000000000001b697066733a2f2f70726963652d6167656e742d6d616e6966657374000000000000000000000000000000000000000000000000000000000000000000000000016af8d57439ffc95a5893d7485897e6bc79cda8d8f7ad59da55f23c3028406a38",
        "nonce": "0x1c",
        "chainId": "0x14a34"
      },
      "additionalContracts": [],
      "isFixedGasLimit": false
    },
    {
      "hash": "0x6fd63aebe1e20e5161824fa470587a0d1650cd44c09102111df583864e893c4e",
      "transactionType": "CALL",
      "contractName": null,
      "contractAddress": "0x5366e9a276d02b30d0631e9f32ed4375165eb939",
      "function": "registerAgent(address,address,bytes32,string,bytes32[],uint96)",
      "arguments": [
        "0x8e6bEAF605D8cDD36591226c7487ee41aBE8B677",
        "0x8e6bEAF605D8cDD36591226c7487ee41aBE8B677",
        "0x6a9053d4333f339ecfe08ce3445aa444e18dfbf23132918f71884f3c5a4f54d8",
        "ipfs://volume-agent-manifest",
        "[0x6a5a6bbc61eee87da7722fbf47558e3abfb4f2f0de82cb61196beacea7683270]",
        "0"
      ],
      "transaction": {
        "from": "0x6fc0922431192c84a5faddeb3db3c9f935a3719a",
        "to": "0x5366e9a276d02b30d0631e9f32ed4375165eb939",
        "gas": "0x54456",
        "value": "0x0",
        "input": "0xaa724b440000000000000000000000008e6beaf605d8cdd36591226c7487ee41abe8b6770000000000000000000000008e6beaf605d8cdd36591226c7487ee41abe8b6776a9053d4333f339ecfe08ce3445aa444e18dfbf23132918f71884f3c5a4f54d800000000000000000000000000000000000000000000000000000000000000c000000000000000000000000000000000000000000000000000000000000001000000000000000000000000000000000000000000000000000000000000000000000000000000000000000000000000000000000000000000000000000000001c697066733a2f2f766f6c756d652d6167656e742d6d616e69666573740000000000000000000000000000000000000000000000000000000000000000000000016a5a6bbc61eee87da7722fbf47558e3abfb4f2f0de82cb61196beacea7683270",
        "nonce": "0x1d",
        "chainId": "0x14a34"
      },
      "additionalContracts": [],
      "isFixedGasLimit": false
    },
    {
      "hash": "0x61dde8a3f752a2b503640dfa41fcab38beb127f0856be3a652eb30e17d2da1c4",
      "transactionType": "CALL",
      "contractName": null,
      "contractAddress": "0x5366e9a276d02b30d0631e9f32ed4375165eb939",
      "function": "registerAgent(address,address,bytes32,string,bytes32[],uint96)",
      "arguments": [
        "0x808c89d742e22d805b83e2b40da6471B2353Afaf",
        "0x808c89d742e22d805b83e2b40da6471B2353Afaf",
        "0xfa1228dee14be75c442791891428ec91d0cda9931396c8fd4d30b7bd697d8531",
        "ipfs://yield-agent-manifest",
        "[0x89a06dff28f52cee41ea301afe84fa01147a3d9eb01357854221a525ccacf0ea]",
        "0"
      ],
      "transaction": {
        "from": "0x6fc0922431192c84a5faddeb3db3c9f935a3719a",
        "to": "0x5366e9a276d02b30d0631e9f32ed4375165eb939",
        "gas": "0x4f95d",
        "value": "0x0",
        "input": "0xaa724b44000000000000000000000000808c89d742e22d805b83e2b40da6471b2353afaf000000000000000000000000808c89d742e22d805b83e2b40da6471b2353afaffa1228dee14be75c442791891428ec91d0cda9931396c8fd4d30b7bd697d853100000000000000000000000000000000000000000000000000000000000000c000000000000000000000000000000000000000000000000000000000000001000000000000000000000000000000000000000000000000000000000000000000000000000000000000000000000000000000000000000000000000000000001b697066733a2f2f7969656c642d6167656e742d6d616e69666573740000000000000000000000000000000000000000000000000000000000000000000000000189a06dff28f52cee41ea301afe84fa01147a3d9eb01357854221a525ccacf0ea",
        "nonce": "0x1e",
        "chainId": "0x14a34"
      },
      "additionalContracts": [],
      "isFixedGasLimit": false
    }
  ],
  "receipts": [
    {
      "status": "0x1",
      "cumulativeGasUsed": "0x15fbf5",
      "logs": [
        {
          "address": "0x5366e9a276d02b30d0631e9f32ed4375165eb939",
          "topics": [
            "0x0ccbece07e9e942dc3afc804e70ce0fa736f9176c6f004ee07f7a57648e9e0a0",
            "0x000000000000000000000000727a2483c4f90ca03fb1a8db16d9ed86e86fb8dc",
            "0x0000000000000000000000006fc0922431192c84a5faddeb3db3c9f935a3719a",
            "0x9c6076002db2b8917552f5a045baae223fbdd23bf47f62b8eaa353e2322b4f9f"
          ],
          "data": "0x0000000000000000000000000000000000000000000000000000000000000020000000000000000000000000000000000000000000000000000000000000001a697066733a2f2f6d61696e2d6167656e742d6d616e6966657374000000000000",
          "blockHash": "0x0000000000000000000000000000000000000000000000000000000000000000",
          "blockNumber": "0x252a93b",
          "blockTimestamp": "0x69b8b156",
          "transactionHash": "0xc065270a6ee63966b62fdd7bbcfa4921b0012d27b5adf10c69d680d55ef6bbd6",
          "transactionIndex": "0x9",
          "logIndex": "0x3b",
          "removed": false
        },
        {
          "address": "0x5366e9a276d02b30d0631e9f32ed4375165eb939",
          "topics": [
            "0x3ae051ea27c02ca8d0a57aaabe89edb5a424fb26fe51db141e72deec01a11df7",
            "0x000000000000000000000000727a2483c4f90ca03fb1a8db16d9ed86e86fb8dc",
            "0xb635b0ee6e4c15c18d1b36f84d92442e53da477ae300027dd06478d4ee0559db"
          ],
          "data": "0x",
          "blockHash": "0x0000000000000000000000000000000000000000000000000000000000000000",
          "blockNumber": "0x252a93b",
          "blockTimestamp": "0x69b8b156",
          "transactionHash": "0xc065270a6ee63966b62fdd7bbcfa4921b0012d27b5adf10c69d680d55ef6bbd6",
          "transactionIndex": "0x9",
          "logIndex": "0x3c",
          "removed": false
        }
      ],
      "logsBloom": "0x00000400000000000000000100000000000000000000000080000000000000000000000000000000000000002000000000000000000020000000000000000000000000010000000810000040001000000000000000000000000000000080000000000000000000000000000000000000010000000000000000009000000000000000000000000000000000000000000000000000000000000000000000000000004000000000000000000000080000000000000000000000000000000000000000000000000000000000004000000000000000000000000000000000020000000001000000000000000000000000000000000000000000000000400000010000",
      "type": "0x2",
      "transactionHash": "0xc065270a6ee63966b62fdd7bbcfa4921b0012d27b5adf10c69d680d55ef6bbd6",
      "transactionIndex": "0x9",
      "blockHash": "0x0000000000000000000000000000000000000000000000000000000000000000",
      "blockNumber": "0x252a93b",
      "gasUsed": "0x399c1",
      "effectiveGasPrice": "0x5b8d80",
      "blobGasUsed": "0x63e8",
      "from": "0x6fc0922431192c84a5faddeb3db3c9f935a3719a",
      "to": "0x5366e9a276d02b30d0631e9f32ed4375165eb939",
      "contractAddress": null,
      "daFootprintGasScalar": "0x8b",
      "l1BaseFeeScalar": "0x44d",
      "l1BlobBaseFee": "0x1",
      "l1BlobBaseFeeScalar": "0xa118b",
      "l1Fee": "0x51",
      "l1GasPrice": "0x9",
      "l1GasUsed": "0xb81"
    },
    {
      "status": "0x1",
      "cumulativeGasUsed": "0x1710aa",
      "logs": [
        {
          "address": "0xe6d543d5519882e1a4833b76be337eb002df8336",
          "topics": [
            "0x3d053cf4440e8c79eb14f39dfb689ac34be777c68559f207b5d2abac1d4f1058",
            "0x000000000000000000000000727a2483c4f90ca03fb1a8db16d9ed86e86fb8dc",
            "0x0000000000000000000000006fc0922431192c84a5faddeb3db3c9f935a3719a"
          ],
          "data": "0x0000000000000000000000000000000000000000000000000de0b6b3a7640000000000000000000000000000000000000000000000000001158e460913d000000000000000000000000000000000000000000000000000000000000069b8b13a0000000000000000000000000000000000000000000000000000000069e03e44",
          "blockHash": "0x0000000000000000000000000000000000000000000000000000000000000000",
          "blockNumber": "0x252a93b",
          "blockTimestamp": "0x69b8b156",
          "transactionHash": "0x61dde8a3f752a2b503640dfa41fcab38beb127f0856be3a652eb30e17d2da1c4",
          "transactionIndex": "0xa",
          "logIndex": "0x3d",
          "removed": false
        }
      ],
      "logsBloom": "0x00000400000000000000000100000000000000000000000000000000000000000000000000000000000000002001000000000000000000000000000000000000000000000000000000100000000000000000000000000000000000000000000000000000000000000000000000000000000000000000000000008000000000000000000000000000000000000000000008000000000008000000000000000000000000000000000000000080000000000000000000000800000000000000000000000000000000000000000000000000000000000000000000000000020000000000000000000000000000000000000000000000000000000000400000000000",
      "type": "0x2",
      "transactionHash": "0x61dde8a3f752a2b503640dfa41fcab38beb127f0856be3a652eb30e17d2da1c4",
      "transactionIndex": "0xa",
      "blockHash": "0x0000000000000000000000000000000000000000000000000000000000000000",
      "blockNumber": "0x252a93b",
      "gasUsed": "0x114b5",
      "effectiveGasPrice": "0x5b8d80",
      "blobGasUsed": "0x4128",
      "from": "0x6fc0922431192c84a5faddeb3db3c9f935a3719a",
      "to": "0xe6d543d5519882e1a4833b76be337eb002df8336",
      "contractAddress": null,
      "daFootprintGasScalar": "0x8b",
      "l1BaseFeeScalar": "0x44d",
      "l1BlobBaseFee": "0x1",
      "l1BlobBaseFeeScalar": "0xa118b",
      "l1Fee": "0x51",
      "l1GasPrice": "0x9",
      "l1GasUsed": "0x788"
    },
    {
      "status": "0x1",
      "cumulativeGasUsed": "0x17cfb3",
      "logs": [
        {
          "address": "0xe6d543d5519882e1a4833b76be337eb002df8336",
          "topics": [
            "0xcac24fc34fb6fc6a8c4d1b197dc1db1ba3d1814c14cdd7e4c07a6264d1da0c71",
            "0x000000000000000000000000727a2483c4f90ca03fb1a8db16d9ed86e86fb8dc",
            "0x000000000000000000000000cb92af9d683de4835002a1f90931ad0bcf6d8951"
          ],
          "data": "0x0000000000000000000000000000000000000000000000000000000000000001",
          "blockHash": "0x0000000000000000000000000000000000000000000000000000000000000000",
          "blockNumber": "0x252a93b",
          "blockTimestamp": "0x69b8b156",
          "transactionHash": "0xb049b3af421afc360a7db5f864dff43179854378f479989e0330a22b3a82eaac",
          "transactionIndex": "0xb",
          "logIndex": "0x3e",
          "removed": false
        }
      ],
      "logsBloom": "0x00000000000000000000000100000000000000000000000000000000000000000000000000000000000000002000000000000000000000000000000000000000000000000000000000200000000000000000000000000000000000000000000000000000000000000000002000000000000000000000000000008000000000000000000000000000008000000000000208000000000008000000000000000000000000000000000000000080000000000000000000000800000000000000000000000000000000000000000010000000000000000000000000000000000000000000000000000000000000000000000000000000000000000000000000000000",
      "type": "0x2",
      "transactionHash": "0xb049b3af421afc360a7db5f864dff43179854378f479989e0330a22b3a82eaac",
      "transactionIndex": "0xb",
      "blockHash": "0x0000000000000000000000000000000000000000000000000000000000000000",
      "blockNumber": "0x252a93b",
      "gasUsed": "0xbf09",
      "effectiveGasPrice": "0x5b8d80",
      "blobGasUsed": "0x3903",
      "from": "0x6fc0922431192c84a5faddeb3db3c9f935a3719a",
      "to": "0xe6d543d5519882e1a4833b76be337eb002df8336",
      "contractAddress": null,
      "daFootprintGasScalar": "0x8b",
      "l1BaseFeeScalar": "0x44d",
      "l1BlobBaseFee": "0x1",
      "l1BlobBaseFeeScalar": "0xa118b",
      "l1Fee": "0x51",
      "l1GasPrice": "0x9",
      "l1GasUsed": "0x697"
    },
    {
      "status": "0x1",
      "cumulativeGasUsed": "0x1b6998",
      "logs": [
        {
          "address": "0x5366e9a276d02b30d0631e9f32ed4375165eb939",
          "topics": [
            "0x0ccbece07e9e942dc3afc804e70ce0fa736f9176c6f004ee07f7a57648e9e0a0",
            "0x0000000000000000000000003b93da6da26998da057d2997306de32e97222125",
            "0x0000000000000000000000006fc0922431192c84a5faddeb3db3c9f935a3719a",
            "0x9a90806e35db6d432c32af78b468706a6f04f6a9b3bab235f9198ce819552397"
          ],
          "data": "0x0000000000000000000000000000000000000000000000000000000000000020000000000000000000000000000000000000000000000000000000000000001b697066733a2f2f70726963652d6167656e742d6d616e69666573740000000000",
          "blockHash": "0x0000000000000000000000000000000000000000000000000000000000000000",
          "blockNumber": "0x252a93b",
          "blockTimestamp": "0x69b8b156",
          "transactionHash": "0x3b0fdd37d745452d4f7d10705e74213e196da3dbe68d86d0c749950cbab44200",
          "transactionIndex": "0xc",
          "logIndex": "0x3f",
          "removed": false
        },
        {
          "address": "0x5366e9a276d02b30d0631e9f32ed4375165eb939",
          "topics": [
            "0x3ae051ea27c02ca8d0a57aaabe89edb5a424fb26fe51db141e72deec01a11df7",
            "0x0000000000000000000000003b93da6da26998da057d2997306de32e97222125",
            "0x6af8d57439ffc95a5893d7485897e6bc79cda8d8f7ad59da55f23c3028406a38"
          ],
          "data": "0x",
          "blockHash": "0x0000000000000000000000000000000000000000000000000000000000000000",
          "blockNumber": "0x252a93b",
          "blockTimestamp": "0x69b8b156",
          "transactionHash": "0x3b0fdd37d745452d4f7d10705e74213e196da3dbe68d86d0c749950cbab44200",
          "transactionIndex": "0xc",
          "logIndex": "0x40",
          "removed": false
        }
      ],
      "logsBloom": "0x00000400001000000000100000000000000000000000000080000000000000000000000000000020000000000000000000000000000020000000000000000000000000010000000810000000001000000000000000000000000000000480000000000000000000000000000000000000000000000000000000000208000000000000000000000000000000000000000000000000000000000000000000000000004000000000000000000000000000000000000000000000000000000000000000001000000000000000000000000000000000000400000000000000020000000000000000000000000000000000000000000000000000000000400000010000",
      "type": "0x2",
      "transactionHash": "0x3b0fdd37d745452d4f7d10705e74213e196da3dbe68d86d0c749950cbab44200",
      "transactionIndex": "0xc",
      "blockHash": "0x0000000000000000000000000000000000000000000000000000000000000000",
      "blockNumber": "0x252a93b",
      "gasUsed": "0x399e5",
      "effectiveGasPrice": "0x5b8d80",
      "blobGasUsed": "0x63e8",
      "from": "0x6fc0922431192c84a5faddeb3db3c9f935a3719a",
      "to": "0x5366e9a276d02b30d0631e9f32ed4375165eb939",
      "contractAddress": null,
      "daFootprintGasScalar": "0x8b",
      "l1BaseFeeScalar": "0x44d",
      "l1BlobBaseFee": "0x1",
      "l1BlobBaseFeeScalar": "0xa118b",
      "l1Fee": "0x51",
      "l1GasPrice": "0x9",
      "l1GasUsed": "0xb8f"
    },
    {
      "status": "0x1",
      "cumulativeGasUsed": "0x2b53c5",
      "logs": [
        {
          "address": "0x5366e9a276d02b30d0631e9f32ed4375165eb939",
          "topics": [
            "0x0ccbece07e9e942dc3afc804e70ce0fa736f9176c6f004ee07f7a57648e9e0a0",
            "0x0000000000000000000000008e6beaf605d8cdd36591226c7487ee41abe8b677",
            "0x0000000000000000000000006fc0922431192c84a5faddeb3db3c9f935a3719a",
            "0x6a9053d4333f339ecfe08ce3445aa444e18dfbf23132918f71884f3c5a4f54d8"
          ],
          "data": "0x0000000000000000000000000000000000000000000000000000000000000020000000000000000000000000000000000000000000000000000000000000001c697066733a2f2f766f6c756d652d6167656e742d6d616e696665737400000000",
          "blockHash": "0x0000000000000000000000000000000000000000000000000000000000000000",
          "blockNumber": "0x252a93b",
          "blockTimestamp": "0x69b8b156",
          "transactionHash": "0x383836766d41c824bc8404dee524143061f952c127696e2eefa127e440ef39c6",
          "transactionIndex": "0x11",
          "logIndex": "0x4b",
          "removed": false
        },
        {
          "address": "0x5366e9a276d02b30d0631e9f32ed4375165eb939",
          "topics": [
            "0x3ae051ea27c02ca8d0a57aaabe89edb5a424fb26fe51db141e72deec01a11df7",
            "0x0000000000000000000000008e6beaf605d8cdd36591226c7487ee41abe8b677",
            "0x6a5a6bbc61eee87da7722fbf47558e3abfb4f2f0de82cb61196beacea7683270"
          ],
          "data": "0x",
          "blockHash": "0x0000000000000000000000000000000000000000000000000000000000000000",
          "blockNumber": "0x252a93b",
          "blockTimestamp": "0x69b8b156",
          "transactionHash": "0x383836766d41c824bc8404dee524143061f952c127696e2eefa127e440ef39c6",
          "transactionIndex": "0x11",
          "logIndex": "0x4c",
          "removed": false
        }
      ],
      "logsBloom": "0x00000400000000000000000000000000000000000000000080000100000000000004000000000000000000000000000000000000000020008000000000000000000000010000000810000000001000000000000000000000000000000080000000000000000000000000000000000000000000000000000000000000000000000000000000000800002000000000000000000000000000000000000000000000004000000000000000000000000000000000000000000000000000000000020000000000000000000000000200080000000000000000800000000000020000000000000000000000000000000000000000000000000000000000400000010000",
      "type": "0x2",
      "transactionHash": "0x383836766d41c824bc8404dee524143061f952c127696e2eefa127e440ef39c6",
      "transactionIndex": "0x11",
      "blockHash": "0x0000000000000000000000000000000000000000000000000000000000000000",
      "blockNumber": "0x252a93b",
      "gasUsed": "0x399f1",
      "effectiveGasPrice": "0x5b8d80",
      "blobGasUsed": "0x6473",
      "from": "0x6fc0922431192c84a5faddeb3db3c9f935a3719a",
      "to": "0x5366e9a276d02b30d0631e9f32ed4375165eb939",
      "contractAddress": null,
      "daFootprintGasScalar": "0x8b",
      "l1BaseFeeScalar": "0x44d",
      "l1BlobBaseFee": "0x1",
      "l1BlobBaseFeeScalar": "0xa118b",
      "l1Fee": "0x51",
      "l1GasPrice": "0x9",
      "l1GasUsed": "0xb9c"
    },
    {
      "status": "0x1",
      "cumulativeGasUsed": "0xeb44b",
      "logs": [
        {
          "address": "0x5366e9a276d02b30d0631e9f32ed4375165eb939",
          "topics": [
            "0x0ccbece07e9e942dc3afc804e70ce0fa736f9176c6f004ee07f7a57648e9e0a0",
            "0x000000000000000000000000808c89d742e22d805b83e2b40da6471b2353afaf",
            "0x0000000000000000000000006fc0922431192c84a5faddeb3db3c9f935a3719a",
            "0xfa1228dee14be75c442791891428ec91d0cda9931396c8fd4d30b7bd697d8531"
          ],
          "data": "0x0000000000000000000000000000000000000000000000000000000000000020000000000000000000000000000000000000000000000000000000000000001b697066733a2f2f7969656c642d6167656e742d6d616e69666573740000000000",
          "blockHash": "0x0000000000000000000000000000000000000000000000000000000000000000",
          "blockNumber": "0x252a93c",
          "blockTimestamp": "0x69b8b158",
          "transactionHash": "0x6fd63aebe1e20e5161824fa470587a0d1650cd44c09102111df583864e893c4e",
          "transactionIndex": "0x5",
          "logIndex": "0xc",
          "removed": false
        },
        {
          "address": "0x5366e9a276d02b30d0631e9f32ed4375165eb939",
          "topics": [
            "0x3ae051ea27c02ca8d0a57aaabe89edb5a424fb26fe51db141e72deec01a11df7",
            "0x000000000000000000000000808c89d742e22d805b83e2b40da6471b2353afaf",
            "0x89a06dff28f52cee41ea301afe84fa01147a3d9eb01357854221a525ccacf0ea"
          ],
          "data": "0x",
          "blockHash": "0x0000000000000000000000000000000000000000000000000000000000000000",
          "blockNumber": "0x252a93c",
          "blockTimestamp": "0x69b8b158",
          "transactionHash": "0x6fd63aebe1e20e5161824fa470587a0d1650cd44c09102111df583864e893c4e",
          "transactionIndex": "0x5",
          "logIndex": "0xd",
          "removed": false
        }
      ],
      "logsBloom": "0x00000400000000000000000001000000000000000000000080800000000000000000000000000000000000000000800000000000000020000000000000000000000000010000000810000800001000000000000000000000000002000080000000008000000000000000000000000000000000000000000000000000000000000000000000000000000000000000000000000000000000000000000000000000004000000000000000000000000000000040000000000000000000000000000000000000000000000000000000000000000000000000000000000000020000000000000010000000010000000000000000000000000000000000400000010000",
      "type": "0x2",
      "transactionHash": "0x6fd63aebe1e20e5161824fa470587a0d1650cd44c09102111df583864e893c4e",
      "transactionIndex": "0x5",
      "blockHash": "0x0000000000000000000000000000000000000000000000000000000000000000",
      "blockNumber": "0x252a93c",
      "gasUsed": "0x399e5",
      "effectiveGasPrice": "0x5b8d80",
      "blobGasUsed": "0x63e8",
      "from": "0x6fc0922431192c84a5faddeb3db3c9f935a3719a",
      "to": "0x5366e9a276d02b30d0631e9f32ed4375165eb939",
      "contractAddress": null,
      "daFootprintGasScalar": "0x8b",
      "l1BaseFeeScalar": "0x44d",
      "l1BlobBaseFee": "0x1",
      "l1BlobBaseFeeScalar": "0xa118b",
      "l1Fee": "0x51",
      "l1GasPrice": "0x9",
      "l1GasUsed": "0xb8f"
    }
  ],
  "libraries": [],
  "pending": [],
  "returns": {},
  "timestamp": 1773711702472,
  "chain": 84532,
  "commit": null
}