{
  "transactions": [
    {
      "hash": null,
      "transactionType": "CALL",
      "contractName": null,
      "contractAddress": "0x5366e9a276d02b30d0631e9f32ed4375165eb939",
      "function": "registerAgent(address,address,bytes32,string,bytes32[],uint96)",
      "arguments": [
        "0x70997970C51812dc3A010C7d01b50e0d17dc79C8",
        "0x70997970C51812dc3A010C7d01b50e0d17dc79C8",
        "0x9c6076002db2b8917552f5a045baae223fbdd23bf47f62b8eaa353e2322b4f9f",
        "ipfs://main-agent-manifest",
        "[0xb635b0ee6e4c15c18d1b36f84d92442e53da477ae300027dd06478d4ee0559db]",
        "0"
      ],
      "transaction": {
        "from": "0x70997970c51812dc3a010c7d01b50e0d17dc79c8",
        "to": "0x5366e9a276d02b30d0631e9f32ed4375165eb939",
        "gas": "0x5556e",
        "value": "0x0",
        "input": "0xaa724b4400000000000000000000000070997970c51812dc3a010c7d01b50e0d17dc79c800000000000000000000000070997970c51812dc3a010c7d01b50e0d17dc79c89c6076002db2b8917552f5a045baae223fbdd23bf47f62b8eaa353e2322b4f9f00000000000000000000000000000000000000000000000000000000000000c000000000000000000000000000000000000000000000000000000000000001000000000000000000000000000000000000000000000000000000000000000000000000000000000000000000000000000000000000000000000000000000001a697066733a2f2f6d61696e2d6167656e742d6d616e69666573740000000000000000000000000000000000000000000000000000000000000000000000000001b635b0ee6e4c15c18d1b36f84d92442e53da477ae300027dd06478d4ee0559db",
        "nonce": "0x881",
        "chainId": "0x14a34"
      },
      "additionalContracts": [],
      "isFixedGasLimit": false
    },
    {
      "hash": null,
      "transactionType": "CALL",
      "contractName": null,
      "contractAddress": "0xe6d543d5519882e1a4833b76be337eb002df8336",
      "function": "setPolicy(address,uint96,uint96,uint64,uint64)",
      "arguments": [
        "0x70997970C51812dc3A010C7d01b50e0d17dc79C8",
        "1000000000000000000",
        "20000000000000000000",
        "1773707352",
        "1776299362"
      ],
      "transaction": {
        "from": "0x70997970c51812dc3a010c7d01b50e0d17dc79c8",
        "to": "0xe6d543d5519882e1a4833b76be337eb002df8336",
        "gas": "0x17e33",
        "value": "0x0",
        "input": "0x5cece49300000000000000000000000070997970c51812dc3a010c7d01b50e0d17dc79c80000000000000000000000000000000000000000000000000de0b6b3a7640000000000000000000000000000000000000000000000000001158e460913d000000000000000000000000000000000000000000000000000000000000069b8a0580000000000000000000000000000000000000000000000000000000069e02d62",
        "nonce": "0x882",
        "chainId": "0x14a34"
      },
      "additionalContracts": [],
      "isFixedGasLimit": false
    },
    {
      "hash": null,
      "transactionType": "CALL",
      "contractName": null,
      "contractAddress": "0xe6d543d5519882e1a4833b76be337eb002df8336",
      "function": "setApprovedTarget(address,address,bool)",
      "arguments": [
        "0x70997970C51812dc3A010C7d01b50e0d17dc79C8",
        "0xcB92AF9D683de4835002A1f90931aD0BCF6D8951",
        "true"
      ],
      "transaction": {
        "from": "0x70997970c51812dc3a010c7d01b50e0d17dc79c8",
        "to": "0xe6d543d5519882e1a4833b76be337eb002df8336",
        "gas": "0x11763",
        "value": "0x0",
        "input": "0xa285be3200000000000000000000000070997970c51812dc3a010c7d01b50e0d17dc79c8000000000000000000000000cb92af9d683de4835002a1f90931ad0bcf6d89510000000000000000000000000000000000000000000000000000000000000001",
        "nonce": "0x883",
        "chainId": "0x14a34"
      },
      "additionalContracts": [],
      "isFixedGasLimit": false
    },
    {
      "hash": null,
      "transactionType": "CALL",
      "contractName": null,
      "contractAddress": "0x5366e9a276d02b30d0631e9f32ed4375165eb939",
      "function": "registerAgent(address,address,bytes32,string,bytes32[],uint96)",
      "arguments": [
        "0x3C44CdDdB6a900fa2b585dd299e03d12FA4293BC",
        "0x3C44CdDdB6a900fa2b585dd299e03d12FA4293BC",
        "0x9a90806e35db6d432c32af78b468706a6f04f6a9b3bab235f9198ce819552397",
        "ipfs://price-agent-manifest",
        "[0x6af8d57439ffc95a5893d7485897e6bc79cda8d8f7ad59da55f23c3028406a38]",
        "0"
      ],
      "transaction": {
        "from": "0x3c44cdddb6a900fa2b585dd299e03d12fa4293bc",
        "to": "0x5366e9a276d02b30d0631e9f32ed4375165eb939",
        "gas": "0x5a5d2",
        "value": "0x0",
        "input": "0xaa724b440000000000000000000000003c44cdddb6a900fa2b585dd299e03d12fa4293bc0000000000000000000000003c44cdddb6a900fa2b585dd299e03d12fa4293bc9a90806e35db6d432c32af78b468706a6f04f6a9b3bab235f9198ce81955239700000000000000000000000000000000000000000000000000000000000000c000000000000000000000000000000000000000000000000000000000000001000000000000000000000000000000000000000000000000000000000000000000000000000000000000000000000000000000000000000000000000000000001b697066733a2f2f70726963652d6167656e742d6d616e6966657374000000000000000000000000000000000000000000000000000000000000000000000000016af8d57439ffc95a5893d7485897e6bc79cda8d8f7ad59da55f23c3028406a38",
        "nonce": "0x480",
        "chainId": "0x14a34"
      },
      "additionalContracts": [],
      "isFixedGasLimit": false
    },
    {
      "hash": null,
      "transactionType": "CALL",
      "contractName": null,
      "contractAddress": "0x5366e9a276d02b30d0631e9f32ed4375165eb939",
      "function": "registerAgent(address,address,bytes32,string,bytes32[],uint96)",
      "arguments": [
        "0x90F79bf6EB2c4f870365E785982E1f101E93b906",
        "0x90F79bf6EB2c4f870365E785982E1f101E93b906",
        "0x6a9053d4333f339ecfe08ce3445aa444e18dfbf23132918f71884f3c5a4f54d8",
        "ipfs://volume-agent-manifest",
        "[0x6a5a6bbc61eee87da7722fbf47558e3abfb4f2f0de82cb61196beacea7683270]",
        "0"
      ],
      "transaction": {
        "from": "0x90f79bf6eb2c4f870365e785982e1f101e93b906",
        "to": "0x5366e9a276d02b30d0631e9f32ed4375165eb939",
        "gas": "0x555b0",
        "value": "0x0",
        "input": "0xaa724b4400000000000000000000000090f79bf6eb2c4f870365e785982e1f101e93b90600000000000000000000000090f79bf6eb2c4f870365e785982e1f101e93b9066a9053d4333f339ecfe08ce3445aa444e18dfbf23132918f71884f3c5a4f54d800000000000000000000000000000000000000000000000000000000000000c000000000000000000000000000000000000000000000000000000000000001000000000000000000000000000000000000000000000000000000000000000000000000000000000000000000000000000000000000000000000000000000001c697066733a2f2f766f6c756d652d6167656e742d6d616e69666573740000000000000000000000000000000000000000000000000000000000000000000000016a5a6bbc61eee87da7722fbf47558e3abfb4f2f0de82cb61196beacea7683270",
        "nonce": "0x9b",
        "chainId": "0x14a34"
      },
      "additionalContracts": [],
      "isFixedGasLimit": false
    },
    {
      "hash": null,
      "transactionType": "CALL",
      "contractName": null,
      "contractAddress": "0x5366e9a276d02b30d0631e9f32ed4375165eb939",
      "function": "registerAgent(address,address,bytes32,string,bytes32[],uint96)",
      "arguments": [
        "0x15d34AAf54267DB7D7c367839AAf71A00a2C6A65",
        "0x15d34AAf54267DB7D7c367839AAf71A00a2C6A65",
        "0xfa1228dee14be75c442791891428ec91d0cda9931396c8fd4d30b7bd697d8531",
        "ipfs://yield-agent-manifest",
        "[0x89a06dff28f52cee41ea301afe84fa01147a3d9eb01357854221a525ccacf0ea]",
        "0"
      ],
      "transaction": {
        "from": "0x15d34aaf54267db7d7c367839aaf71a00a2c6a65",
        "to": "0x5366e9a276d02b30d0631e9f32ed4375165eb939",
        "gas": "0x5a5f5",
        "value": "0x0",
        "input": "0xaa724b4400000000000000000000000015d34aaf54267db7d7c367839aaf71a00a2c6a6500000000000000000000000015d34aaf54267db7d7c367839aaf71a00a2c6a65fa1228dee14be75c442791891428ec91d0cda9931396c8fd4d30b7bd697d853100000000000000000000000000000000000000000000000000000000000000c000000000000000000000000000000000000000000000000000000000000001000000000000000000000000000000000000000000000000000000000000000000000000000000000000000000000000000000000000000000000000000000001b697066733a2f2f7969656c642d6167656e742d6d616e69666573740000000000000000000000000000000000000000000000000000000000000000000000000189a06dff28f52cee41ea301afe84fa01147a3d9eb01357854221a525ccacf0ea",
        "nonce": "0x19e",
        "chainId": "0x14a34"
      },
      "additionalContracts": [],
      "isFixedGasLimit": false
    }
  ],
  "receipts": [],
  "libraries": [],
  "pending": [],
  "returns": {},
  "timestamp": 1773707384667,
  "chain": 84532,
  "commit": null
}