{
  "transactions": [
    {
      "hash": "0x1e34d15fa14a54cd8523bbab69bfe2e8e5910c057803c7b199d13c356cb0e6ea",
      "transactionType": "CREATE",
      "contractName": "EscrowBond",
      "contractAddress": "0x7ef8e99980da5bcedcf7c10f41e55f759f6a174b",
      "function": null,
      "arguments": null,
      "transaction": {
        "from": "0x976ea74026e726554db657fa54763abd0c3a0aa9",
        "gas": "0xf0edc",
        "value": "0x0",
        "input": "0x608080604052346026575f80546001600160a01b03191633179055610c5a908161002b8239f35b5f80fdfe60806040526004361015610011575f80fd5b5f3560e01c80631d43ba0c14610863578063250055e714610743578063388cfbf71461062d5780635f1c17c0146105d557806373ad6c2d146104c95780638da5cb5b146104a2578063a03be0e814610327578063abc8c7af146102ff578063c918af2014610209578063f301af42146101ae5763f6a0adb014610092575f80fd5b346101aa576100a036610988565b6100b560018060a01b036001541633146109ae565b6001600160a01b0316906100ca821515610b0f565b805f52600260205260405f205f8080806001600160601b0385546100f360ff8260601c16610b4c565b61010360ff8260681c1615610b8c565b61011360ff8260701c1615610bd8565b60ff60681b198116600160681b17875516875af161012f610a6d565b501561016c5760206001600160601b037fff3af4543fe27fe802a7e783645cde2354445198a2bdef27f5b8ea942766bd33925416604051908152a3005b60405162461bcd60e51b81526020600482015260166024820152751c995dd85c99081d1c985b9cd9995c8819985a5b195960521b6044820152606490fd5b5f80fd5b346101aa5760203660031901126101aa576004355f526002602052608060405f205460ff604051916001600160601b0381168352818160601c1615156020840152818160681c161515604084015260701c1615156060820152f35b346101aa5761021736610988565b61022c60018060a01b036001541633146109ae565b6001600160a01b031690610241821515610b0f565b805f52600360205260405f2060018101610100815461026260ff82166109ec565b61027260ff8260081c1615610a2a565b61ff0019161790555f808080845460a01c875af161028e610a6d565b50156102c55760207fcec8c5e690163e894affec6ae8222b2ca759b87da012b2dbb1d84be7fe3282d8915460a01c604051908152a3005b60405162461bcd60e51b8152602060048201526012602482015271189bdb99081c995d1d5c9b8819985a5b195960721b6044820152606490fd5b346101aa575f3660031901126101aa576001546040516001600160a01b039091168152602090f35b60403660031901126101aa576024356001600160a01b03811690600435908290036101aa5761036160018060a01b036001541633146109ae565b61036c811515610ad2565b811561046957341561043457805f52600360205260405f20600181019060ff8254166103f9576001600160a01b0384163460a081901b6001600160a01b03191691909117909155815461ffff19166001179091556040516001600160601b039190911681527f5a6275754fa96d5a6d5be7579ff3f86941284ff794b18f113881c2501abdf45690602090a3005b60405162461bcd60e51b8152602060048201526013602482015272189bdb9908185b1c9958591e481c1bdcdd1959606a1b6044820152606490fd5b60405162461bcd60e51b815260206004820152600d60248201526c6e6f20626f6e642076616c756560981b6044820152606490fd5b60405162461bcd60e51b81526020600482015260116024820152701e995c9bc8189bdb991959081859d95b9d607a1b6044820152606490fd5b346101aa575f3660031901126101aa575f546040516001600160a01b039091168152602090f35b346101aa5760203660031901126101aa576004356001600160a01b038116908190036101aa575f546001600160a01b031633036105a457801561056c576001546001600160a01b038116610527576001600160a01b03191617600155005b60405162461bcd60e51b815260206004820152601760248201527f6d61726b6574706c61636520616c7265616479207365740000000000000000006044820152606490fd5b60405162461bcd60e51b815260206004820152601060248201526f7a65726f206d61726b6574706c61636560801b6044820152606490fd5b60405162461bcd60e51b81526020600482015260096024820152683737ba1037bbb732b960b91b6044820152606490fd5b346101aa5760203660031901126101aa576004355f526003602052608060405f2060ff600182549201546040519260018060a01b038116845260a01c60208401528181161515604084015260081c1615156060820152f35b346101aa5761063b36610988565b61065060018060a01b036001541633146109ae565b6001600160a01b031690610665821515610b0f565b805f52600260205260405f205f8080806001600160601b03855461068e60ff8260601c16610b4c565b61069e60ff8260681c1615610b8c565b6106ae60ff8260701c1615610bd8565b60ff60701b198116600160701b17875516875af16106ca610a6d565b50156107075760206001600160601b037f140f6e818f0411d7126f093f09dd175f5d88af98eb8eaa77fc696ebf542c139a925416604051908152a3005b60405162461bcd60e51b81526020600482015260146024820152731c995dd85c99081c99599d5b990819985a5b195960621b6044820152606490fd5b60203660031901126101aa5760043561076760018060a01b036001541633146109ae565b610772811515610ad2565b341561082c57805f52600260205260405f2080549060ff8260601c166107ef5761ffff60681b19600160601b6001600160601b0334166cffffffffffffffffffffffffff19949094168417171690556040519081527f3f4da7a519eb172658739769a3d20463f3470478f1c47d9049453128e92bb52e90602090a2005b60405162461bcd60e51b81526020600482015260156024820152741c995dd85c9908185b1c9958591e48199d5b991959605a1b6044820152606490fd5b60405162461bcd60e51b815260206004820152600f60248201526e6e6f207265776172642076616c756560881b6044820152606490fd5b346101aa5761087136610988565b61088660018060a01b036001541633146109ae565b6001600160a01b031690811561095357805f52600360205260405f206001810161010081546108b760ff82166109ec565b6108c760ff8260081c1615610a2a565b61ff0019161790555f808080845460a01c875af16108e3610a6d565b501561091a5760207fef92d28ba889e454c67f4445b9666a3836e2fca0a70226c628a2fbf4a25bb45c915460a01c604051908152a3005b60405162461bcd60e51b8152602060048201526011602482015270189bdb99081cdb185cda0819985a5b1959607a1b6044820152606490fd5b60405162461bcd60e51b815260206004820152600d60248201526c7a65726f20747265617375727960981b6044820152606490fd5b60409060031901126101aa57600435906024356001600160a01b03811681036101aa5790565b156109b557565b60405162461bcd60e51b815260206004820152600f60248201526e6e6f74206d61726b6574706c61636560881b6044820152606490fd5b156109f357565b60405162461bcd60e51b815260206004820152600f60248201526e189bdb99081b9bdd081c1bdcdd1959608a1b6044820152606490fd5b15610a3157565b60405162461bcd60e51b8152602060048201526014602482015273189bdb9908185b1c9958591e481cd95d1d1b195960621b6044820152606490fd5b3d15610acd573d9067ffffffffffffffff8211610ab95760405191601f8101601f19908116603f0116830167ffffffffffffffff811184821017610ab95760405282523d5f602084013e565b634e487b7160e01b5f52604160045260245ffd5b606090565b15610ad957565b60405162461bcd60e51b815260206004820152600e60248201526d1a5b9d985b1a59081a9bd8881a5960921b6044820152606490fd5b15610b1657565b60405162461bcd60e51b815260206004820152600e60248201526d1e995c9bc81c9958da5c1a595b9d60921b6044820152606490fd5b15610b5357565b60405162461bcd60e51b81526020600482015260116024820152701c995dd85c99081b9bdd08199d5b991959607a1b6044820152606490fd5b15610b9357565b60405162461bcd60e51b815260206004820152601760248201527f72657761726420616c72656164792072656c65617365640000000000000000006044820152606490fd5b15610bdf57565b60405162461bcd60e51b815260206004820152601760248201527f72657761726420616c726561647920726566756e6465640000000000000000006044820152606490fdfea26469706673582212204a10b76dcaa5ffd5f34d437988d2fea60df5ef9e779774741c9e6fc230f3aa1164736f6c63430008210033",
        "nonce": "0x0",
        "chainId": "0x7a69"
      },
      "additionalContracts": [],
      "isFixedGasLimit": false
    },
    {
      "hash": "0xe2c370ca6ef9c9e3abbe338a4586a9c542388210e2daf8bbeb0e72eaf41bfd3f",
      "transactionType": "CREATE",
      "contractName": "AgentDirectory",
      "contractAddress": "0x82b769500e34362a76df81150e12c746093d954f",
      "function": null,
      "arguments": null,
      "transaction": {
        "from": "0x976ea74026e726554db657fa54763abd0c3a0aa9",
        "gas": "0x177f55",
        "value": "0x0",
        "input": "0x608080604052346026575f80546001600160a01b03191633179055611409908161002b8239f35b5f80fdfe60806040526004361015610011575f80fd5b5f3560e01c80630947d34614610f7357806318f60eaa14610e375780632ce962cf14610d6d578063681ceea114610cb9578063728e7dfe14610ba357806373ad6c2d14610a9b5780638da5cb5b14610a745780638fe89f09146109bc578063a0b1c67e14610973578063aa724b4414610574578063abc8c7af1461054c578063d55f769b14610386578063db7333d41461031a578063f16606661461028a5763fb3551ff146100be575f80fd5b34610286576020366003190112610286576100d7610fa2565b5f60a06040516100e681611124565b828152826020820152826040820152606080820152826080820152015260018060a01b03165f52600260205260405f2060405161012281611124565b81546001600160a01b039081168252600183015416602082019081526002830154604080840191825251600385018054939591935f91610161826111bf565b80875291600181169081156102605750600114610224575b87610100886020896001600160601b038a60048b610199858d038661115c565b606087019485520154926080860191838516835260ff60a088019560601c161515855260405198899787895260018060a01b039051168789015260018060a01b0390511660408801525160608701525160c0608087015280519485918260e0890152018787015e5f858501870152511660a084015251151560c0830152601f01601f19168101030190f35b5f908152602081209092505b8183106102465750508301602001826004610179565b6001816020929493945483858a0101520191019190610230565b60ff191660208089019190915292151560051b8701909201925084915060049050610179565b5f80fd5b34610286576020366003190112610286576102a3610fa2565b5f604080516102b181611140565b828152826020820152015260018060a01b03165f526003602052606060405f2063ffffffff604051916102e383611140565b5481808216938481528160406020830192828660201c168452019360401c1683526040519485525116602084015251166040820152f35b3461028657604036600319011261028657610384610336610fa2565b6001600160a01b038181165f81815260026020526040902054909161035d91161515610fe6565b5f52600260205261037b60018060a01b0360405f20541633146110e9565b602435906112a5565b005b346102865760403660031901126102865761039f610fa2565b60243567ffffffffffffffff8111610286576103bf903690600401610fb8565b6001600160a01b039283165f81815260026020526040902054929390926103e891161515610fe6565b815f52600260205261040760018060a01b0360405f20541633146110e9565b61041281151561117e565b815f526002602052600360405f20019267ffffffffffffffff8211610538576104458261043f86546111bf565b866111f7565b5f93601f83116001146104b65761049483807fb50033393b255482498e2dfdede2bf1fb0913d3ac1090000e70bdc2143b7f82796975f916104ab575b508160011b915f199060031b1c19161790565b90555b6104a660405192839283611255565b0390a2005b905084013588610481565b601f19831694815f5260205f20905f5b8781106105205750847fb50033393b255482498e2dfdede2bf1fb0913d3ac1090000e70bdc2143b7f827969710610507575b5050600183811b019055610497565b8301355f19600386901b60f8161c1916905585806104f8565b909160206001819285880135815501930191016104c6565b634e487b7160e01b5f52604160045260245ffd5b34610286575f366003190112610286576001546040516001600160a01b039091168152602090f35b346102865760c03660031901126102865761058d610fa2565b6024356001600160a01b03811690819003610286576044359060643567ffffffffffffffff8111610286576105c6903690600401610fb8565b92906084359267ffffffffffffffff841161028657366023850112156102865783600401359467ffffffffffffffff8611610286573660248760051b870101116102865760a4356001600160601b038116809103610286576001600160a01b03881692831561093a5780156109005761064083151561117e565b5f848152600260205260409020546001600160a01b03166108bb5760405161066781611124565b338152602081019182526040810187815267ffffffffffffffff8511610538576040519061069f601f8701601f19166020018361115c565b858252368689011161028657858860208401375f82870160209081018290526060850193845260808501968752600160a086018181528a84526002928390526040909320955186546001600160a01b03199081166001600160a01b0392831617885597519187018054909816911617909555905193830193909355518051600383019167ffffffffffffffff8211610538576107458261073f85546111bf565b856111f7565b602090601f8311600114610822576107e0946107ee97946107ab857f0ccbece07e9e942dc3afc804e70ce0fa736f9176c6f004ee07f7a57648e9e0a09b99966001600160601b03966004965f92610817575b50508160011b915f199060031b1c19161790565b90555b019251166001600160601b031983541617825551151581549060ff60601b90151560601b169060ff60601b1916179055565b604051918291339683611255565b0390a45f5b828110156103845760019061081160248260051b85010135866112a5565b016107f3565b015190505f80610797565b90601f19831691845f52815f20925f5b8181106108a35750946001856001600160601b03956004956107e09a957f0ccbece07e9e942dc3afc804e70ce0fa736f9176c6f004ee07f7a57648e9e0a09e9c996107ee9e9b1061088b575b505050811b0190556107ae565b01515f1960f88460031b161c191690555f808061087e565b92936020600181928786015181550195019301610832565b60405162461bcd60e51b815260206004820152601860248201527f6167656e7420616c7265616479207265676973746572656400000000000000006044820152606490fd5b60405162461bcd60e51b81526020600482015260126024820152711e995c9bc81c185e5bdd5d081dd85b1b195d60721b6044820152606490fd5b60405162461bcd60e51b81526020600482015260116024820152701e995c9bc81859d95b9d081dd85b1b195d607a1b6044820152606490fd5b34610286576040366003190112610286576001600160a01b03610994610fa2565b165f52600660205260405f206024355f52602052602060ff60405f2054166040519015158152f35b34610286576020366003190112610286576004355f52600560205260405f20604051806020835491828152019081935f5260205f20905f5b818110610a555750505081610a0a91038261115c565b604051918291602083019060208452518091526040830191905f5b818110610a33575050500390f35b82516001600160a01b0316845285945060209384019390920191600101610a25565b82546001600160a01b03168452602090930192600192830192016109f4565b34610286575f366003190112610286575f546040516001600160a01b039091168152602090f35b3461028657602036600319011261028657610ab4610fa2565b5f546001600160a01b03163303610b72576001600160a01b03168015610b3a576001546001600160a01b038116610af5576001600160a01b03191617600155005b60405162461bcd60e51b815260206004820152601760248201527f6d61726b6574706c61636520616c7265616479207365740000000000000000006044820152606490fd5b60405162461bcd60e51b815260206004820152601060248201526f7a65726f206d61726b6574706c61636560801b6044820152606490fd5b60405162461bcd60e51b81526020600482015260096024820152683737ba1037bbb732b960b91b6044820152606490fd5b3461028657602036600319011261028657610bbc610fa2565b610bd160018060a01b03600154163314611093565b6001600160a01b039081165f818152600260205260409020549091610bf891161515610fe6565b805f52600360205260405f20600a63ffffffff825481610c198183166110d1565b16908219161780845560401c160163ffffffff8111610ca557815463ffffffff60401b191660409190911b63ffffffff60401b161781557fa571dce0a5e6a2c86a34a856ed7764eb6979352483d222a02bd4a306c3f1aaeb906104a6905b546040805163ffffffff8084168252602084811c82169083015292821c909216908201529081906060820190565b634e487b7160e01b5f52601160045260245ffd5b34610286576020366003190112610286576001600160a01b03610cda610fa2565b165f52600460205260405f20604051806020835491828152019081935f5260205f20905f5b818110610d575750505081610d1591038261115c565b604051918291602083019060208452518091526040830191905f5b818110610d3e575050500390f35b8251845285945060209384019390920191600101610d30565b8254845260209093019260019283019201610cff565b3461028657604036600319011261028657610d86610fa2565b6024359081151590818303610286577f6057330a6a595f580d3c93512b86d7a581062f3fe3ce3b84da4e30d037924c7791610e2e60209260018060a01b031694855f5260028452610de460018060a01b0360405f2054161515610fe6565b855f5260028452610e0260018060a01b0360405f20541633146110e9565b5f8681526002855260409020600401805460ff60601b191691151560601b60ff60601b16919091179055565b604051908152a2005b3461028657602036600319011261028657610e50610fa2565b610e6560018060a01b03600154163314611093565b6001600160a01b039081165f818152600260205260409020549091610e8c91161515610fe6565b805f52600360205260405f20600563ffffffff825467ffffffff00000000610eb8838360201c166110d1565b60201b169067ffffffff0000000019161780845560401c1610155f14610f3b5760041963ffffffff825460401c160163ffffffff8111610ca557815463ffffffff60401b191660409190911b63ffffffff60401b161781557fa571dce0a5e6a2c86a34a856ed7764eb6979352483d222a02bd4a306c3f1aaeb906104a690610c77565b6104a67fa571dce0a5e6a2c86a34a856ed7764eb6979352483d222a02bd4a306c3f1aaeb9163ffffffff60401b198154168155610c77565b34610286576020366003190112610286576020610f96610f91610fa2565b611029565b61ffff60405191168152f35b600435906001600160a01b038216820361028657565b9181601f840112156102865782359167ffffffffffffffff8311610286576020838186019501011161028657565b15610fed57565b60405162461bcd60e51b81526020600482015260146024820152731859d95b9d081b9bdd081c9959da5cdd195c995960621b6044820152606490fd5b6001600160a01b039081165f81815260026020526040902054909161105091161515610fe6565b5f52600360205263ffffffff60405f205416801561108c57600381111561108557600a101561107f576101f490565b6103e890565b506107d090565b50610bb890565b1561109a57565b60405162461bcd60e51b815260206004820152600f60248201526e6e6f74206d61726b6574706c61636560881b6044820152606490fd5b63ffffffff60019116019063ffffffff8211610ca557565b156110f057565b60405162461bcd60e51b815260206004820152600c60248201526b3737ba1037b832b930ba37b960a11b6044820152606490fd5b60c0810190811067ffffffffffffffff82111761053857604052565b6060810190811067ffffffffffffffff82111761053857604052565b90601f8019910116810190811067ffffffffffffffff82111761053857604052565b1561118557565b60405162461bcd60e51b8152602060048201526012602482015271656d707479206d616e69666573742055524960701b6044820152606490fd5b90600182811c921680156111ed575b60208310146111d957565b634e487b7160e01b5f52602260045260245ffd5b91607f16916111ce565b919091601f8311611208575b505050565b81831161121457505050565b5f5260205f206020601f830160051c921061124d575b81601f9101920160051c03905f5b82811015611203575f82820155600101611238565b5f915061122a565b90918060409360208452816020850152848401375f828201840152601f01601f1916010190565b8054821015611291575f5260205f2001905f90565b634e487b7160e01b5f52603260045260245ffd5b811561139e5760018060a01b0316805f52600660205260405f20825f5260205260ff60405f20541661139a57805f52600660205260405f20825f5260205260405f20600160ff19825416179055805f52600460205260405f208054600160401b8110156105385761131b9160018201815561127c565b81549060031b9084821b915f19901b1916179055815f52600560205260405f208054600160401b811015610538576113589160018201815561127c565b81546001600160a01b0360039290921b91821b19169083901b1790557f3ae051ea27c02ca8d0a57aaabe89edb5a424fb26fe51db141e72deec01a11df75f80a3565b5050565b60405162461bcd60e51b815260206004820152600d60248201526c7a65726f2063617465676f727960981b6044820152606490fdfea26469706673582212200a74f2d5cf0fad734f7d89f3af25b6364f6a0f5401ca54a89339ecd278f15f3d64736f6c63430008210033",
        "nonce": "0x1",
        "chainId": "0x7a69"
      },
      "additionalContracts": [],
      "isFixedGasLimit": false
    },
    {
      "hash": "0x9cfd549f08671aa950bc04f2c5d70421a812247212fdf3bc1c5d2d52de50cb50",
      "transactionType": "CREATE",
      "contractName": "SpendingPolicy",
      "contractAddress": "0x77c7e3905c21177be97956c6620567596492c497",
      "function": null,
      "arguments": null,
      "transaction": {
        "from": "0x976ea74026e726554db657fa54763abd0c3a0aa9",
        "gas": "0xfd8a1",
        "value": "0x0",
        "input": "0x608080604052346026575f80546001600160a01b03191633179055610d11908161002b8239f35b5f80fdfe60806040526004361015610011575f80fd5b5f3560e01c80631cab1fcc1461090b57806320e986981461087c5780635cece493146105cf57806373ad6c2d146104c75780638da5cb5b146104a05780639061a57f14610453578063a285be321461031c578063aa8c84da146102af578063abc8c7af146102875763e907a34514610087575f80fd5b34610283576040366003190112610283576100a0610962565b6100a861098e565b6001549091906001600160a01b0316330361024c576001600160a01b03165f8181526002602052604090209160016100de6109f5565b938054828060a01b038116865260a01c602086015201549260ff60408201946001600160601b03811686526001600160401b038160601c1660608401526001600160401b038160a01c16608084015260e01c16159060a082159101526102155762015180420492825f52600460205260405f20845f526020526001600160601b03610173818060405f20541694168094610a4d565b91511681116101d9577f927ec5b4868990ae234f2771a1b18a4d7437eab64ee1697c648f413c3511fd6791602091845f526004835260405f20865f5283526001600160601b038060405f209216166001600160601b0319825416179055604051908152a3005b60405162461bcd60e51b815260206004820152601460248201527319185a5b1e481b1a5b5a5d08195e18d95959195960621b6044820152606490fd5b60405162461bcd60e51b815260206004820152600f60248201526e706f6c69637920696e61637469766560881b6044820152606490fd5b60405162461bcd60e51b815260206004820152600f60248201526e6e6f74206d61726b6574706c61636560881b6044820152606490fd5b5f80fd5b34610283575f366003190112610283576001546040516001600160a01b039091168152602090f35b346102835760603660031901126102835760606102e36102cd610962565b6102d5610978565b6102dd6109a4565b91610a6e565b91906020604051938492151583526040828401528051918291826040860152018484015e5f828201840152601f01601f19168101030190f35b3461028357606036600319011261028357610335610962565b61033d610978565b60443591821515809303610283576001600160a01b039081165f81815260026020526040902054909291161561041d57815f52600260205261038c60018060a01b0360405f20541633146109ba565b6001600160a01b03169182156103ea5760207fcac24fc34fb6fc6a8c4d1b197dc1db1ba3d1814c14cdd7e4c07a6264d1da0c7191835f526003825260405f20855f52825260405f2060ff1981541660ff8316179055604051908152a3005b60405162461bcd60e51b815260206004820152600b60248201526a1e995c9bc81d185c99d95d60aa1b6044820152606490fd5b60405162461bcd60e51b815260206004820152600e60248201526d1c1bdb1a58de481b9bdd081cd95d60921b6044820152606490fd5b34610283576040366003190112610283576001600160a01b03610474610962565b165f52600460205260405f206024355f5260205260206001600160601b0360405f205416604051908152f35b34610283575f366003190112610283575f546040516001600160a01b039091168152602090f35b34610283576020366003190112610283576104e0610962565b5f546001600160a01b0316330361059e576001600160a01b03168015610566576001546001600160a01b038116610521576001600160a01b03191617600155005b60405162461bcd60e51b815260206004820152601760248201527f6d61726b6574706c61636520616c7265616479207365740000000000000000006044820152606490fd5b60405162461bcd60e51b815260206004820152601060248201526f7a65726f206d61726b6574706c61636560801b6044820152606490fd5b60405162461bcd60e51b81526020600482015260096024820152683737ba1037bbb732b960b91b6044820152606490fd5b346102835760a0366003190112610283576105e8610962565b6105f061098e565b6105f86109a4565b916064356001600160401b03811680910361028357608435916001600160401b038316809303610283576001600160a01b031692831561084a576001600160601b0316938415610813576001600160601b031680156107db57818311156107a0575f848152600260205260409020546001600160a01b03168061078f575b5061067f6109f5565b33815260208101908682526040810191838352606082018581526001600160601b0380600160808601958a875260a08101958287528c5f52600260205260405f2091838060a01b039051168460a01b835416178255518154908460a01b9060a01b1690838060a01b031617815501955116166001600160601b031985541617845551918354906001600160401b0360a01b905160a01b169160ff60e01b9051151560e01b16926001600160401b0360601b9060601b169070ffffffffffffffffffffffffffffffffff60601b191617171790556040519485526020850152604084015260608301527f3d053cf4440e8c79eb14f39dfb689ac34be777c68559f207b5d2abac1d4f105860803393a3005b61079a9033146109ba565b85610676565b60405162461bcd60e51b8152602060048201526013602482015272696e76616c69642074696d652077696e646f7760681b6044820152606490fd5b60405162461bcd60e51b815260206004820152601060248201526f1e995c9bc819185a5b1e481b1a5b5a5d60821b6044820152606490fd5b60405162461bcd60e51b815260206004820152600f60248201526e7a65726f206d61782073696e676c6560881b6044820152606490fd5b60405162461bcd60e51b815260206004820152600a6024820152691e995c9bc81859d95b9d60b21b6044820152606490fd5b34610283576020366003190112610283576001600160a01b0361089d610962565b165f52600260205260c060405f2060ff600182549201546040519260018060a01b038116845260a01c60208401526001600160601b03811660408401526001600160401b038160601c1660608401526001600160401b038160a01c16608084015260e01c16151560a0820152f35b3461028357604036600319011261028357610924610962565b61092c610978565b9060018060a01b03165f52600360205260405f209060018060a01b03165f52602052602060ff60405f2054166040519015158152f35b600435906001600160a01b038216820361028357565b602435906001600160a01b038216820361028357565b602435906001600160601b038216820361028357565b604435906001600160601b038216820361028357565b156109c157565b60405162461bcd60e51b815260206004820152600c60248201526b3737ba1037b832b930ba37b960a11b6044820152606490fd5b6040519060c082018281106001600160401b03821117610a1457604052565b634e487b7160e01b5f52604160045260245ffd5b6040519190601f01601f191682016001600160401b03811183821017610a1457604052565b91908201809211610a5a57565b634e487b7160e01b5f52601160045260245ffd5b6001600160a01b03165f81815260026020526040902060609392610a906109f5565b946001835493818060a01b0385168852602088019460a01c855201549060408701966001600160601b03831688526001600160401b0383838301931c16825260ff60808201936001600160401b038160a01c16855260e01c16159060a08215910152610ca957516001600160401b03164210610c7257516001600160401b03164211610c4357825f52600360205260405f209060018060a01b03165f5260205260ff60405f20541615610c1057516001600160601b0392831692168211610bd4576001600160601b0391610b80915f52600460205260405f206201518042045f526020528260405f205416610a4d565b91511610610b9b57600190610b956020610a28565b5f815290565b5f90610ba76040610a28565b601a81527f616d6f756e742065786365656473206461696c79206c696d6974000000000000602082015290565b5050505f90610be36040610a28565b601981527f616d6f756e742065786365656473206d61782073696e676c6500000000000000602082015290565b505050505f90610c206040610a28565b60138152721d185c99d95d081b9bdd08185c1c1c9bdd9959606a1b602082015290565b50505050505f90610c546040610a28565b600e81526d1c1bdb1a58de48195e1c1a5c995960921b602082015290565b5050505050505f90610c846040610a28565b60158152741c1bdb1a58de481b9bdd081858dd1a5d99481e595d605a1b602082015290565b505050505050505f90610cbc6040610a28565b600f81526e706f6c69637920696e61637469766560881b60208201529056fea2646970667358221220785424503f28e274e56504da1a09c7c9ef1b53572240eb9d5758e16a030e001e64736f6c63430008210033",
        "nonce": "0x2",
        "chainId": "0x7a69"
      },
      "additionalContracts": [],
      "isFixedGasLimit": false
    },
    {
      "hash": "0x3d0d3707014d5938dc428cb45679d730a0ac1cb64e14b75620f3668fcf9b9092",
      "transactionType": "CREATE",
      "contractName": "JobMarketplace",
      "contractAddress": "0x66db6d191cd163f56197b767928a507df8b47aa7",
      "function": null,
      "arguments": [
        "0x82B769500E34362a76DF81150e12C746093D954F",
        "0x7ef8E99980Da5bcEDcF7C10f41E55f759F6A174B",
        "0x77c7E3905c21177Be97956c6620567596492C497",
        "0x976EA74026E726554dB657fA54763abd0C3a0aa9"
      ],
      "transaction": {
        "from": "0x976ea74026e726554db657fa54763abd0c3a0aa9",
        "gas": "0x27b20b",
        "value": "0x0",
        "input": "0x6080346101d257601f61230238819003918201601f19168301916001600160401b038311848410176101d6578084926080946040528339810103126101d257610047816101ea565b610053602083016101ea565b9161006c6060610065604084016101ea565b92016101ea565b60015f556001600160a01b0390921692831561019c576001600160a01b0316908115610169576001600160a01b0316918215610136576001600160a01b03169283156101015760018060a01b0319600454161760045560018060a01b0319600554161760055560018060a01b0319600654161760065560018060a01b0319600154161760015560405161210390816101ff8239f35b60405162461bcd60e51b815260206004820152600d60248201526c7a65726f20747265617375727960981b6044820152606490fd5b60405162461bcd60e51b815260206004820152600b60248201526a7a65726f20706f6c69637960a81b6044820152606490fd5b60405162461bcd60e51b815260206004820152600b60248201526a7a65726f20657363726f7760a81b6044820152606490fd5b60405162461bcd60e51b815260206004820152600e60248201526d7a65726f206469726563746f727960901b6044820152606490fd5b5f80fd5b634e487b7160e01b5f52604160045260245ffd5b51906001600160a01b03821682036101d25756fe6080806040526004361015610012575f80fd5b5f905f3560e01c9081630505c8c914611c1857508063180aedf314611b025780632e66884f146112ca57806361d027b3146112a157806363b2f3c914610e915780638b65aa8714610e485780638c0dd79a14610b9f578063a4545bbd14610af8578063a6d310831461062d578063b0c2aa5e14610610578063c41c2f24146105e7578063cac5c512146103a5578063e2fdcc171461037c5763f3634a32146100b8575f80fd5b34610379576020366003190112610379576004358082526002602052604082206100e481541515611fc6565b600981019060ff8254166007811015610365576002811490811561035a575b50156103205783916101153385612077565b8015610310575b6101259061203c565b805460ff1916600590811782555460028301546001600160a01b039081169116803b1561030c5760405163388cfbf760e01b8152600481018790526001600160a01b0392909216602483015284908290604490829084905af19081156103015784916102ec575b50505460081c60ff16806102d3575b806102bd575b6101ce575b50807fb75cf56c3b87307029f0059a671fedc39db6212ba4ef07f39d4f053185dc900691a280f35b6005546001546001600160a01b039081169116803b156102b957604051630750ee8360e21b8152600481018690526001600160a01b0392909216602483015283908290604490829084905af19081156102ae578391610299575b50506004546003909101546001600160a01b039182169116813b15610295578291602483926040519485938492630c7b075560e11b845260048401525af1801561028a57156101a6578161027b91611ca3565b61028657815f6101a6565b5080fd5b6040513d84823e3d90fd5b8280fd5b816102a391611ca3565b61028657815f610228565b6040513d85823e3d90fd5b8380fd5b5060038101546001600160a01b031615156101a1565b506001600160601b03600882015460601c16151561019b565b816102f691611ca3565b61029557825f61018c565b6040513d86823e3d90fd5b8480fd5b50600882015460c01c421161011c565b60405162461bcd60e51b81526020600482015260126024820152716a6f62206e6f74207265736f6c7661626c6560701b6044820152606490fd5b60039150145f610103565b634e487b7160e01b85526021600452602485fd5b80fd5b50346103795780600319360112610379576005546040516001600160a01b039091168152602090f35b5034610379576020366003190112610379576004358082526002602052604082206103d281541515611fc6565b6009810160ff8154166007811015610365576003036105ae5783916103ff6103fa3386612077565b61203c565b815460ff191660041782556005546003820180549093916001600160a01b039182169116803b156105aa57604051630f6a0adb60e41b8152600481018890526001600160a01b0392909216602483015285908290604490829084905af190811561059f57859161058a575b50505460081c60ff169081610570575b506104a8575b50807f02244c8529cb95e213ee542e76e7776342b3dabd10203d01472bbf4441be892991a280f35b60055481546001600160a01b039081169116803b156102b957604051630648c57960e51b8152600481018690526001600160a01b0392909216602483015283908290604490829084905af19081156102ae57839161055b575b505060045490546001600160a01b039182169116813b156102955782916024839260405194859384926339473eff60e11b845260048401525af1801561028a5715610480578161055091611ca3565b61028657815f610480565b8161056591611ca3565b61028657815f610501565b6001600160601b0391506008015460601c1615155f61047a565b8161059491611ca3565b6102b957835f61046a565b6040513d87823e3d90fd5b8580fd5b60405162461bcd60e51b81526020600482015260116024820152701a9bd8881b9bdd081cdd589b5a5d1d1959607a1b6044820152606490fd5b50346103795780600319360112610379576004546040516001600160a01b039091168152602090f35b503461037957806003193601126103795760209054604051908152f35b506080366003190112610379576024356001600160401b03811161028657610659903690600401611d88565b91604435906001600160601b0382168203610379576064356001600160401b03811681036102865761068e6004351515611dde565b610699851515611e1a565b6001600160601b0383163403610ab3576106bd6001600160601b0384161515611e57565b6106d1426001600160401b03831611611e91565b6107198254946106e086611ef8565b8455604051966106ef88611c73565b86885284602089015233604089015284606089015284608089015260043560a08901523691611f1a565b60c086015260209460405161072e8782611ca3565b83815260e08201526001600160601b03841661010082015261012081018390526001600160401b038281166101408301526001610160830181905261018083018581528786526002808a5260408088208651815560208701519481019490945585015190830180546001600160a01b039283166001600160a01b0319918216179091556060860151600385018054918416918316919091179055608086015160048501805491909316911617905560a0840151600583015560c084015180519193600684019291908211610a3b576108108261080a8554611c3b565b85611f50565b8a90601f8311600114610a4f5761083e92918991836109c5575b50508160011b915f199060031b1c19161790565b90555b6007810160e08401518051906001600160401b038211610a3b576108698261080a8554611c3b565b8a90601f83116001146109d0578261016095936009959361089e938c926109c55750508160011b915f199060031b1c19161790565b90555b61010085015161012086015161014087015160c01b6001600160c01b0319166001600160601b0390921660609190911b600160601b600160c01b03161717600882015591909301519201916007811015610365576108ff9083611fae565b51815461ff00191690151560081b61ff00161790556005546001600160a01b0316803b1561029557826024916040519283809263250055e760e01b825289600483015234905af180156102ae579083916109b0575b50506001600160401b03906001600160601b036040519460043586521686850152166040830152806060830152827f1ee49ee641b21459160c4aa6648e943b5f32a7b884b002a1e966adb923c2cde960803394a4604051908152f35b816109ba91611ca3565b61028657815f610954565b015190505f8061082a565b8389528b89209190601f1984168a8e5b828210610a2357505092600192859261016098966009989610610a0b575b505050811b0190556108a1565b01515f1960f88460031b161c191690555f80806109fe565b806001869782949787015181550196019401906109e0565b634e487b7160e01b88526041600452602488fd5b8389528b89209190601f1984168a8e5b828210610a9b575050908460019594939210610a83575b505050811b019055610841565b01515f1960f88460031b161c191690555f8080610a76565b80600186978294978701518155019601940190610a5f565b60405162461bcd60e51b815260206004820152601860248201527f696e636f7272656374207265776172642066756e64696e6700000000000000006044820152606490fd5b5034610379576020366003190112610379576004358152600360205260408120604051908160208254918281520190819285526020852090855b818110610b895750505082610b48910383611ca3565b604051928392602084019060208552518091526040840192915b818110610b70575050500390f35b8251845285945060209384019390920191600101610b62565b8254845260209093019260019283019201610b32565b503461037957604036600319011261037957600435906024356001600160401b03811161028657610bd4903690600401611d88565b909280835260026020526040832093610bef85541515611fc6565b600985019460ff8654166007811015610e3457600203610dfc5760038101546001600160a01b03163303610dc257610c30600882015460c01c421115612002565b8315610d8e57600701946001600160401b038411610d7a57610c5c84610c568854611c3b565b88611f50565b8495601f8511600114610cf757610cad858088997fc06b551d984e333ac851ab20b1454a08d92740468f52ff54c0cd5270817f20a997989991610cec575b508160011b915f199060031b1c19161790565b90555b600360ff19825416179055836040519160208352816020840152604083013784604085830101526040813395601f80199101168101030190a380f35b90508501355f610c9a565b80865260208620601f19861697875b898110610d625750867fc06b551d984e333ac851ab20b1454a08d92740468f52ff54c0cd5270817f20a99697989910610d49575b5050600186811b019055610cb0565b8401355f19600389901b60f8161c191690555f80610d3a565b90916020600181928589013581550193019101610d06565b634e487b7160e01b85526041600452602485fd5b60405162461bcd60e51b815260206004820152600c60248201526b195b5c1d1e481c995cdd5b1d60a21b6044820152606490fd5b60405162461bcd60e51b81526020600482015260126024820152711b9bdd08185cdcda59db9959081859d95b9d60721b6044820152606490fd5b60405162461bcd60e51b815260206004820152601060248201526f1a9bd8881b9bdd081858d8d95c1d195960821b6044820152606490fd5b634e487b7160e01b86526021600452602486fd5b503461037957604036600319011261037957602435906004358152600360205260408120908154831015610379576020610e828484611db5565b90549060031b1c604051908152f35b5060203660031901126103795760043580825260026020526040822090610eba82541515611fc6565b60098201805460ff81166007811015610e345760010361126d576008840190815490610eeb8260c01c421115612002565b60048601546001600160a01b031680611226575b50869060081c60ff16156111d95750600480546005870154604051635058e33f60e11b8152339381019390935260248301526001600160a01b03169190602081604481865afa9081156111ce578891611190575b5015611157576020602492604051938480926304a3e9a360e11b82523360048301525afa91821561114c578792611102575b506001600160601b0361ffff91169116908181029181830414901517156110ee576127106001600160601b03910416938434036110b8576005546001600160a01b03169086823b156103795780604493604051948580926314077c1d60e31b82528a600483015233602483015234905af19283156110ab578793611090575b505091600361104d935b0180546001600160a01b0319163317905580546bffffffffffffffffffffffff60601b191660609290921b600160601b600160c01b0316919091179055565b600260ff198254161790556001600160601b03604051921682527f50adb3307747836538b62a264510cffe42012b516ef36719f803024d5ca0146f60203393a380f35b819293509061109e91611ca3565b6105aa578490865f611004565b50604051903d90823e3d90fd5b60405162461bcd60e51b815260206004820152600e60248201526d1a5b98dbdc9c9958dd08189bdb9960921b6044820152606490fd5b634e487b7160e01b86526011600452602486fd5b9091506020813d602011611144575b8161111e60209383611ca3565b81010312611140575161ffff8116810361114057906001600160601b03610f85565b8680fd5b3d9150611111565b6040513d89823e3d90fd5b60405162461bcd60e51b81526020600482015260116024820152706167656e74206e6f742063617061626c6560781b6044820152606490fd5b90506020813d6020116111c6575b816111ab60209383611ca3565b810103126111c2576111bc90611ed0565b5f610f53565b8780fd5b3d915061119e565b6040513d8a823e3d90fd5b949050346111ee5761104d916003869261100e565b60405162461bcd60e51b815260206004820152601060248201526f1b9bc8189bdb99081c995c5d5a5c995960821b6044820152606490fd5b3303611232575f610eff565b60405162461bcd60e51b81526020600482015260136024820152721b9bdd081c1c9959995c9c9959081859d95b9d606a1b6044820152606490fd5b60405162461bcd60e51b815260206004820152600c60248201526b3537b1103737ba1037b832b760a11b6044820152606490fd5b50346103795780600319360112610379576001546040516001600160a01b039091168152602090f35b5060c0366003190112611908576044356001600160401b038111611908576112f6903690600401611d88565b9190606435916001600160601b038316830361190857608435926001600160401b03841684036119085760a435936001600160a01b0385168503611908576004355f52600260205260405f20805415611aca5760ff6009820154166007811015611ab657600203611a7d5760038101546001600160a01b03163303611a45576113826024351515611dde565b61138d871515611e1a565b6113a16001600160601b0384161515611e57565b6001600160601b0383163403611a00576008906113c8426001600160401b03851611611e91565b015460c01c6001600160401b038216116119bb57600654604051635546426d60e11b81523360048201523060248201526001600160601b03841660448201526001600160a01b03909116905f81606481855afa9081156118fd575f905f92611934575b501561190c5750803b15611908575f809160446040518094819363e907a34560e01b83523360048401526001600160601b03891660248401525af180156118fd576118e8575b506114c683549461148186611ef8565b85556040519761149089611c73565b86895260043560208a01523360408a0152606089018690526001600160a01b03881660808a015260243560a08a01523691611f1a565b60c08701526020956040516114db8882611ca3565b84815260e08201526001600160601b03831661010082015261012081018490526001600160401b038281166101408301526001610160830181905261018083018190528686526002808a5260408088208551815560208601519381019390935584015190820180546001600160a01b039283166001600160a01b0319918216179091556060850151600384018054918416918316919091179055608085015160048401805491909316911617905560a0830151600582015560c083015180519192821161186c576115bc826115b36006860154611c3b565b60068601611f50565b8990601f8311600114611880576115e992918891836109c55750508160011b915f199060031b1c19161790565b60068201555b60e08201518051906001600160401b03821161186c5761161f826116166007860154611c3b565b60078601611f50565b8990601f831160011461180157918061165092600995948a926109c55750508160011b915f199060031b1c19161790565b60078201555b61010083015161012084015161014085015160c01b6001600160c01b0319166001600160601b0390921660609190911b600160601b600160c01b031617176008820155610160830151910191906007811015610e3457906116ba6101809284611fae565b0151815461ff00191690151560081b61ff00161790556004358352600386526040832080549068010000000000000000821015610d7a579061170191600182018155611db5565b81545f1960039290921b91821b19169086901b1790556005546001600160a01b0316803b156102b957836024916040519283809263250055e760e01b825289600483015234905af18015610301579084916117ec575b50506001600160401b03906001600160601b036040519360243585521687840152166040820152600160608201523390837f1ee49ee641b21459160c4aa6648e943b5f32a7b884b002a1e966adb923c2cde9608060043593a4604051926001600160a01b0316906004359083907f6fc30205381a69574aae0e83130e3392f6fe02fed036d118d262f7a66c743bfa9080a48152f35b816117f691611ca3565b61029557825f611757565b6007840188528a88209190601f198416895b8d82821061185657505091600193918560099796941061183e575b505050811b016007820155611656565b01515f1960f88460031b161c191690555f808061182e565b6001859682939686015181550195019301611813565b634e487b7160e01b87526041600452602487fd5b6006840188528a88209190601f198416895b8d8282106118d25750509084600195949392106118ba575b505050811b0160068201556115ef565b01515f1960f88460031b161c191690555f80806118aa565b6001859682939686015181550195019301611892565b6118f59193505f90611ca3565b5f915f611471565b6040513d5f823e3d90fd5b5f80fd5b60405162461bcd60e51b815260206004820152908190611930906024830190611d64565b0390fd5b9150503d805f833e6119468183611ca3565b8101906040818303126119085761195c81611ed0565b906020810151906001600160401b038211611908570182601f820112156119085780519061198982611edd565b936119976040519586611ca3565b8285526020838301011161190857815f9260208093018387015e840101525f61142b565b60405162461bcd60e51b815260206004820152601e60248201527f7375627461736b206265796f6e6420706172656e7420646561646c696e6500006044820152606490fd5b60405162461bcd60e51b815260206004820152601960248201527f696e636f7272656374207375627461736b2066756e64696e67000000000000006044820152606490fd5b60405162461bcd60e51b815260206004820152601060248201526f1b9bdd081c185c995b9d081859d95b9d60821b6044820152606490fd5b60405162461bcd60e51b8152602060048201526011602482015270706172656e74206e6f742061637469766560781b6044820152606490fd5b634e487b7160e01b5f52602160045260245ffd5b60405162461bcd60e51b815260206004820152601060248201526f1c185c995b9d081b9bdd08199bdd5b9960821b6044820152606490fd5b34611908576020366003190112611908576004355f52600260205260405f2080549060018101549060018060a01b0360028201541691611bc760018060a01b03600384015416611bb960018060a01b036004860154166005860154611b6960068801611cc4565b91611b7660078901611cc4565b94600960088a01549901549960ff8b16986040519c8d5260208d015260408c015260608b015260808a015260a08901526101a060c08901526101a0880190611d64565b9086820360e0880152611d64565b916001600160601b0381166101008601526001600160601b038160601c1661012086015260c01c6101408501526007811015611ab657839260ff9161016085015260081c1615156101808301520390f35b34611908575f366003190112611908576006546001600160a01b03168152602090f35b90600182811c92168015611c69575b6020831014611c5557565b634e487b7160e01b5f52602260045260245ffd5b91607f1691611c4a565b6101a081019081106001600160401b03821117611c8f57604052565b634e487b7160e01b5f52604160045260245ffd5b90601f801991011681019081106001600160401b03821117611c8f57604052565b9060405191825f825492611cd784611c3b565b8084529360018116908115611d425750600114611cfe575b50611cfc92500383611ca3565b565b90505f9291925260205f20905f915b818310611d26575050906020611cfc928201015f611cef565b6020919350806001915483858901015201910190918492611d0d565b905060209250611cfc94915060ff191682840152151560051b8201015f611cef565b805180835260209291819084018484015e5f828201840152601f01601f1916010190565b9181601f84011215611908578235916001600160401b038311611908576020838186019501011161190857565b8054821015611dca575f5260205f2001905f90565b634e487b7160e01b5f52603260045260245ffd5b15611de557565b60405162461bcd60e51b815260206004820152600d60248201526c7a65726f2063617465676f727960981b6044820152606490fd5b15611e2157565b60405162461bcd60e51b815260206004820152600e60248201526d656d70747920737065632055524960901b6044820152606490fd5b15611e5e57565b60405162461bcd60e51b815260206004820152600b60248201526a1e995c9bc81c995dd85c9960aa1b6044820152606490fd5b15611e9857565b60405162461bcd60e51b815260206004820152601060248201526f696e76616c696420646561646c696e6560801b6044820152606490fd5b5190811515820361190857565b6001600160401b038111611c8f57601f01601f191660200190565b5f198114611f065760010190565b634e487b7160e01b5f52601160045260245ffd5b929192611f2682611edd565b91611f346040519384611ca3565b829481845281830111611908578281602093845f960137010152565b919091601f8311611f61575b505050565b818311611f6d57505050565b5f5260205f206020601f830160051c9210611fa6575b81601f9101920160051c03905f5b82811015611f5c575f82820155600101611f91565b5f9150611f83565b906007811015611ab65760ff80198354169116179055565b15611fcd57565b60405162461bcd60e51b815260206004820152600d60248201526c1a9bd8881b9bdd08199bdd5b99609a1b6044820152606490fd5b1561200957565b60405162461bcd60e51b815260206004820152600b60248201526a1a9bd888195e1c1a5c995960aa1b6044820152606490fd5b1561204357565b60405162461bcd60e51b815260206004820152600c60248201526b3737ba103932b9b7b63b32b960a11b6044820152606490fd5b5f52600260205260405f2060ff600982015460081c16156120b857600101545f908152600260205260409020600301546001600160a01b0391821691161490565b600201546001600160a01b039182169116149056fea26469706673582212209a38ab0e27e741b71379e9b6f71d2f969b4c2608bdc7e9c1cf1764527d827c2764736f6c6343000821003300000000000000000000000082b769500e34362a76df81150e12c746093d954f0000000000000000000000007ef8e99980da5bcedcf7c10f41e55f759f6a174b00000000000000000000000077c7e3905c21177be97956c6620567596492c497000000000000000000000000976ea74026e726554db657fa54763abd0c3a0aa9",
        "nonce": "0x3",
        "chainId": "0x7a69"
      },
      "additionalContracts": [],
      "isFixedGasLimit": false
    },
    {
      "hash": "0x309b56c8766a006cca3bb70dd8aaa549ffdd10df19cb07bfb17540e65766036b",
      "transactionType": "CALL",
      "contractName": "EscrowBond",
      "contractAddress": "0x7ef8e99980da5bcedcf7c10f41e55f759f6a174b",
      "function": "setMarketplace(address)",
      "arguments": [
        "0x66Db6d191cd163F56197b767928A507dF8b47AA7"
      ],
      "transaction": {
        "from": "0x976ea74026e726554db657fa54763abd0c3a0aa9",
        "to": "0x7ef8e99980da5bcedcf7c10f41e55f759f6a174b",
        "gas": "0xf845",
        "value": "0x0",
        "input": "0x73ad6c2d00000000000000000000000066db6d191cd163f56197b767928a507df8b47aa7",
        "nonce": "0x4",
        "chainId": "0x7a69"
      },
      "additionalContracts": [],
      "isFixedGasLimit": false
    },
    {
      "hash": "0xbb7f4515e3ae54088afd9ef29b57c040ea2d3704e57a2533ec0ae3d493609e91",
      "transactionType": "CALL",
      "contractName": "AgentDirectory",
      "contractAddress": "0x82b769500e34362a76df81150e12c746093d954f",
      "function": "setMarketplace(address)",
      "arguments": [
        "0x66Db6d191cd163F56197b767928A507dF8b47AA7"
      ],
      "transaction": {
        "from": "0x976ea74026e726554db657fa54763abd0c3a0aa9",
        "to": "0x82b769500e34362a76df81150e12c746093d954f",
        "gas": "0xf899",
        "value": "0x0",
        "input": "0x73ad6c2d00000000000000000000000066db6d191cd163f56197b767928a507df8b47aa7",
        "nonce": "0x5",
        "chainId": "0x7a69"
      },
      "additionalContracts": [],
      "isFixedGasLimit": false
    },
    {
      "hash": "0x58e602793a8230dbe6b4a8f4b0180b624455d50fb9a48683598a1c749f1172c7",
      "transactionType": "CALL",
      "contractName": "SpendingPolicy",
      "contractAddress": "0x77c7e3905c21177be97956c6620567596492c497",
      "function": "setMarketplace(address)",
      "arguments": [
        "0x66Db6d191cd163F56197b767928A507dF8b47AA7"
      ],
      "transaction": {
        "from": "0x976ea74026e726554db657fa54763abd0c3a0aa9",
        "to": "0x77c7e3905c21177be97956c6620567596492c497",
        "gas": "0xf85d",
        "value": "0x0",
        "input": "0x73ad6c2d00000000000000000000000066db6d191cd163f56197b767928a507df8b47aa7",
        "nonce": "0x6",
        "chainId": "0x7a69"
      },
      "additionalContracts": [],
      "isFixedGasLimit": false
    },
    {
      "hash": "0x40609f9ed0be373eab302eeaa3b76001af0f04b028cc5d893789f719f1f1b982",
      "transactionType": "CALL",
      "contractName": "SpendingPolicy",
      "contractAddress": "0x77c7e3905c21177be97956c6620567596492c497",
      "function": "setPolicy(address,uint96,uint96,uint64,uint64)",
      "arguments": [
        "0x70997970C51812dc3A010C7d01b50e0d17dc79C8",
        "1000000000000000000",
        "20000000000000000000",
        "1773694008",
        "1773780408"
      ],
      "transaction": {
        "from": "0x70997970c51812dc3a010c7d01b50e0d17dc79c8",
        "to": "0x77c7e3905c21177be97956c6620567596492c497",
        "gas": "0x17e33",
        "value": "0x0",
        "input": "0x5cece49300000000000000000000000070997970c51812dc3a010c7d01b50e0d17dc79c80000000000000000000000000000000000000000000000000de0b6b3a7640000000000000000000000000000000000000000000000000001158e460913d000000000000000000000000000000000000000000000000000000000000069b86c380000000000000000000000000000000000000000000000000000000069b9bdb8",
        "nonce": "0x0",
        "chainId": "0x7a69"
      },
      "additionalContracts": [],
      "isFixedGasLimit": false
    },
    {
      "hash": "0xd762e3ff585ddf807295b719ed14211f0e1907bad3a7e2d5f6569cb0c4c599e0",
      "transactionType": "CALL",
      "contractName": "SpendingPolicy",
      "contractAddress": "0x77c7e3905c21177be97956c6620567596492c497",
      "function": "setApprovedTarget(address,address,bool)",
      "arguments": [
        "0x70997970C51812dc3A010C7d01b50e0d17dc79C8",
        "0x66Db6d191cd163F56197b767928A507dF8b47AA7",
        "true"
      ],
      "transaction": {
        "from": "0x70997970c51812dc3a010c7d01b50e0d17dc79c8",
        "to": "0x77c7e3905c21177be97956c6620567596492c497",
        "gas": "0x11763",
        "value": "0x0",
        "input": "0xa285be3200000000000000000000000070997970c51812dc3a010c7d01b50e0d17dc79c800000000000000000000000066db6d191cd163f56197b767928a507df8b47aa70000000000000000000000000000000000000000000000000000000000000001",
        "nonce": "0x1",
        "chainId": "0x7a69"
      },
      "additionalContracts": [],
      "isFixedGasLimit": false
    },
    {
      "hash": "0xf316679634291ad2319e1423db2c93053ffa3d0fd2dde5ec59d2e8d1f28b7757",
      "transactionType": "CALL",
      "contractName": "AgentDirectory",
      "contractAddress": "0x82b769500e34362a76df81150e12c746093d954f",
      "function": "registerAgent(address,address,bytes32,string,bytes32[],uint96)",
      "arguments": [
        "0x70997970C51812dc3A010C7d01b50e0d17dc79C8",
        "0x70997970C51812dc3A010C7d01b50e0d17dc79C8",
        "0x9c6076002db2b8917552f5a045baae223fbdd23bf47f62b8eaa353e2322b4f9f",
        "ipfs://main-agent-manifest",
        "[0xb635b0ee6e4c15c18d1b36f84d92442e53da477ae300027dd06478d4ee0559db]",
        "0"
      ],
      "transaction": {
        "from": "0x70997970c51812dc3a010c7d01b50e0d17dc79c8",
        "to": "0x82b769500e34362a76df81150e12c746093d954f",
        "gas": "0x5556e",
        "value": "0x0",
        "input": "0xaa724b4400000000000000000000000070997970c51812dc3a010c7d01b50e0d17dc79c800000000000000000000000070997970c51812dc3a010c7d01b50e0d17dc79c89c6076002db2b8917552f5a045baae223fbdd23bf47f62b8eaa353e2322b4f9f00000000000000000000000000000000000000000000000000000000000000c000000000000000000000000000000000000000000000000000000000000001000000000000000000000000000000000000000000000000000000000000000000000000000000000000000000000000000000000000000000000000000000001a697066733a2f2f6d61696e2d6167656e742d6d616e69666573740000000000000000000000000000000000000000000000000000000000000000000000000001b635b0ee6e4c15c18d1b36f84d92442e53da477ae300027dd06478d4ee0559db",
        "nonce": "0x2",
        "chainId": "0x7a69"
      },
      "additionalContracts": [],
      "isFixedGasLimit": false
    },
    {
      "hash": "0x67432c3027ec2a3abf99e34720acaaa810ffc884988329eb9abb58afe9c983d6",
      "transactionType": "CALL",
      "contractName": "AgentDirectory",
      "contractAddress": "0x82b769500e34362a76df81150e12c746093d954f",
      "function": "registerAgent(address,address,bytes32,string,bytes32[],uint96)",
      "arguments": [
        "0x3C44CdDdB6a900fa2b585dd299e03d12FA4293BC",
        "0x3C44CdDdB6a900fa2b585dd299e03d12FA4293BC",
        "0x9a90806e35db6d432c32af78b468706a6f04f6a9b3bab235f9198ce819552397",
        "ipfs://price-agent-manifest",
        "[0x6af8d57439ffc95a5893d7485897e6bc79cda8d8f7ad59da55f23c3028406a38]",
        "0"
      ],
      "transaction": {
        "from": "0x3c44cdddb6a900fa2b585dd299e03d12fa4293bc",
        "to": "0x82b769500e34362a76df81150e12c746093d954f",
        "gas": "0x5a5d2",
        "value": "0x0",
        "input": "0xaa724b440000000000000000000000003c44cdddb6a900fa2b585dd299e03d12fa4293bc0000000000000000000000003c44cdddb6a900fa2b585dd299e03d12fa4293bc9a90806e35db6d432c32af78b468706a6f04f6a9b3bab235f9198ce81955239700000000000000000000000000000000000000000000000000000000000000c000000000000000000000000000000000000000000000000000000000000001000000000000000000000000000000000000000000000000000000000000000000000000000000000000000000000000000000000000000000000000000000001b697066733a2f2f70726963652d6167656e742d6d616e6966657374000000000000000000000000000000000000000000000000000000000000000000000000016af8d57439ffc95a5893d7485897e6bc79cda8d8f7ad59da55f23c3028406a38",
        "nonce": "0x0",
        "chainId": "0x7a69"
      },
      "additionalContracts": [],
      "isFixedGasLimit": false
    },
    {
      "hash": "0x3aa5ddf9c2d5c722320fb195578b56f92f847fc57d8f2288600b7c6e73c8dee6",
      "transactionType": "CALL",
      "contractName": "AgentDirectory",
      "contractAddress": "0x82b769500e34362a76df81150e12c746093d954f",
      "function": "registerAgent(address,address,bytes32,string,bytes32[],uint96)",
      "arguments": [
        "0x90F79bf6EB2c4f870365E785982E1f101E93b906",
        "0x90F79bf6EB2c4f870365E785982E1f101E93b906",
        "0x6a9053d4333f339ecfe08ce3445aa444e18dfbf23132918f71884f3c5a4f54d8",
        "ipfs://volume-agent-manifest",
        "[0x6a5a6bbc61eee87da7722fbf47558e3abfb4f2f0de82cb61196beacea7683270]",
        "0"
      ],
      "transaction": {
        "from": "0x90f79bf6eb2c4f870365e785982e1f101e93b906",
        "to": "0x82b769500e34362a76df81150e12c746093d954f",
        "gas": "0x555b0",
        "value": "0x0",
        "input": "0xaa724b4400000000000000000000000090f79bf6eb2c4f870365e785982e1f101e93b90600000000000000000000000090f79bf6eb2c4f870365e785982e1f101e93b9066a9053d4333f339ecfe08ce3445aa444e18dfbf23132918f71884f3c5a4f54d800000000000000000000000000000000000000000000000000000000000000c000000000000000000000000000000000000000000000000000000000000001000000000000000000000000000000000000000000000000000000000000000000000000000000000000000000000000000000000000000000000000000000001c697066733a2f2f766f6c756d652d6167656e742d6d616e69666573740000000000000000000000000000000000000000000000000000000000000000000000016a5a6bbc61eee87da7722fbf47558e3abfb4f2f0de82cb61196beacea7683270",
        "nonce": "0x0",
        "chainId": "0x7a69"
      },
      "additionalContracts": [],
      "isFixedGasLimit": false
    },
    {
      "hash": "0x6cabb8ff210503212f4f54ca3db4e35dfcde4c72f39fdd0849695db52af6e43f",
      "transactionType": "CALL",
      "contractName": "AgentDirectory",
      "contractAddress": "0x82b769500e34362a76df81150e12c746093d954f",
      "function": "registerAgent(address,address,bytes32,string,bytes32[],uint96)",
      "arguments": [
        "0x15d34AAf54267DB7D7c367839AAf71A00a2C6A65",
        "0x15d34AAf54267DB7D7c367839AAf71A00a2C6A65",
        "0xfa1228dee14be75c442791891428ec91d0cda9931396c8fd4d30b7bd697d8531",
        "ipfs://yield-agent-manifest",
        "[0x89a06dff28f52cee41ea301afe84fa01147a3d9eb01357854221a525ccacf0ea]",
        "0"
      ],
      "transaction": {
        "from": "0x15d34aaf54267db7d7c367839aaf71a00a2c6a65",
        "to": "0x82b769500e34362a76df81150e12c746093d954f",
        "gas": "0x5a5f5",
        "value": "0x0",
        "input": "0xaa724b4400000000000000000000000015d34aaf54267db7d7c367839aaf71a00a2c6a6500000000000000000000000015d34aaf54267db7d7c367839aaf71a00a2c6a65fa1228dee14be75c442791891428ec91d0cda9931396c8fd4d30b7bd697d853100000000000000000000000000000000000000000000000000000000000000c000000000000000000000000000000000000000000000000000000000000001000000000000000000000000000000000000000000000000000000000000000000000000000000000000000000000000000000000000000000000000000000001b697066733a2f2f7969656c642d6167656e742d6d616e69666573740000000000000000000000000000000000000000000000000000000000000000000000000189a06dff28f52cee41ea301afe84fa01147a3d9eb01357854221a525ccacf0ea",
        "nonce": "0x0",
        "chainId": "0x7a69"
      },
      "additionalContracts": [],
      "isFixedGasLimit": false
    },
    {
      "hash": "0x4041ce9b9685003cd8d5660aa158dd6e2e071fd816d56b448a13ebfaad9f8453",
      "transactionType": "CALL",
      "contractName": "JobMarketplace",
      "contractAddress": "0x66db6d191cd163f56197b767928a507df8b47aa7",
      "function": "createJob(bytes32,string,uint96,uint64)",
      "arguments": [
        "0xb635b0ee6e4c15c18d1b36f84d92442e53da477ae300027dd06478d4ee0559db",
        "ipfs://eth-market-job",
        "1000000000000000000",
        "1773780408"
      ],
      "transaction": {
        "from": "0xf39fd6e51aad88f6f4ce6ab8827279cfffb92266",
        "to": "0x66db6d191cd163f56197b767928a507df8b47aa7",
        "gas": "0x47eb1",
        "value": "0xde0b6b3a7640000",
        "input": "0xa6d31083b635b0ee6e4c15c18d1b36f84d92442e53da477ae300027dd06478d4ee0559db00000000000000000000000000000000000000000000000000000000000000800000000000000000000000000000000000000000000000000de0b6b3a76400000000000000000000000000000000000000000000000000000000000069b9bdb80000000000000000000000000000000000000000000000000000000000000015697066733a2f2f6574682d6d61726b65742d6a6f620000000000000000000000",
        "nonce": "0x0",
        "chainId": "0x7a69"
      },
      "additionalContracts": [],
      "isFixedGasLimit": false
    },
    {
      "hash": "0xdd68608177da23d15aa94b07211c9a583466a8e13eff67463ee0226cd8ae3000",
      "transactionType": "CALL",
      "contractName": "JobMarketplace",
      "contractAddress": "0x66db6d191cd163f56197b767928a507df8b47aa7",
      "function": "acceptJob(uint256)",
      "arguments": [
        "1"
      ],
      "transaction": {
        "from": "0x70997970c51812dc3a010c7d01b50e0d17dc79c8",
        "to": "0x66db6d191cd163f56197b767928a507df8b47aa7",
        "gas": "0x135fe",
        "value": "0x0",
        "input": "0x63b2f3c90000000000000000000000000000000000000000000000000000000000000001",
        "nonce": "0x3",
        "chainId": "0x7a69"
      },
      "additionalContracts": [],
      "isFixedGasLimit": false
    },
    {
      "hash": "0xf32f7e2b14bee6d887f80d9a21e5bfee3dda5afb4507c9f20af512e88cd55731",
      "transactionType": "CALL",
      "contractName": "JobMarketplace",
      "contractAddress": "0x66db6d191cd163f56197b767928a507df8b47aa7",
      "function": "createSubtask(uint256,bytes32,string,uint96,uint64,address)",
      "arguments": [
        "1",
        "0x6af8d57439ffc95a5893d7485897e6bc79cda8d8f7ad59da55f23c3028406a38",
        "ipfs://price-task",
        "200000000000000000",
        "1773737208",
        "0x3C44CdDdB6a900fa2b585dd299e03d12FA4293BC"
      ],
      "transaction": {
        "from": "0x70997970c51812dc3a010c7d01b50e0d17dc79c8",
        "to": "0x66db6d191cd163f56197b767928a507df8b47aa7",
        "gas": "0x7d28b",
        "value": "0x2c68af0bb140000",
        "input": "0x2e66884f00000000000000000000000000000000000000000000000000000000000000016af8d57439ffc95a5893d7485897e6bc79cda8d8f7ad59da55f23c3028406a3800000000000000000000000000000000000000000000000000000000000000c000000000000000000000000000000000000000000000000002c68af0bb1400000000000000000000000000000000000000000000000000000000000069b914f80000000000000000000000003c44cdddb6a900fa2b585dd299e03d12fa4293bc0000000000000000000000000000000000000000000000000000000000000011697066733a2f2f70726963652d7461736b000000000000000000000000000000",
        "nonce": "0x4",
        "chainId": "0x7a69"
      },
      "additionalContracts": [],
      "isFixedGasLimit": false
    },
    {
      "hash": "0xd5a5b7c51e5c438fc63745c022e22234c5c9d8f9c1bb89f3c3a9ad9d21af7d06",
      "transactionType": "CALL",
      "contractName": "JobMarketplace",
      "contractAddress": "0x66db6d191cd163f56197b767928a507df8b47aa7",
      "function": "createSubtask(uint256,bytes32,string,uint96,uint64,address)",
      "arguments": [
        "1",
        "0x6a5a6bbc61eee87da7722fbf47558e3abfb4f2f0de82cb61196beacea7683270",
        "ipfs://volume-task",
        "200000000000000000",
        "1773737208",
        "0x90F79bf6EB2c4f870365E785982E1f101E93b906"
      ],
      "transaction": {
        "from": "0x70997970c51812dc3a010c7d01b50e0d17dc79c8",
        "to": "0x66db6d191cd163f56197b767928a507df8b47aa7",
        "gas": "0x70f4c",
        "value": "0x2c68af0bb140000",
        "input": "0x2e66884f00000000000000000000000000000000000000000000000000000000000000016a5a6bbc61eee87da7722fbf47558e3abfb4f2f0de82cb61196beacea768327000000000000000000000000000000000000000000000000000000000000000c000000000000000000000000000000000000000000000000002c68af0bb1400000000000000000000000000000000000000000000000000000000000069b914f800000000000000000000000090f79bf6eb2c4f870365e785982e1f101e93b9060000000000000000000000000000000000000000000000000000000000000012697066733a2f2f766f6c756d652d7461736b0000000000000000000000000000",
        "nonce": "0x5",
        "chainId": "0x7a69"
      },
      "additionalContracts": [],
      "isFixedGasLimit": false
    },
    {
      "hash": "0x2ef40cdd1246dca4eabf4b60ecca8d74a07c212505f784546b41474d2ae1b68e",
      "transactionType": "CALL",
      "contractName": "JobMarketplace",
      "contractAddress": "0x66db6d191cd163f56197b767928a507df8b47aa7",
      "function": "createSubtask(uint256,bytes32,string,uint96,uint64,address)",
      "arguments": [
        "1",
        "0x89a06dff28f52cee41ea301afe84fa01147a3d9eb01357854221a525ccacf0ea",
        "ipfs://yield-task",
        "200000000000000000",
        "1773737208",
        "0x15d34AAf54267DB7D7c367839AAf71A00a2C6A65"
      ],
      "transaction": {
        "from": "0x70997970c51812dc3a010c7d01b50e0d17dc79c8",
        "to": "0x66db6d191cd163f56197b767928a507df8b47aa7",
        "gas": "0x6aad4",
        "value": "0x2c68af0bb140000",
        "input": "0x2e66884f000000000000000000000000000000000000000000000000000000000000000189a06dff28f52cee41ea301afe84fa01147a3d9eb01357854221a525ccacf0ea00000000000000000000000000000000000000000000000000000000000000c000000000000000000000000000000000000000000000000002c68af0bb1400000000000000000000000000000000000000000000000000000000000069b914f800000000000000000000000015d34aaf54267db7d7c367839aaf71a00a2c6a650000000000000000000000000000000000000000000000000000000000000011697066733a2f2f7969656c642d7461736b000000000000000000000000000000",
        "nonce": "0x6",
        "chainId": "0x7a69"
      },
      "additionalContracts": [],
      "isFixedGasLimit": false
    },
    {
      "hash": "0xa69d1e2f6062b58c58ffbf03c50589c7e4d7fa7bb08e4e48c23530105cbb8129",
      "transactionType": "CALL",
      "contractName": "JobMarketplace",
      "contractAddress": "0x66db6d191cd163f56197b767928a507df8b47aa7",
      "function": "acceptJob(uint256)",
      "arguments": [
        "2"
      ],
      "transaction": {
        "from": "0x3c44cdddb6a900fa2b585dd299e03d12fa4293bc",
        "to": "0x66db6d191cd163f56197b767928a507df8b47aa7",
        "gas": "0x2de48",
        "value": "0xd529ae9e860000",
        "input": "0x63b2f3c90000000000000000000000000000000000000000000000000000000000000002",
        "nonce": "0x1",
        "chainId": "0x7a69"
      },
      "additionalContracts": [],
      "isFixedGasLimit": false
    },
    {
      "hash": "0x0c6a82fa7e3a6c54b32e2852c2c8145e23f5bb7a1953b90df1bda6fb4944a734",
      "transactionType": "CALL",
      "contractName": "JobMarketplace",
      "contractAddress": "0x66db6d191cd163f56197b767928a507df8b47aa7",
      "function": "acceptJob(uint256)",
      "arguments": [
        "3"
      ],
      "transaction": {
        "from": "0x90f79bf6eb2c4f870365e785982e1f101e93b906",
        "to": "0x66db6d191cd163f56197b767928a507df8b47aa7",
        "gas": "0x2de48",
        "value": "0xd529ae9e860000",
        "input": "0x63b2f3c90000000000000000000000000000000000000000000000000000000000000003",
        "nonce": "0x1",
        "chainId": "0x7a69"
      },
      "additionalContracts": [],
      "isFixedGasLimit": false
    },
    {
      "hash": "0xed29f8072ad0566cc683bb455eb99ed10e347354a0d10c06b018a9711eaab608",
      "transactionType": "CALL",
      "contractName": "JobMarketplace",
      "contractAddress": "0x66db6d191cd163f56197b767928a507df8b47aa7",
      "function": "acceptJob(uint256)",
      "arguments": [
        "4"
      ],
      "transaction": {
        "from": "0x15d34aaf54267db7d7c367839aaf71a00a2c6a65",
        "to": "0x66db6d191cd163f56197b767928a507df8b47aa7",
        "gas": "0x2de48",
        "value": "0xd529ae9e860000",
        "input": "0x63b2f3c90000000000000000000000000000000000000000000000000000000000000004",
        "nonce": "0x1",
        "chainId": "0x7a69"
      },
      "additionalContracts": [],
      "isFixedGasLimit": false
    },
    {
      "hash": "0xa5382246e65505ee7ebf2d4936fb7f4b70fb79d00d3c6fa92e97619e8e3c2fd1",
      "transactionType": "CALL",
      "contractName": "JobMarketplace",
      "contractAddress": "0x66db6d191cd163f56197b767928a507df8b47aa7",
      "function": "submitResult(uint256,string)",
      "arguments": [
        "2",
        "ipfs://price-result"
      ],
      "transaction": {
        "from": "0x3c44cdddb6a900fa2b585dd299e03d12fa4293bc",
        "to": "0x66db6d191cd163f56197b767928a507df8b47aa7",
        "gas": "0x13e04",
        "value": "0x0",
        "input": "0x8c0dd79a000000000000000000000000000000000000000000000000000000000000000200000000000000000000000000000000000000000000000000000000000000400000000000000000000000000000000000000000000000000000000000000013697066733a2f2f70726963652d726573756c7400000000000000000000000000",
        "nonce": "0x2",
        "chainId": "0x7a69"
      },
      "additionalContracts": [],
      "isFixedGasLimit": false
    },
    {
      "hash": "0xe5a5562513542ea3605a2610092ab512ee2b70b39b9ee2958d1a7b84e32bed16",
      "transactionType": "CALL",
      "contractName": "JobMarketplace",
      "contractAddress": "0x66db6d191cd163f56197b767928a507df8b47aa7",
      "function": "submitResult(uint256,string)",
      "arguments": [
        "3",
        "ipfs://volume-result"
      ],
      "transaction": {
        "from": "0x90f79bf6eb2c4f870365e785982e1f101e93b906",
        "to": "0x66db6d191cd163f56197b767928a507df8b47aa7",
        "gas": "0x150cb",
        "value": "0x0",
        "input": "0x8c0dd79a000000000000000000000000000000000000000000000000000000000000000300000000000000000000000000000000000000000000000000000000000000400000000000000000000000000000000000000000000000000000000000000014697066733a2f2f766f6c756d652d726573756c74000000000000000000000000",
        "nonce": "0x2",
        "chainId": "0x7a69"
      },
      "additionalContracts": [],
      "isFixedGasLimit": false
    },
    {
      "hash": "0x1eb853df92d27fe85539cdc07791be0685c1a024f59aad385e8a3087bc98d33d",
      "transactionType": "CALL",
      "contractName": "JobMarketplace",
      "contractAddress": "0x66db6d191cd163f56197b767928a507df8b47aa7",
      "function": "submitResult(uint256,string)",
      "arguments": [
        "4",
        "ipfs://yield-result"
      ],
      "transaction": {
        "from": "0x15d34aaf54267db7d7c367839aaf71a00a2c6a65",
        "to": "0x66db6d191cd163f56197b767928a507df8b47aa7",
        "gas": "0x13e04",
        "value": "0x0",
        "input": "0x8c0dd79a000000000000000000000000000000000000000000000000000000000000000400000000000000000000000000000000000000000000000000000000000000400000000000000000000000000000000000000000000000000000000000000013697066733a2f2f7969656c642d726573756c7400000000000000000000000000",
        "nonce": "0x2",
        "chainId": "0x7a69"
      },
      "additionalContracts": [],
      "isFixedGasLimit": false
    },
    {
      "hash": "0x5834e8731ba0df680ba9726526fcdef34d075e55a657bcefd8017353dff9f2cd",
      "transactionType": "CALL",
      "contractName": "JobMarketplace",
      "contractAddress": "0x66db6d191cd163f56197b767928a507df8b47aa7",
      "function": "markCompleted(uint256)",
      "arguments": [
        "2"
      ],
      "transaction": {
        "from": "0x70997970c51812dc3a010c7d01b50e0d17dc79c8",
        "to": "0x66db6d191cd163f56197b767928a507df8b47aa7",
        "gas": "0x26f9b",
        "value": "0x0",
        "input": "0xcac5c5120000000000000000000000000000000000000000000000000000000000000002",
        "nonce": "0x7",
        "chainId": "0x7a69"
      },
      "additionalContracts": [],
      "isFixedGasLimit": false
    },
    {
      "hash": "0x1f764302b393985737b5b5968693811f2110361e16fc807d41379b4e2c74a69a",
      "transactionType": "CALL",
      "contractName": "JobMarketplace",
      "contractAddress": "0x66db6d191cd163f56197b767928a507df8b47aa7",
      "function": "markCompleted(uint256)",
      "arguments": [
        "3"
      ],
      "transaction": {
        "from": "0x70997970c51812dc3a010c7d01b50e0d17dc79c8",
        "to": "0x66db6d191cd163f56197b767928a507df8b47aa7",
        "gas": "0x26f9b",
        "value": "0x0",
        "input": "0xcac5c5120000000000000000000000000000000000000000000000000000000000000003",
        "nonce": "0x8",
        "chainId": "0x7a69"
      },
      "additionalContracts": [],
      "isFixedGasLimit": false
    },
    {
      "hash": "0xf4f95549bfd973f984c9093980b023b2683128323e8ad4429db4af84b2af3645",
      "transactionType": "CALL",
      "contractName": "JobMarketplace",
      "contractAddress": "0x66db6d191cd163f56197b767928a507df8b47aa7",
      "function": "markCompleted(uint256)",
      "arguments": [
        "4"
      ],
      "transaction": {
        "from": "0x70997970c51812dc3a010c7d01b50e0d17dc79c8",
        "to": "0x66db6d191cd163f56197b767928a507df8b47aa7",
        "gas": "0x26f9b",
        "value": "0x0",
        "input": "0xcac5c5120000000000000000000000000000000000000000000000000000000000000004",
        "nonce": "0x9",
        "chainId": "0x7a69"
      },
      "additionalContracts": [],
      "isFixedGasLimit": false
    },
    {
      "hash": "0xf861703605b6abcf6a19bf159e92c5408d855c20fa570036d3f867ae00dfc29d",
      "transactionType": "CALL",
      "contractName": "JobMarketplace",
      "contractAddress": "0x66db6d191cd163f56197b767928a507df8b47aa7",
      "function": "submitResult(uint256,string)",
      "arguments": [
        "1",
        "ipfs://final-report"
      ],
      "transaction": {
        "from": "0x70997970c51812dc3a010c7d01b50e0d17dc79c8",
        "to": "0x66db6d191cd163f56197b767928a507df8b47aa7",
        "gas": "0x13e04",
        "value": "0x0",
        "input": "0x8c0dd79a000000000000000000000000000000000000000000000000000000000000000100000000000000000000000000000000000000000000000000000000000000400000000000000000000000000000000000000000000000000000000000000013697066733a2f2f66696e616c2d7265706f727400000000000000000000000000",
        "nonce": "0xa",
        "chainId": "0x7a69"
      },
      "additionalContracts": [],
      "isFixedGasLimit": false
    },
    {
      "hash": "0x30a8a63a2531f2c26a6d66997dbaa09d437b5de64fb940c7cd63e7def4e1166a",
      "transactionType": "CALL",
      "contractName": "JobMarketplace",
      "contractAddress": "0x66db6d191cd163f56197b767928a507df8b47aa7",
      "function": "markCompleted(uint256)",
      "arguments": [
        "1"
      ],
      "transaction": {
        "from": "0xf39fd6e51aad88f6f4ce6ab8827279cfffb92266",
        "to": "0x66db6d191cd163f56197b767928a507df8b47aa7",
        "gas": "0x13f71",
        "value": "0x0",
        "input": "0xcac5c5120000000000000000000000000000000000000000000000000000000000000001",
        "nonce": "0x1",
        "chainId": "0x7a69"
      },
      "additionalContracts": [],
      "isFixedGasLimit": false
    }
  ],
  "receipts": [
    {
      "status": "0x1",
      "cumulativeGasUsed": "0xb9547",
      "logs": [],
      "logsBloom": "0x00000000000000000000000000000000000000000000000000000000000000000000000000000000000000000000000000000000000000000000000000000000000000000000000000000000000000000000000000000000000000000000000000000000000000000000000000000000000000000000000000000000000000000000000000000000000000000000000000000000000000000000000000000000000000000000000000000000000000000000000000000000000000000000000000000000000000000000000000000000000000000000000000000000000000000000000000000000000000000000000000000000000000000000000000000000",
      "type": "0x2",
      "transactionHash": "0x1e34d15fa14a54cd8523bbab69bfe2e8e5910c057803c7b199d13c356cb0e6ea",
      "transactionIndex": "0x0",
      "blockHash": "0xd10d08d0a509eb7028deb6f5169c3924a4a3ee75b0919a980586c44b947f93ac",
      "blockNumber": "0x1",
      "gasUsed": "0xb9547",
      "effectiveGasPrice": "0x3b9aca01",
      "blobGasPrice": "0x1",
      "from": "0x976ea74026e726554db657fa54763abd0c3a0aa9",
      "to": null,
      "contractAddress": "0x7ef8e99980da5bcedcf7c10f41e55f759f6a174b"
    },
    {
      "status": "0x1",
      "cumulativeGasUsed": "0x12132e",
      "logs": [],
      "logsBloom": "0x00000000000000000000000000000000000000000000000000000000000000000000000000000000000000000000000000000000000000000000000000000000000000000000000000000000000000000000000000000000000000000000000000000000000000000000000000000000000000000000000000000000000000000000000000000000000000000000000000000000000000000000000000000000000000000000000000000000000000000000000000000000000000000000000000000000000000000000000000000000000000000000000000000000000000000000000000000000000000000000000000000000000000000000000000000000",
      "type": "0x2",
      "transactionHash": "0xe2c370ca6ef9c9e3abbe338a4586a9c542388210e2daf8bbeb0e72eaf41bfd3f",
      "transactionIndex": "0x0",
      "blockHash": "0x63b8e7726ebc5d742a862502117072a8f2bef1b9dcd1b400dd30b04e73ac8c34",
      "blockNumber": "0x2",
      "gasUsed": "0x12132e",
      "effectiveGasPrice": "0x3487f766",
      "blobGasPrice": "0x1",
      "from": "0x976ea74026e726554db657fa54763abd0c3a0aa9",
      "to": null,
      "contractAddress": "0x82b769500e34362a76df81150e12c746093d954f"
    },
    {
      "status": "0x1",
      "cumulativeGasUsed": "0xc307c",
      "logs": [],
      "logsBloom": "0x00000000000000000000000000000000000000000000000000000000000000000000000000000000000000000000000000000000000000000000000000000000000000000000000000000000000000000000000000000000000000000000000000000000000000000000000000000000000000000000000000000000000000000000000000000000000000000000000000000000000000000000000000000000000000000000000000000000000000000000000000000000000000000000000000000000000000000000000000000000000000000000000000000000000000000000000000000000000000000000000000000000000000000000000000000000",
      "type": "0x2",
      "transactionHash": "0x9cfd549f08671aa950bc04f2c5d70421a812247212fdf3bc1c5d2d52de50cb50",
      "transactionIndex": "0x0",
      "blockHash": "0x20b890127f3f95abbaad7a4a7fe99a5874623155f4544b73fa867bd425eec2cf",
      "blockNumber": "0x3",
      "gasUsed": "0xc307c",
      "effectiveGasPrice": "0x2e7bb841",
      "blobGasPrice": "0x1",
      "from": "0x976ea74026e726554db657fa54763abd0c3a0aa9",
      "to": null,
      "contractAddress": "0x77c7e3905c21177be97956c6620567596492c497"
    },
    {
      "status": "0x1",
      "cumulativeGasUsed": "0x1e88f5",
      "logs": [],
      "logsBloom": "0x00000000000000000000000000000000000000000000000000000000000000000000000000000000000000000000000000000000000000000000000000000000000000000000000000000000000000000000000000000000000000000000000000000000000000000000000000000000000000000000000000000000000000000000000000000000000000000000000000000000000000000000000000000000000000000000000000000000000000000000000000000000000000000000000000000000000000000000000000000000000000000000000000000000000000000000000000000000000000000000000000000000000000000000000000000000",
      "type": "0x2",
      "transactionHash": "0x3d0d3707014d5938dc428cb45679d730a0ac1cb64e14b75620f3668fcf9b9092",
      "transactionIndex": "0x0",
      "blockHash": "0xa4a5a617efc49ce5f6433cd522056e1aed31a0ae3b3dfaaf6532b9b0f5d9b5f6",
      "blockNumber": "0x4",
      "gasUsed": "0x1e88f5",
      "effectiveGasPrice": "0x28fb78bc",
      "blobGasPrice": "0x1",
      "from": "0x976ea74026e726554db657fa54763abd0c3a0aa9",
      "to": null,
      "contractAddress": "0x66db6d191cd163f56197b767928a507df8b47aa7"
    },
    {
      "status": "0x1",
      "cumulativeGasUsed": "0xb3bf",
      "logs": [],
      "logsBloom": "0x00000000000000000000000000000000000000000000000000000000000000000000000000000000000000000000000000000000000000000000000000000000000000000000000000000000000000000000000000000000000000000000000000000000000000000000000000000000000000000000000000000000000000000000000000000000000000000000000000000000000000000000000000000000000000000000000000000000000000000000000000000000000000000000000000000000000000000000000000000000000000000000000000000000000000000000000000000000000000000000000000000000000000000000000000000000",
      "type": "0x2",
      "transactionHash": "0x309b56c8766a006cca3bb70dd8aaa549ffdd10df19cb07bfb17540e65766036b",
      "transactionIndex": "0x0",
      "blockHash": "0x97bdee2bd9c6689efacd76fe69c4a723f05944d61d5e63c9ffb86d7838af6b07",
      "blockNumber": "0x5",
      "gasUsed": "0xb3bf",
      "effectiveGasPrice": "0x248afecb",
      "blobGasPrice": "0x1",
      "from": "0x976ea74026e726554db657fa54763abd0c3a0aa9",
      "to": "0x7ef8e99980da5bcedcf7c10f41e55f759f6a174b",
      "contractAddress": null
    },
    {
      "status": "0x1",
      "cumulativeGasUsed": "0xb3fc",
      "logs": [],
      "logsBloom": "0x00000000000000000000000000000000000000000000000000000000000000000000000000000000000000000000000000000000000000000000000000000000000000000000000000000000000000000000000000000000000000000000000000000000000000000000000000000000000000000000000000000000000000000000000000000000000000000000000000000000000000000000000000000000000000000000000000000000000000000000000000000000000000000000000000000000000000000000000000000000000000000000000000000000000000000000000000000000000000000000000000000000000000000000000000000000",
      "type": "0x2",
      "transactionHash": "0xbb7f4515e3ae54088afd9ef29b57c040ea2d3704e57a2533ec0ae3d493609e91",
      "transactionIndex": "0x0",
      "blockHash": "0xa366a70d56bc140719bc6eddabc35228e59bf07a72ae28956e85bb55549eefd0",
      "blockNumber": "0x6",
      "gasUsed": "0xb3fc",
      "effectiveGasPrice": "0x1ffd3548",
      "blobGasPrice": "0x1",
      "from": "0x976ea74026e726554db657fa54763abd0c3a0aa9",
      "to": "0x82b769500e34362a76df81150e12c746093d954f",
      "contractAddress": null
    },
    {
      "status": "0x1",
      "cumulativeGasUsed": "0xb3d0",
      "logs": [],
      "logsBloom": "0x00000000000000000000000000000000000000000000000000000000000000000000000000000000000000000000000000000000000000000000000000000000000000000000000000000000000000000000000000000000000000000000000000000000000000000000000000000000000000000000000000000000000000000000000000000000000000000000000000000000000000000000000000000000000000000000000000000000000000000000000000000000000000000000000000000000000000000000000000000000000000000000000000000000000000000000000000000000000000000000000000000000000000000000000000000000",
      "type": "0x2",
      "transactionHash": "0x58e602793a8230dbe6b4a8f4b0180b624455d50fb9a48683598a1c749f1172c7",
      "transactionIndex": "0x0",
      "blockHash": "0x6081556356cd6f97dec809ab9e29b742b4537b1cdb87892753fa45e1cf605243",
      "blockNumber": "0x7",
      "gasUsed": "0xb3d0",
      "effectiveGasPrice": "0x1c00b396",
      "blobGasPrice": "0x1",
      "from": "0x976ea74026e726554db657fa54763abd0c3a0aa9",
      "to": "0x77c7e3905c21177be97956c6620567596492c497",
      "contractAddress": null
    },
    {
      "status": "0x1",
      "cumulativeGasUsed": "0x114b5",
      "logs": [
        {
          "address": "0x77c7e3905c21177be97956c6620567596492c497",
          "topics": [
            "0x3d053cf4440e8c79eb14f39dfb689ac34be777c68559f207b5d2abac1d4f1058",
            "0x00000000000000000000000070997970c51812dc3a010c7d01b50e0d17dc79c8",
            "0x00000000000000000000000070997970c51812dc3a010c7d01b50e0d17dc79c8"
          ],
          "data": "0x0000000000000000000000000000000000000000000000000de0b6b3a7640000000000000000000000000000000000000000000000000001158e460913d000000000000000000000000000000000000000000000000000000000000069b86c380000000000000000000000000000000000000000000000000000000069b9bdb8",
          "blockHash": "0x485ea88eb216b7fcf71cfe2cbc841e86667bdc20a4de21efd6e7c1717630fc9e",
          "blockNumber": "0x8",
          "blockTimestamp": "0x69b86c51",
          "transactionHash": "0x40609f9ed0be373eab302eeaa3b76001af0f04b028cc5d893789f719f1f1b982",
          "transactionIndex": "0x0",
          "logIndex": "0x0",
          "removed": false
        }
      ],
      "logsBloom": "0x00000000400000000002000000000000000000100000000000000000000000000000000000000000000000000001000000000000000000000000000000000000000000000000000000100000000000000000000000000000000000000000000000000800000000000000000000000000000000000000000000000000000000000000000000000000000000000000000000000000000000000000000000000000000000000000000000000000000000000000000000000800000000000000000000000000000000000000000000000000000000000000000000000000000000008000000000000000000000000000000001000000000000000000000000000000",
      "type": "0x2",
      "transactionHash": "0x40609f9ed0be373eab302eeaa3b76001af0f04b028cc5d893789f719f1f1b982",
      "transactionIndex": "0x0",
      "blockHash": "0x485ea88eb216b7fcf71cfe2cbc841e86667bdc20a4de21efd6e7c1717630fc9e",
      "blockNumber": "0x8",
      "gasUsed": "0x114b5",
      "effectiveGasPrice": "0x18835d1e",
      "blobGasPrice": "0x1",
      "from": "0x70997970c51812dc3a010c7d01b50e0d17dc79c8",
      "to": "0x77c7e3905c21177be97956c6620567596492c497",
      "contractAddress": null
    },
    {
      "status": "0x1",
      "cumulativeGasUsed": "0xbf09",
      "logs": [
        {
          "address": "0x77c7e3905c21177be97956c6620567596492c497",
          "topics": [
            "0xcac24fc34fb6fc6a8c4d1b197dc1db1ba3d1814c14cdd7e4c07a6264d1da0c71",
            "0x00000000000000000000000070997970c51812dc3a010c7d01b50e0d17dc79c8",
            "0x00000000000000000000000066db6d191cd163f56197b767928a507df8b47aa7"
          ],
          "data": "0x0000000000000000000000000000000000000000000000000000000000000001",
          "blockHash": "0xd33277f5f72a82b7aa04c487ff79e6200b818045f864cce7a53e9d41cb09b39c",
          "blockNumber": "0x9",
          "blockTimestamp": "0x69b86c51",
          "transactionHash": "0xd762e3ff585ddf807295b719ed14211f0e1907bad3a7e2d5f6569cb0c4c599e0",
          "transactionIndex": "0x0",
          "logIndex": "0x0",
          "removed": false
        }
      ],
      "logsBloom": "0x00000000400000000002000000000080000000100040000000000000000000000000000000000000000000000000000000000000000000000000000000000000000000000000000000200000000000000000000000000000000000000000000000000800000000000000000000000000000000000000000000000000000000000000000000000000000000000000000200000000000000000000000000000000000000000000000000000000000000000400000000000800000000000000000000000000000000000000000000000000000000000000000000000000000000008000000000000000000000000000000001000000000000000000000000000000",
      "type": "0x2",
      "transactionHash": "0xd762e3ff585ddf807295b719ed14211f0e1907bad3a7e2d5f6569cb0c4c599e0",
      "transactionIndex": "0x0",
      "blockHash": "0xd33277f5f72a82b7aa04c487ff79e6200b818045f864cce7a53e9d41cb09b39c",
      "blockNumber": "0x9",
      "gasUsed": "0xbf09",
      "effectiveGasPrice": "0x1576a5ce",
      "blobGasPrice": "0x1",
      "from": "0x70997970c51812dc3a010c7d01b50e0d17dc79c8",
      "to": "0x77c7e3905c21177be97956c6620567596492c497",
      "contractAddress": null
    },
    {
      "status": "0x1",
      "cumulativeGasUsed": "0x3dc8d",
      "logs": [
        {
          "address": "0x82b769500e34362a76df81150e12c746093d954f",
          "topics": [
            "0x0ccbece07e9e942dc3afc804e70ce0fa736f9176c6f004ee07f7a57648e9e0a0",
            "0x00000000000000000000000070997970c51812dc3a010c7d01b50e0d17dc79c8",
            "0x00000000000000000000000070997970c51812dc3a010c7d01b50e0d17dc79c8",
            "0x9c6076002db2b8917552f5a045baae223fbdd23bf47f62b8eaa353e2322b4f9f"
          ],
          "data": "0x0000000000000000000000000000000000000000000000000000000000000020000000000000000000000000000000000000000000000000000000000000001a697066733a2f2f6d61696e2d6167656e742d6d616e6966657374000000000000",
          "blockHash": "0x3d5b61514b0fd7ec767841dd1385b7613e12d6c6f3a913ab7d0f4745b73f1ae6",
          "blockNumber": "0xa",
          "blockTimestamp": "0x69b86c51",
          "transactionHash": "0xf316679634291ad2319e1423db2c93053ffa3d0fd2dde5ec59d2e8d1f28b7757",
          "transactionIndex": "0x0",
          "logIndex": "0x0",
          "removed": false
        },
        {
          "address": "0x82b769500e34362a76df81150e12c746093d954f",
          "topics": [
            "0x3ae051ea27c02ca8d0a57aaabe89edb5a424fb26fe51db141e72deec01a11df7",
            "0x00000000000000000000000070997970c51812dc3a010c7d01b50e0d17dc79c8",
            "0xb635b0ee6e4c15c18d1b36f84d92442e53da477ae300027dd06478d4ee0559db"
          ],
          "data": "0x",
          "blockHash": "0x3d5b61514b0fd7ec767841dd1385b7613e12d6c6f3a913ab7d0f4745b73f1ae6",
          "blockNumber": "0xa",
          "blockTimestamp": "0x69b86c51",
          "transactionHash": "0xf316679634291ad2319e1423db2c93053ffa3d0fd2dde5ec59d2e8d1f28b7757",
          "transactionIndex": "0x0",
          "logIndex": "0x1",
          "removed": false
        }
      ],
      "logsBloom": "0x00000000000000000002800000000002000000000000000080000000000000000000000000000000000000000000000000000000000000000000000000000000000000010000000800000040001000000000000000000020000000000000000000000800000000000000000000000000010000000000000000001000000000000000000000000000000000000000000000000000000000000000000000000000004000000000000000000000080000000000000000000000000000000000000000000000000000000000004000000000000000000000000000000000000000000001000000000000000000000000000001000000000000000000000000010000",
      "type": "0x2",
      "transactionHash": "0xf316679634291ad2319e1423db2c93053ffa3d0fd2dde5ec59d2e8d1f28b7757",
      "transactionIndex": "0x0",
      "blockHash": "0x3d5b61514b0fd7ec767841dd1385b7613e12d6c6f3a913ab7d0f4745b73f1ae6",
      "blockNumber": "0xa",
      "gasUsed": "0x3dc8d",
      "effectiveGasPrice": "0x12ca0e57",
      "blobGasPrice": "0x1",
      "from": "0x70997970c51812dc3a010c7d01b50e0d17dc79c8",
      "to": "0x82b769500e34362a76df81150e12c746093d954f",
      "contractAddress": null
    },
    {
      "status": "0x1",
      "cumulativeGasUsed": "0x3dc99",
      "logs": [
        {
          "address": "0x82b769500e34362a76df81150e12c746093d954f",
          "topics": [
            "0x0ccbece07e9e942dc3afc804e70ce0fa736f9176c6f004ee07f7a57648e9e0a0",
            "0x0000000000000000000000003c44cdddb6a900fa2b585dd299e03d12fa4293bc",
            "0x0000000000000000000000003c44cdddb6a900fa2b585dd299e03d12fa4293bc",
            "0x9a90806e35db6d432c32af78b468706a6f04f6a9b3bab235f9198ce819552397"
          ],
          "data": "0x0000000000000000000000000000000000000000000000000000000000000020000000000000000000000000000000000000000000000000000000000000001b697066733a2f2f70726963652d6167656e742d6d616e69666573740000000000",
          "blockHash": "0x1325c0795729cfe01adad73c37f614e2b145df637467da5afef3f981c5acea60",
          "blockNumber": "0xb",
          "blockTimestamp": "0x69b86c51",
          "transactionHash": "0x67432c3027ec2a3abf99e34720acaaa810ffc884988329eb9abb58afe9c983d6",
          "transactionIndex": "0x0",
          "logIndex": "0x0",
          "removed": false
        },
        {
          "address": "0x82b769500e34362a76df81150e12c746093d954f",
          "topics": [
            "0x3ae051ea27c02ca8d0a57aaabe89edb5a424fb26fe51db141e72deec01a11df7",
            "0x0000000000000000000000003c44cdddb6a900fa2b585dd299e03d12fa4293bc",
            "0x6af8d57439ffc95a5893d7485897e6bc79cda8d8f7ad59da55f23c3028406a38"
          ],
          "data": "0x",
          "blockHash": "0x1325c0795729cfe01adad73c37f614e2b145df637467da5afef3f981c5acea60",
          "blockNumber": "0xb",
          "blockTimestamp": "0x69b86c51",
          "transactionHash": "0x67432c3027ec2a3abf99e34720acaaa810ffc884988329eb9abb58afe9c983d6",
          "transactionIndex": "0x0",
          "logIndex": "0x1",
          "removed": false
        }
      ],
      "logsBloom": "0x00000000001000000000900000000002000000000000000080000000000000000000000000000020000000000000000000000000000000000000000000100000000000010000000800000000001000000000000000000020000000000000000000000000000000000000000000000000000800000000000000000208000000000000000000000000000000000000000000000000000000000000000000000000004000000000200000000000000000000000000000000000000000000000000000001000000000000000000000000000000000000000000000000000000000000000000000000000000000000000000000000000000000000000000000010000",
      "type": "0x2",
      "transactionHash": "0x67432c3027ec2a3abf99e34720acaaa810ffc884988329eb9abb58afe9c983d6",
      "transactionIndex": "0x0",
      "blockHash": "0x1325c0795729cfe01adad73c37f614e2b145df637467da5afef3f981c5acea60",
      "blockNumber": "0xb",
      "gasUsed": "0x3dc99",
      "effectiveGasPrice": "0x107af168",
      "blobGasPrice": "0x1",
      "from": "0x3c44cdddb6a900fa2b585dd299e03d12fa4293bc",
      "to": "0x82b769500e34362a76df81150e12c746093d954f",
      "contractAddress": null
    },
    {
      "status": "0x1",
      "cumulativeGasUsed": "0x3dcbd",
      "logs": [
        {
          "address": "0x82b769500e34362a76df81150e12c746093d954f",
          "topics": [
            "0x0ccbece07e9e942dc3afc804e70ce0fa736f9176c6f004ee07f7a57648e9e0a0",
            "0x00000000000000000000000090f79bf6eb2c4f870365e785982e1f101e93b906",
            "0x00000000000000000000000090f79bf6eb2c4f870365e785982e1f101e93b906",
            "0x6a9053d4333f339ecfe08ce3445aa444e18dfbf23132918f71884f3c5a4f54d8"
          ],
          "data": "0x0000000000000000000000000000000000000000000000000000000000000020000000000000000000000000000000000000000000000000000000000000001c697066733a2f2f766f6c756d652d6167656e742d6d616e696665737400000000",
          "blockHash": "0x141bff50dec6c293cd8c0ce720620f1f0edc35679e97d3c67cbbaad61bd2c0ed",
          "blockNumber": "0xc",
          "blockTimestamp": "0x69b86c51",
          "transactionHash": "0x3aa5ddf9c2d5c722320fb195578b56f92f847fc57d8f2288600b7c6e73c8dee6",
          "transactionIndex": "0x0",
          "logIndex": "0x0",
          "removed": false
        },
        {
          "address": "0x82b769500e34362a76df81150e12c746093d954f",
          "topics": [
            "0x3ae051ea27c02ca8d0a57aaabe89edb5a424fb26fe51db141e72deec01a11df7",
            "0x00000000000000000000000090f79bf6eb2c4f870365e785982e1f101e93b906",
            "0x6a5a6bbc61eee87da7722fbf47558e3abfb4f2f0de82cb61196beacea7683270"
          ],
          "data": "0x",
          "blockHash": "0x141bff50dec6c293cd8c0ce720620f1f0edc35679e97d3c67cbbaad61bd2c0ed",
          "blockNumber": "0xc",
          "blockTimestamp": "0x69b86c51",
          "transactionHash": "0x3aa5ddf9c2d5c722320fb195578b56f92f847fc57d8f2288600b7c6e73c8dee6",
          "transactionIndex": "0x0",
          "logIndex": "0x1",
          "removed": false
        }
      ],
      "logsBloom": "0x00000000000000000000800000000002000000000000000080000000000000000000000000000000000000000000000000000000000000008000000000000000000000010000000800000000001000000000000000000020000000000000000000000000000000000000000000000000000000000000000000000000000000000000000000000800002000000000000000000000000000000400000000000000004000000000000000000000000000000000000000000000000000000000000000000000000000000000000200080000400000000000800000000000000000000000000000000000000010000000000000000000000000000000000000010000",
      "type": "0x2",
      "transactionHash": "0x3aa5ddf9c2d5c722320fb195578b56f92f847fc57d8f2288600b7c6e73c8dee6",
      "transactionIndex": "0x0",
      "blockHash": "0x141bff50dec6c293cd8c0ce720620f1f0edc35679e97d3c67cbbaad61bd2c0ed",
      "blockNumber": "0xc",
      "gasUsed": "0x3dcbd",
      "effectiveGasPrice": "0xe747911",
      "blobGasPrice": "0x1",
      "from": "0x90f79bf6eb2c4f870365e785982e1f101e93b906",
      "to": "0x82b769500e34362a76df81150e12c746093d954f",
      "contractAddress": null
    },
    {
      "status": "0x1",
      "cumulativeGasUsed": "0x3dcb1",
      "logs": [
        {
          "address": "0x82b769500e34362a76df81150e12c746093d954f",
          "topics": [
            "0x0ccbece07e9e942dc3afc804e70ce0fa736f9176c6f004ee07f7a57648e9e0a0",
            "0x00000000000000000000000015d34aaf54267db7d7c367839aaf71a00a2c6a65",
            "0x00000000000000000000000015d34aaf54267db7d7c367839aaf71a00a2c6a65",
            "0xfa1228dee14be75c442791891428ec91d0cda9931396c8fd4d30b7bd697d8531"
          ],
          "data": "0x0000000000000000000000000000000000000000000000000000000000000020000000000000000000000000000000000000000000000000000000000000001b697066733a2f2f7969656c642d6167656e742d6d616e69666573740000000000",
          "blockHash": "0x811e7767009bfedf2b7af9b6dd62c09870a220e422e7501d3926689b57bb8e2e",
          "blockNumber": "0xd",
          "blockTimestamp": "0x69b86c51",
          "transactionHash": "0x6cabb8ff210503212f4f54ca3db4e35dfcde4c72f39fdd0849695db52af6e43f",
          "transactionIndex": "0x0",
          "logIndex": "0x0",
          "removed": false
        },
        {
          "address": "0x82b769500e34362a76df81150e12c746093d954f",
          "topics": [
            "0x3ae051ea27c02ca8d0a57aaabe89edb5a424fb26fe51db141e72deec01a11df7",
            "0x00000000000000000000000015d34aaf54267db7d7c367839aaf71a00a2c6a65",
            "0x89a06dff28f52cee41ea301afe84fa01147a3d9eb01357854221a525ccacf0ea"
          ],
          "data": "0x",
          "blockHash": "0x811e7767009bfedf2b7af9b6dd62c09870a220e422e7501d3926689b57bb8e2e",
          "blockNumber": "0xd",
          "blockTimestamp": "0x69b86c51",
          "transactionHash": "0x6cabb8ff210503212f4f54ca3db4e35dfcde4c72f39fdd0849695db52af6e43f",
          "transactionIndex": "0x0",
          "logIndex": "0x1",
          "removed": false
        }
      ],
      "logsBloom": "0x00000000040000000000800001000002000000000000000080800000000000000000000000000000000000000000000000000000000000000000000000000000000000010000000800000800001000000000000000000020000000000000000000008000000000000000000000000000000000000000000000000000000000000000000000000000000000000000000000000000000000000000000100000000004000000000000000000000000000000000000000000000000000000000000000000000000000000000000000000000000000000000000000000000000004000000000010000000010000000000000000000000000000000000000000010000",
      "type": "0x2",
      "transactionHash": "0x6cabb8ff210503212f4f54ca3db4e35dfcde4c72f39fdd0849695db52af6e43f",
      "transactionIndex": "0x0",
      "blockHash": "0x811e7767009bfedf2b7af9b6dd62c09870a220e422e7501d3926689b57bb8e2e",
      "blockNumber": "0xd",
      "gasUsed": "0x3dcb1",
      "effectiveGasPrice": "0xcadb821",
      "blobGasPrice": "0x1",
      "from": "0x15d34aaf54267db7d7c367839aaf71a00a2c6a65",
      "to": "0x82b769500e34362a76df81150e12c746093d954f",
      "contractAddress": null
    },
    {
      "status": "0x1",
      "cumulativeGasUsed": "0x34115",
      "logs": [
        {
          "address": "0x7ef8e99980da5bcedcf7c10f41e55f759f6a174b",
          "topics": [
            "0x3f4da7a519eb172658739769a3d20463f3470478f1c47d9049453128e92bb52e",
            "0x0000000000000000000000000000000000000000000000000000000000000001"
          ],
          "data": "0x0000000000000000000000000000000000000000000000000de0b6b3a7640000",
          "blockHash": "0x7374b3458491ed30b035ffbf8911beea0c4e078d4a332714b95373e95b376387",
          "blockNumber": "0xe",
          "blockTimestamp": "0x69b86c51",
          "transactionHash": "0x4041ce9b9685003cd8d5660aa158dd6e2e071fd816d56b448a13ebfaad9f8453",
          "transactionIndex": "0x0",
          "logIndex": "0x0",
          "removed": false
        },
        {
          "address": "0x66db6d191cd163f56197b767928a507df8b47aa7",
          "topics": [
            "0x1ee49ee641b21459160c4aa6648e943b5f32a7b884b002a1e966adb923c2cde9",
            "0x0000000000000000000000000000000000000000000000000000000000000001",
            "0x0000000000000000000000000000000000000000000000000000000000000000",
            "0x000000000000000000000000f39fd6e51aad88f6f4ce6ab8827279cfffb92266"
          ],
          "data": "0xb635b0ee6e4c15c18d1b36f84d92442e53da477ae300027dd06478d4ee0559db0000000000000000000000000000000000000000000000000de0b6b3a76400000000000000000000000000000000000000000000000000000000000069b9bdb80000000000000000000000000000000000000000000000000000000000000000",
          "blockHash": "0x7374b3458491ed30b035ffbf8911beea0c4e078d4a332714b95373e95b376387",
          "blockNumber": "0xe",
          "blockTimestamp": "0x69b86c51",
          "transactionHash": "0x4041ce9b9685003cd8d5660aa158dd6e2e071fd816d56b448a13ebfaad9f8453",
          "transactionIndex": "0x0",
          "logIndex": "0x1",
          "removed": false
        }
      ],
      "logsBloom": "0x00000000000000000000000000000000000000200000000000000000000000000004000000000000004000000000000000000004000000000000000000040000000000000000000000000000000200000000000000040000000000000000000000000000020000000000000100000800000000020000000000000000000000008000000000000000000000000000000000000000000000000000000000000000000000000000028000000000000000000000000000000000000000000000080000000000000000200000000000000000000000002000000000000000000060000000001000000000000000000000000000000000000000000000000400000000",
      "type": "0x2",
      "transactionHash": "0x4041ce9b9685003cd8d5660aa158dd6e2e071fd816d56b448a13ebfaad9f8453",
      "transactionIndex": "0x0",
      "blockHash": "0x7374b3458491ed30b035ffbf8911beea0c4e078d4a332714b95373e95b376387",
      "blockNumber": "0xe",
      "gasUsed": "0x34115",
      "effectiveGasPrice": "0xb1ed9aa",
      "blobGasPrice": "0x1",
      "from": "0xf39fd6e51aad88f6f4ce6ab8827279cfffb92266",
      "to": "0x66db6d191cd163f56197b767928a507df8b47aa7",
      "contractAddress": null
    },
    {
      "status": "0x1",
      "cumulativeGasUsed": "0xe06f",
      "logs": [
        {
          "address": "0x66db6d191cd163f56197b767928a507df8b47aa7",
          "topics": [
            "0x50adb3307747836538b62a264510cffe42012b516ef36719f803024d5ca0146f",
            "0x0000000000000000000000000000000000000000000000000000000000000001",
            "0x00000000000000000000000070997970c51812dc3a010c7d01b50e0d17dc79c8"
          ],
          "data": "0x0000000000000000000000000000000000000000000000000000000000000000",
          "blockHash": "0x65fc735078a15dc8875ab1a3c9cc110acab685b32d302735800e472df687415a",
          "blockNumber": "0xf",
          "blockTimestamp": "0x69b86c51",
          "transactionHash": "0xdd68608177da23d15aa94b07211c9a583466a8e13eff67463ee0226cd8ae3000",
          "transactionIndex": "0x0",
          "logIndex": "0x0",
          "removed": false
        }
      ],
      "logsBloom": "0x00000000000000000002000000000000000000200020000000000000000000000000000000000000004000000000000000000000000000000000000000040000000000000000000000000000000000000000000000040000000000000000000000000800000000000000000000000000000000020000000000000000000000000000000000000000000000000000000000000000000000000000000000000000000000000000000000000000000000000000000000000000000000000000000000000000000000000000000000000000000000000100000000000000000040000000000000004000000000000000000001000000000000000000000000000000",
      "type": "0x2",
      "transactionHash": "0xdd68608177da23d15aa94b07211c9a583466a8e13eff67463ee0226cd8ae3000",
      "transactionIndex": "0x0",
      "blockHash": "0x65fc735078a15dc8875ab1a3c9cc110acab685b32d302735800e472df687415a",
      "blockNumber": "0xf",
      "gasUsed": "0xe06f",
      "effectiveGasPrice": "0x9c00db3",
      "blobGasPrice": "0x1",
      "from": "0x70997970c51812dc3a010c7d01b50e0d17dc79c8",
      "to": "0x66db6d191cd163f56197b767928a507df8b47aa7",
      "contractAddress": null
    },
    {
      "status": "0x1",
      "cumulativeGasUsed": "0x55943",
      "logs": [
        {
          "address": "0x77c7e3905c21177be97956c6620567596492c497",
          "topics": [
            "0x927ec5b4868990ae234f2771a1b18a4d7437eab64ee1697c648f413c3511fd67",
            "0x00000000000000000000000070997970c51812dc3a010c7d01b50e0d17dc79c8",
            "0x0000000000000000000000000000000000000000000000000000000000005030"
          ],
          "data": "0x00000000000000000000000000000000000000000000000002c68af0bb140000",
          "blockHash": "0x584e64873ce2f4dd474f7de7b8e43edc3d7ad9241243db6d7beb2ddeff4fa3e0",
          "blockNumber": "0x10",
          "blockTimestamp": "0x69b86c51",
          "transactionHash": "0xf32f7e2b14bee6d887f80d9a21e5bfee3dda5afb4507c9f20af512e88cd55731",
          "transactionIndex": "0x0",
          "logIndex": "0x0",
          "removed": false
        },
        {
          "address": "0x7ef8e99980da5bcedcf7c10f41e55f759f6a174b",
          "topics": [
            "0x3f4da7a519eb172658739769a3d20463f3470478f1c47d9049453128e92bb52e",
            "0x0000000000000000000000000000000000000000000000000000000000000002"
          ],
          "data": "0x00000000000000000000000000000000000000000000000002c68af0bb140000",
          "blockHash": "0x584e64873ce2f4dd474f7de7b8e43edc3d7ad9241243db6d7beb2ddeff4fa3e0",
          "blockNumber": "0x10",
          "blockTimestamp": "0x69b86c51",
          "transactionHash": "0xf32f7e2b14bee6d887f80d9a21e5bfee3dda5afb4507c9f20af512e88cd55731",
          "transactionIndex": "0x0",
          "logIndex": "0x1",
          "removed": false
        },
        {
          "address": "0x66db6d191cd163f56197b767928a507df8b47aa7",
          "topics": [
            "0x1ee49ee641b21459160c4aa6648e943b5f32a7b884b002a1e966adb923c2cde9",
            "0x0000000000000000000000000000000000000000000000000000000000000002",
            "0x0000000000000000000000000000000000000000000000000000000000000001",
            "0x00000000000000000000000070997970c51812dc3a010c7d01b50e0d17dc79c8"
          ],
          "data": "0x6af8d57439ffc95a5893d7485897e6bc79cda8d8f7ad59da55f23c3028406a3800000000000000000000000000000000000000000000000002c68af0bb1400000000000000000000000000000000000000000000000000000000000069b914f80000000000000000000000000000000000000000000000000000000000000001",
          "blockHash": "0x584e64873ce2f4dd474f7de7b8e43edc3d7ad9241243db6d7beb2ddeff4fa3e0",
          "blockNumber": "0x10",
          "blockTimestamp": "0x69b86c51",
          "transactionHash": "0xf32f7e2b14bee6d887f80d9a21e5bfee3dda5afb4507c9f20af512e88cd55731",
          "transactionIndex": "0x0",
          "logIndex": "0x2",
          "removed": false
        },
        {
          "address": "0x66db6d191cd163f56197b767928a507df8b47aa7",
          "topics": [
            "0x6fc30205381a69574aae0e83130e3392f6fe02fed036d118d262f7a66c743bfa",
            "0x0000000000000000000000000000000000000000000000000000000000000002",
            "0x0000000000000000000000000000000000000000000000000000000000000001",
            "0x0000000000000000000000003c44cdddb6a900fa2b585dd299e03d12fa4293bc"
          ],
          "data": "0x",
          "blockHash": "0x584e64873ce2f4dd474f7de7b8e43edc3d7ad9241243db6d7beb2ddeff4fa3e0",
          "blockNumber": "0x10",
          "blockTimestamp": "0x69b86c51",
          "transactionHash": "0xf32f7e2b14bee6d887f80d9a21e5bfee3dda5afb4507c9f20af512e88cd55731",
          "transactionIndex": "0x0",
          "logIndex": "0x3",
          "removed": false
        }
      ],
      "logsBloom": "0x04000000400000000002000000000000000020300000000000000000010000000004100000000000004000000000000000000004000000000000000000140000000000000000000000000000800200000000000100040000000000000000000000000800000000000000000000000000000800020000020000000000000000008000000000000000000000000000000000000000000000000000000000000000000000000000228000000100000000000000000000000000000000000000080000000020000000000000000000000000000000000400000000000000000040008000001000000000000000000002000001000000008000000000000400000000",
      "type": "0x2",
      "transactionHash": "0xf32f7e2b14bee6d887f80d9a21e5bfee3dda5afb4507c9f20af512e88cd55731",
      "transactionIndex": "0x0",
      "blockHash": "0x584e64873ce2f4dd474f7de7b8e43edc3d7ad9241243db6d7beb2ddeff4fa3e0",
      "blockNumber": "0x10",
      "gasUsed": "0x55943",
      "effectiveGasPrice": "0x8893def",
      "blobGasPrice": "0x1",
      "from": "0x70997970c51812dc3a010c7d01b50e0d17dc79c8",
      "to": "0x66db6d191cd163f56197b767928a507df8b47aa7",
      "contractAddress": null
    },
    {
      "status": "0x1",
      "cumulativeGasUsed": "0x4d3c3",
      "logs": [
        {
          "address": "0x77c7e3905c21177be97956c6620567596492c497",
          "topics": [
            "0x927ec5b4868990ae234f2771a1b18a4d7437eab64ee1697c648f413c3511fd67",
            "0x00000000000000000000000070997970c51812dc3a010c7d01b50e0d17dc79c8",
            "0x0000000000000000000000000000000000000000000000000000000000005030"
          ],
          "data": "0x00000000000000000000000000000000000000000000000002c68af0bb140000",
          "blockHash": "0x25d7b27a7651d4ba0a894743d3ca5a3ccf9cac44f970da70ae6c005d8ef82777",
          "blockNumber": "0x11",
          "blockTimestamp": "0x69b86c51",
          "transactionHash": "0xd5a5b7c51e5c438fc63745c022e22234c5c9d8f9c1bb89f3c3a9ad9d21af7d06",
          "transactionIndex": "0x0",
          "logIndex": "0x0",
          "removed": false
        },
        {
          "address": "0x7ef8e99980da5bcedcf7c10f41e55f759f6a174b",
          "topics": [
            "0x3f4da7a519eb172658739769a3d20463f3470478f1c47d9049453128e92bb52e",
            "0x0000000000000000000000000000000000000000000000000000000000000003"
          ],
          "data": "0x00000000000000000000000000000000000000000000000002c68af0bb140000",
          "blockHash": "0x25d7b27a7651d4ba0a894743d3ca5a3ccf9cac44f970da70ae6c005d8ef82777",
          "blockNumber": "0x11",
          "blockTimestamp": "0x69b86c51",
          "transactionHash": "0xd5a5b7c51e5c438fc63745c022e22234c5c9d8f9c1bb89f3c3a9ad9d21af7d06",
          "transactionIndex": "0x0",
          "logIndex": "0x1",
          "removed": false
        },
        {
          "address": "0x66db6d191cd163f56197b767928a507df8b47aa7",
          "topics": [
            "0x1ee49ee641b21459160c4aa6648e943b5f32a7b884b002a1e966adb923c2cde9",
            "0x0000000000000000000000000000000000000000000000000000000000000003",
            "0x0000000000000000000000000000000000000000000000000000000000000001",
            "0x00000000000000000000000070997970c51812dc3a010c7d01b50e0d17dc79c8"
          ],
          "data": "0x6a5a6bbc61eee87da7722fbf47558e3abfb4f2f0de82cb61196beacea768327000000000000000000000000000000000000000000000000002c68af0bb1400000000000000000000000000000000000000000000000000000000000069b914f80000000000000000000000000000000000000000000000000000000000000001",
          "blockHash": "0x25d7b27a7651d4ba0a894743d3ca5a3ccf9cac44f970da70ae6c005d8ef82777",
          "blockNumber": "0x11",
          "blockTimestamp": "0x69b86c51",
          "transactionHash": "0xd5a5b7c51e5c438fc63745c022e22234c5c9d8f9c1bb89f3c3a9ad9d21af7d06",
          "transactionIndex": "0x0",
          "logIndex": "0x2",
          "removed": false
        },
        {
          "address": "0x66db6d191cd163f56197b767928a507df8b47aa7",
          "topics": [
            "0x6fc30205381a69574aae0e83130e3392f6fe02fed036d118d262f7a66c743bfa",
            "0x0000000000000000000000000000000000000000000000000000000000000003",
            "0x0000000000000000000000000000000000000000000000000000000000000001",
            "0x00000000000000000000000090f79bf6eb2c4f870365e785982e1f101e93b906"
          ],
          "data": "0x",
          "blockHash": "0x25d7b27a7651d4ba0a894743d3ca5a3ccf9cac44f970da70ae6c005d8ef82777",
          "blockNumber": "0x11",
          "blockTimestamp": "0x69b86c51",
          "transactionHash": "0xd5a5b7c51e5c438fc63745c022e22234c5c9d8f9c1bb89f3c3a9ad9d21af7d06",
          "transactionIndex": "0x0",
          "logIndex": "0x3",
          "removed": false
        }
      ],
      "logsBloom": "0x00000000400000000002000000000000000020300000000000000000010000000004100000000000004000000000000000000004020000000000000000040000000000000000000000000000800200000000000100040000000000000000000000000800000000000000000000000000000000020000020000000000000000008000000000000000000000000000000000000000000000000400000000000000000000000000028000000000000000000000000000800000000000000000480000000020000000000000000000000000400000000400000000000000000040008000001000000000000010000002000001000000000000000000000400000000",
      "type": "0x2",
      "transactionHash": "0xd5a5b7c51e5c438fc63745c022e22234c5c9d8f9c1bb89f3c3a9ad9d21af7d06",
      "transactionIndex": "0x0",
      "blockHash": "0x25d7b27a7651d4ba0a894743d3ca5a3ccf9cac44f970da70ae6c005d8ef82777",
      "blockNumber": "0x11",
      "gasUsed": "0x4d3c3",
      "effectiveGasPrice": "0x77e7851",
      "blobGasPrice": "0x1",
      "from": "0x70997970c51812dc3a010c7d01b50e0d17dc79c8",
      "to": "0x66db6d191cd163f56197b767928a507df8b47aa7",
      "contractAddress": null
    },
    {
      "status": "0x1",
      "cumulativeGasUsed": "0x4d3b7",
      "logs": [
        {
          "address": "0x77c7e3905c21177be97956c6620567596492c497",
          "topics": [
            "0x927ec5b4868990ae234f2771a1b18a4d7437eab64ee1697c648f413c3511fd67",
            "0x00000000000000000000000070997970c51812dc3a010c7d01b50e0d17dc79c8",
            "0x0000000000000000000000000000000000000000000000000000000000005030"
          ],
          "data": "0x00000000000000000000000000000000000000000000000002c68af0bb140000",
          "blockHash": "0x7f6d1929e3884b6eb3442a1e94c5bb6520531bc993e5d433424c177354fc81af",
          "blockNumber": "0x12",
          "blockTimestamp": "0x69b86c51",
          "transactionHash": "0x2ef40cdd1246dca4eabf4b60ecca8d74a07c212505f784546b41474d2ae1b68e",
          "transactionIndex": "0x0",
          "logIndex": "0x0",
          "removed": false
        },
        {
          "address": "0x7ef8e99980da5bcedcf7c10f41e55f759f6a174b",
          "topics": [
            "0x3f4da7a519eb172658739769a3d20463f3470478f1c47d9049453128e92bb52e",
            "0x0000000000000000000000000000000000000000000000000000000000000004"
          ],
          "data": "0x00000000000000000000000000000000000000000000000002c68af0bb140000",
          "blockHash": "0x7f6d1929e3884b6eb3442a1e94c5bb6520531bc993e5d433424c177354fc81af",
          "blockNumber": "0x12",
          "blockTimestamp": "0x69b86c51",
          "transactionHash": "0x2ef40cdd1246dca4eabf4b60ecca8d74a07c212505f784546b41474d2ae1b68e",
          "transactionIndex": "0x0",
          "logIndex": "0x1",
          "removed": false
        },
        {
          "address": "0x66db6d191cd163f56197b767928a507df8b47aa7",
          "topics": [
            "0x1ee49ee641b21459160c4aa6648e943b5f32a7b884b002a1e966adb923c2cde9",
            "0x0000000000000000000000000000000000000000000000000000000000000004",
            "0x0000000000000000000000000000000000000000000000000000000000000001",
            "0x00000000000000000000000070997970c51812dc3a010c7d01b50e0d17dc79c8"
          ],
          "data": "0x89a06dff28f52cee41ea301afe84fa01147a3d9eb01357854221a525ccacf0ea00000000000000000000000000000000000000000000000002c68af0bb1400000000000000000000000000000000000000000000000000000000000069b914f80000000000000000000000000000000000000000000000000000000000000001",
          "blockHash": "0x7f6d1929e3884b6eb3442a1e94c5bb6520531bc993e5d433424c177354fc81af",
          "blockNumber": "0x12",
          "blockTimestamp": "0x69b86c51",
          "transactionHash": "0x2ef40cdd1246dca4eabf4b60ecca8d74a07c212505f784546b41474d2ae1b68e",
          "transactionIndex": "0x0",
          "logIndex": "0x2",
          "removed": false
        },
        {
          "address": "0x66db6d191cd163f56197b767928a507df8b47aa7",
          "topics": [
            "0x6fc30205381a69574aae0e83130e3392f6fe02fed036d118d262f7a66c743bfa",
            "0x0000000000000000000000000000000000000000000000000000000000000004",
            "0x0000000000000000000000000000000000000000000000000000000000000001",
            "0x00000000000000000000000015d34aaf54267db7d7c367839aaf71a00a2c6a65"
          ],
          "data": "0x",
          "blockHash": "0x7f6d1929e3884b6eb3442a1e94c5bb6520531bc993e5d433424c177354fc81af",
          "blockNumber": "0x12",
          "blockTimestamp": "0x69b86c51",
          "transactionHash": "0x2ef40cdd1246dca4eabf4b60ecca8d74a07c212505f784546b41474d2ae1b68e",
          "transactionIndex": "0x0",
          "logIndex": "0x3",
          "removed": false
        }
      ],
      "logsBloom": "0x00000000440000000002000000000000000020300000000000000000010000000004100000000000004000000000000000000004000000000000000000040000000000000000000000000000800200000000000100040000000000000000000008000800000000000000000000000000000000020000020000000000000000008000000000000000000000000000000000000000000000000000000100000000000000000000028000000000000000000000000000000000002000000000080000000020000000000000000000000000000000008400000000000000000044008000001000000000000000000002000001000000000000000000000400000000",
      "type": "0x2",
      "transactionHash": "0x2ef40cdd1246dca4eabf4b60ecca8d74a07c212505f784546b41474d2ae1b68e",
      "transactionIndex": "0x0",
      "blockHash": "0x7f6d1929e3884b6eb3442a1e94c5bb6520531bc993e5d433424c177354fc81af",
      "blockNumber": "0x12",
      "gasUsed": "0x4d3b7",
      "effectiveGasPrice": "0x693b809",
      "blobGasPrice": "0x1",
      "from": "0x70997970c51812dc3a010c7d01b50e0d17dc79c8",
      "to": "0x66db6d191cd163f56197b767928a507df8b47aa7",
      "contractAddress": null
    },
    {
      "status": "0x1",
      "cumulativeGasUsed": "0x2139c",
      "logs": [
        {
          "address": "0x7ef8e99980da5bcedcf7c10f41e55f759f6a174b",
          "topics": [
            "0x5a6275754fa96d5a6d5be7579ff3f86941284ff794b18f113881c2501abdf456",
            "0x0000000000000000000000000000000000000000000000000000000000000002",
            "0x0000000000000000000000003c44cdddb6a900fa2b585dd299e03d12fa4293bc"
          ],
          "data": "0x00000000000000000000000000000000000000000000000000d529ae9e860000",
          "blockHash": "0xbaa7e49e71a9fbf365a816145ae82365b5eee39f8042db30a152b64cf6fc8772",
          "blockNumber": "0x13",
          "blockTimestamp": "0x69b86c51",
          "transactionHash": "0xa69d1e2f6062b58c58ffbf03c50589c7e4d7fa7bb08e4e48c23530105cbb8129",
          "transactionIndex": "0x0",
          "logIndex": "0x0",
          "removed": false
        },
        {
          "address": "0x66db6d191cd163f56197b767928a507df8b47aa7",
          "topics": [
            "0x50adb3307747836538b62a264510cffe42012b516ef36719f803024d5ca0146f",
            "0x0000000000000000000000000000000000000000000000000000000000000002",
            "0x0000000000000000000000003c44cdddb6a900fa2b585dd299e03d12fa4293bc"
          ],
          "data": "0x00000000000000000000000000000000000000000000000000d529ae9e860000",
          "blockHash": "0xbaa7e49e71a9fbf365a816145ae82365b5eee39f8042db30a152b64cf6fc8772",
          "blockNumber": "0x13",
          "blockTimestamp": "0x69b86c51",
          "transactionHash": "0xa69d1e2f6062b58c58ffbf03c50589c7e4d7fa7bb08e4e48c23530105cbb8129",
          "transactionIndex": "0x0",
          "logIndex": "0x1",
          "removed": false
        }
      ],
      "logsBloom": "0x04000000000000000000000000000000000000200020001000000000000000000000000000000000004000000000000000000000000000000000000000100000000000000000000000000000000200000000000000000000000000000000000000000000000000000000000000000000000800020000000000000000000000000000000000000000000000020000000000000000000000000000000002000000000000000000200000000100000000000000000000000000000000000000080000000000000000000000000000000000000000000100000000000000000000000000001000004000000000000000000000000000008000000000000000000000",
      "type": "0x2",
      "transactionHash": "0xa69d1e2f6062b58c58ffbf03c50589c7e4d7fa7bb08e4e48c23530105cbb8129",
      "transactionIndex": "0x0",
      "blockHash": "0xbaa7e49e71a9fbf365a816145ae82365b5eee39f8042db30a152b64cf6fc8772",
      "blockNumber": "0x13",
      "gasUsed": "0x2139c",
      "effectiveGasPrice": "0x5c5b151",
      "blobGasPrice": "0x1",
      "from": "0x3c44cdddb6a900fa2b585dd299e03d12fa4293bc",
      "to": "0x66db6d191cd163f56197b767928a507df8b47aa7",
      "contractAddress": null
    },
    {
      "status": "0x1",
      "cumulativeGasUsed": "0x2139c",
      "logs": [
        {
          "address": "0x7ef8e99980da5bcedcf7c10f41e55f759f6a174b",
          "topics": [
            "0x5a6275754fa96d5a6d5be7579ff3f86941284ff794b18f113881c2501abdf456",
            "0x0000000000000000000000000000000000000000000000000000000000000003",
            "0x00000000000000000000000090f79bf6eb2c4f870365e785982e1f101e93b906"
          ],
          "data": "0x00000000000000000000000000000000000000000000000000d529ae9e860000",
          "blockHash": "0x9efdb373bcd5012d139f9a5c9aca0877d7588dd8cfeadecb11c996486e47fe32",
          "blockNumber": "0x14",
          "blockTimestamp": "0x69b86c51",
          "transactionHash": "0x0c6a82fa7e3a6c54b32e2852c2c8145e23f5bb7a1953b90df1bda6fb4944a734",
          "transactionIndex": "0x0",
          "logIndex": "0x0",
          "removed": false
        },
        {
          "address": "0x66db6d191cd163f56197b767928a507df8b47aa7",
          "topics": [
            "0x50adb3307747836538b62a264510cffe42012b516ef36719f803024d5ca0146f",
            "0x0000000000000000000000000000000000000000000000000000000000000003",
            "0x00000000000000000000000090f79bf6eb2c4f870365e785982e1f101e93b906"
          ],
          "data": "0x00000000000000000000000000000000000000000000000000d529ae9e860000",
          "blockHash": "0x9efdb373bcd5012d139f9a5c9aca0877d7588dd8cfeadecb11c996486e47fe32",
          "blockNumber": "0x14",
          "blockTimestamp": "0x69b86c51",
          "transactionHash": "0x0c6a82fa7e3a6c54b32e2852c2c8145e23f5bb7a1953b90df1bda6fb4944a734",
          "transactionIndex": "0x0",
          "logIndex": "0x1",
          "removed": false
        }
      ],
      "logsBloom": "0x00000000000000000000000000000000000000200020001000000000000000000000000000000000004000000000000000000000020000000000000000000000000000000000000000000000000200000000000000000000000000000000000000000000000000000000000000000000000000020000000000000000000000000000000000000000000000020000000000000000000000000400000002000000000000000000000000000000000000000000000000800000000000000000480000000000000000000000000000000000400000000100000000000000000000000000001000004000000010000000000000000000000000000000000000000000",
      "type": "0x2",
      "transactionHash": "0x0c6a82fa7e3a6c54b32e2852c2c8145e23f5bb7a1953b90df1bda6fb4944a734",
      "transactionIndex": "0x0",
      "blockHash": "0x9efdb373bcd5012d139f9a5c9aca0877d7588dd8cfeadecb11c996486e47fe32",
      "blockNumber": "0x14",
      "gasUsed": "0x2139c",
      "effectiveGasPrice": "0x50ea82c",
      "blobGasPrice": "0x1",
      "from": "0x90f79bf6eb2c4f870365e785982e1f101e93b906",
      "to": "0x66db6d191cd163f56197b767928a507df8b47aa7",
      "contractAddress": null
    },
    {
      "status": "0x1",
      "cumulativeGasUsed": "0x2139c",
      "logs": [
        {
          "address": "0x7ef8e99980da5bcedcf7c10f41e55f759f6a174b",
          "topics": [
            "0x5a6275754fa96d5a6d5be7579ff3f86941284ff794b18f113881c2501abdf456",
            "0x0000000000000000000000000000000000000000000000000000000000000004",
            "0x00000000000000000000000015d34aaf54267db7d7c367839aaf71a00a2c6a65"
          ],
          "data": "0x00000000000000000000000000000000000000000000000000d529ae9e860000",
          "blockHash": "0x1a0a3add2c3d9416d7fc314fb4383ff80c54772bd5fa2b4ded2819c6025bfce6",
          "blockNumber": "0x15",
          "blockTimestamp": "0x69b86c51",
          "transactionHash": "0xed29f8072ad0566cc683bb455eb99ed10e347354a0d10c06b018a9711eaab608",
          "transactionIndex": "0x0",
          "logIndex": "0x0",
          "removed": false
        },
        {
          "address": "0x66db6d191cd163f56197b767928a507df8b47aa7",
          "topics": [
            "0x50adb3307747836538b62a264510cffe42012b516ef36719f803024d5ca0146f",
            "0x0000000000000000000000000000000000000000000000000000000000000004",
            "0x00000000000000000000000015d34aaf54267db7d7c367839aaf71a00a2c6a65"
          ],
          "data": "0x00000000000000000000000000000000000000000000000000d529ae9e860000",
          "blockHash": "0x1a0a3add2c3d9416d7fc314fb4383ff80c54772bd5fa2b4ded2819c6025bfce6",
          "blockNumber": "0x15",
          "blockTimestamp": "0x69b86c51",
          "transactionHash": "0xed29f8072ad0566cc683bb455eb99ed10e347354a0d10c06b018a9711eaab608",
          "transactionIndex": "0x0",
          "logIndex": "0x1",
          "removed": false
        }
      ],
      "logsBloom": "0x00000000040000000000000000000000000000200020001000000000000000000000000000000000004000000000000000000000000000000000000000000000000000000000000000000000000200000000000000000000000000000000000008000000000000000000000000000000000000020000000000000000000000000000000000000000000000020000000000000000000000000000000102000000000000000000000000000000000000000000000000000000002000000000080000000000000000000000000000000000000000008100000000000000000004000000001000004000000000000000000000000000000000000000000000000000",
      "type": "0x2",
      "transactionHash": "0xed29f8072ad0566cc683bb455eb99ed10e347354a0d10c06b018a9711eaab608",
      "transactionIndex": "0x0",
      "blockHash": "0x1a0a3add2c3d9416d7fc314fb4383ff80c54772bd5fa2b4ded2819c6025bfce6",
      "blockNumber": "0x15",
      "gasUsed": "0x2139c",
      "effectiveGasPrice": "0x46e4b08",
      "blobGasPrice": "0x1",
      "from": "0x15d34aaf54267db7d7c367839aaf71a00a2c6a65",
      "to": "0x66db6d191cd163f56197b767928a507df8b47aa7",
      "contractAddress": null
    },
    {
      "status": "0x1",
      "cumulativeGasUsed": "0xe63e",
      "logs": [
        {
          "address": "0x66db6d191cd163f56197b767928a507df8b47aa7",
          "topics": [
            "0xc06b551d984e333ac851ab20b1454a08d92740468f52ff54c0cd5270817f20a9",
            "0x0000000000000000000000000000000000000000000000000000000000000002",
            "0x0000000000000000000000003c44cdddb6a900fa2b585dd299e03d12fa4293bc"
          ],
          "data": "0x00000000000000000000000000000000000000000000000000000000000000200000000000000000000000000000000000000000000000000000000000000013697066733a2f2f70726963652d726573756c7400000000000000000000000000",
          "blockHash": "0x53e73c63eb1de4e08298bd8dee29ce9f28997ce6a01e198c364eddca6ae84389",
          "blockNumber": "0x16",
          "blockTimestamp": "0x69b86c51",
          "transactionHash": "0xa5382246e65505ee7ebf2d4936fb7f4b70fb79d00d3c6fa92e97619e8e3c2fd1",
          "transactionIndex": "0x0",
          "logIndex": "0x0",
          "removed": false
        }
      ],
      "logsBloom": "0x04000000000000000000000000000000000000200000000000000000000000000000000000000000004000000000000000000000000000000000000000100000000000000000000000000000000000000000000000000000000000000000000000000000000000000000000000000000000800020000000000000000000000000000000000000000000000000000000000000000000000000000000000000000000000000000200000000100000000000000000000000000000000000000000000000000080000000001000000000000000000000000000000000000000000000000000004000000000000000000000000000000008000000000000000000000",
      "type": "0x2",
      "transactionHash": "0xa5382246e65505ee7ebf2d4936fb7f4b70fb79d00d3c6fa92e97619e8e3c2fd1",
      "transactionIndex": "0x0",
      "blockHash": "0x53e73c63eb1de4e08298bd8dee29ce9f28997ce6a01e198c364eddca6ae84389",
      "blockNumber": "0x16",
      "gasUsed": "0xe63e",
      "effectiveGasPrice": "0x3e1caf9",
      "blobGasPrice": "0x1",
      "from": "0x3c44cdddb6a900fa2b585dd299e03d12fa4293bc",
      "to": "0x66db6d191cd163f56197b767928a507df8b47aa7",
      "contractAddress": null
    },
    {
      "status": "0x1",
      "cumulativeGasUsed": "0xe64a",
      "logs": [
        {
          "address": "0x66db6d191cd163f56197b767928a507df8b47aa7",
          "topics": [
            "0xc06b551d984e333ac851ab20b1454a08d92740468f52ff54c0cd5270817f20a9",
            "0x0000000000000000000000000000000000000000000000000000000000000003",
            "0x00000000000000000000000090f79bf6eb2c4f870365e785982e1f101e93b906"
          ],
          "data": "0x00000000000000000000000000000000000000000000000000000000000000200000000000000000000000000000000000000000000000000000000000000014697066733a2f2f766f6c756d652d726573756c74000000000000000000000000",
          "blockHash": "0x23c6846bb47a77498690050e5102256c9563cd204dffac7b21cb1417d791249d",
          "blockNumber": "0x17",
          "blockTimestamp": "0x69b86c51",
          "transactionHash": "0xe5a5562513542ea3605a2610092ab512ee2b70b39b9ee2958d1a7b84e32bed16",
          "transactionIndex": "0x0",
          "logIndex": "0x0",
          "removed": false
        }
      ],
      "logsBloom": "0x00000000000000000000000000000000000000200000000000000000000000000000000000000000004000000000000000000000020000000000000000000000000000000000000000000000000000000000000000000000000000000000000000000000000000000000000000000000000000020000000000000000000000000000000000000000000000000000000000000000000000000400000000000000000000000000000000000000000000000000000000800000000000000000400000000000080000000001000000000000400000000000000000000000000000000000000004000000000010000000000000000000000000000000000000000000",
      "type": "0x2",
      "transactionHash": "0xe5a5562513542ea3605a2610092ab512ee2b70b39b9ee2958d1a7b84e32bed16",
      "transactionIndex": "0x0",
      "blockHash": "0x23c6846bb47a77498690050e5102256c9563cd204dffac7b21cb1417d791249d",
      "blockNumber": "0x17",
      "gasUsed": "0xe64a",
      "effectiveGasPrice": "0x3660e91",
      "blobGasPrice": "0x1",
      "from": "0x90f79bf6eb2c4f870365e785982e1f101e93b906",
      "to": "0x66db6d191cd163f56197b767928a507df8b47aa7",
      "contractAddress": null
    },
    {
      "status": "0x1",
      "cumulativeGasUsed": "0xe63e",
      "logs": [
        {
          "address": "0x66db6d191cd163f56197b767928a507df8b47aa7",
          "topics": [
            "0xc06b551d984e333ac851ab20b1454a08d92740468f52ff54c0cd5270817f20a9",
            "0x0000000000000000000000000000000000000000000000000000000000000004",
            "0x00000000000000000000000015d34aaf54267db7d7c367839aaf71a00a2c6a65"
          ],
          "data": "0x00000000000000000000000000000000000000000000000000000000000000200000000000000000000000000000000000000000000000000000000000000013697066733a2f2f7969656c642d726573756c7400000000000000000000000000",
          "blockHash": "0xc4ac6017099382b8009a97de8440e7b2196f88e4f3f4584d7f8c9cd138131956",
          "blockNumber": "0x18",
          "blockTimestamp": "0x69b86c51",
          "transactionHash": "0x1eb853df92d27fe85539cdc07791be0685c1a024f59aad385e8a3087bc98d33d",
          "transactionIndex": "0x0",
          "logIndex": "0x0",
          "removed": false
        }
      ],
      "logsBloom": "0x00000000040000000000000000000000000000200000000000000000000000000000000000000000004000000000000000000000000000000000000000000000000000000000000000000000000000000000000000000000000000000000000008000000000000000000000000000000000000020000000000000000000000000000000000000000000000000000000000000000000000000000000100000000000000000000000000000000000000000000000000000000002000000000000000000000080000000001000000000000000000008000000000000000000004000000000004000000000000000000000000000000000000000000000000000000",
      "type": "0x2",
      "transactionHash": "0x1eb853df92d27fe85539cdc07791be0685c1a024f59aad385e8a3087bc98d33d",
      "transactionIndex": "0x0",
      "blockHash": "0xc4ac6017099382b8009a97de8440e7b2196f88e4f3f4584d7f8c9cd138131956",
      "blockNumber": "0x18",
      "gasUsed": "0xe63e",
      "effectiveGasPrice": "0x2f9ba2c",
      "blobGasPrice": "0x1",
      "from": "0x15d34aaf54267db7d7c367839aaf71a00a2c6a65",
      "to": "0x66db6d191cd163f56197b767928a507df8b47aa7",
      "contractAddress": null
    },
    {
      "status": "0x1",
      "cumulativeGasUsed": "0x1c37c",
      "logs": [
        {
          "address": "0x7ef8e99980da5bcedcf7c10f41e55f759f6a174b",
          "topics": [
            "0xff3af4543fe27fe802a7e783645cde2354445198a2bdef27f5b8ea942766bd33",
            "0x0000000000000000000000000000000000000000000000000000000000000002",
            "0x0000000000000000000000003c44cdddb6a900fa2b585dd299e03d12fa4293bc"
          ],
          "data": "0x00000000000000000000000000000000000000000000000002c68af0bb140000",
          "blockHash": "0x1a2beac29b80995ec2e7c447c338855a241990b15e80eaab360ec7447d28d6dc",
          "blockNumber": "0x19",
          "blockTimestamp": "0x69b86c51",
          "transactionHash": "0x5834e8731ba0df680ba9726526fcdef34d075e55a657bcefd8017353dff9f2cd",
          "transactionIndex": "0x0",
          "logIndex": "0x0",
          "removed": false
        },
        {
          "address": "0x7ef8e99980da5bcedcf7c10f41e55f759f6a174b",
          "topics": [
            "0xcec8c5e690163e894affec6ae8222b2ca759b87da012b2dbb1d84be7fe3282d8",
            "0x0000000000000000000000000000000000000000000000000000000000000002",
            "0x0000000000000000000000003c44cdddb6a900fa2b585dd299e03d12fa4293bc"
          ],
          "data": "0x00000000000000000000000000000000000000000000000000d529ae9e860000",
          "blockHash": "0x1a2beac29b80995ec2e7c447c338855a241990b15e80eaab360ec7447d28d6dc",
          "blockNumber": "0x19",
          "blockTimestamp": "0x69b86c51",
          "transactionHash": "0x5834e8731ba0df680ba9726526fcdef34d075e55a657bcefd8017353dff9f2cd",
          "transactionIndex": "0x0",
          "logIndex": "0x1",
          "removed": false
        },
        {
          "address": "0x82b769500e34362a76df81150e12c746093d954f",
          "topics": [
            "0xa571dce0a5e6a2c86a34a856ed7764eb6979352483d222a02bd4a306c3f1aaeb",
            "0x0000000000000000000000003c44cdddb6a900fa2b585dd299e03d12fa4293bc"
          ],
          "data": "0x00000000000000000000000000000000000000000000000000000000000000010000000000000000000000000000000000000000000000000000000000000000000000000000000000000000000000000000000000000000000000000000000a",
          "blockHash": "0x1a2beac29b80995ec2e7c447c338855a241990b15e80eaab360ec7447d28d6dc",
          "blockNumber": "0x19",
          "blockTimestamp": "0x69b86c51",
          "transactionHash": "0x5834e8731ba0df680ba9726526fcdef34d075e55a657bcefd8017353dff9f2cd",
          "transactionIndex": "0x0",
          "logIndex": "0x2",
          "removed": false
        },
        {
          "address": "0x66db6d191cd163f56197b767928a507df8b47aa7",
          "topics": [
            "0x02244c8529cb95e213ee542e76e7776342b3dabd10203d01472bbf4441be8929",
            "0x0000000000000000000000000000000000000000000000000000000000000002"
          ],
          "data": "0x",
          "blockHash": "0x1a2beac29b80995ec2e7c447c338855a241990b15e80eaab360ec7447d28d6dc",
          "blockNumber": "0x19",
          "blockTimestamp": "0x69b86c51",
          "transactionHash": "0x5834e8731ba0df680ba9726526fcdef34d075e55a657bcefd8017353dff9f2cd",
          "transactionIndex": "0x0",
          "logIndex": "0x3",
          "removed": false
        }
      ],
      "logsBloom": "0x04000000000000000000800000000002000000200000000010000000000000001000000000000000004000000000000000000000000000002000000000100000000000000000008000000000000200000000000000000020000000000000000000000000000000000000000400000000000800020000000000000000000000200000000000000000000000000000000000000000000000000000000000000001000000000000200000000100000002000000000000002000000000000000080000000000000000000000000000000000000000100040000000000000000000000000001000000000000000000000000000000008008000000000000000000000",
      "type": "0x2",
      "transactionHash": "0x5834e8731ba0df680ba9726526fcdef34d075e55a657bcefd8017353dff9f2cd",
      "transactionIndex": "0x0",
      "blockHash": "0x1a2beac29b80995ec2e7c447c338855a241990b15e80eaab360ec7447d28d6dc",
      "blockNumber": "0x19",
      "gasUsed": "0x1c37c",
      "effectiveGasPrice": "0x29ae2af",
      "blobGasPrice": "0x1",
      "from": "0x70997970c51812dc3a010c7d01b50e0d17dc79c8",
      "to": "0x66db6d191cd163f56197b767928a507df8b47aa7",
      "contractAddress": null
    },
    {
      "status": "0x1",
      "cumulativeGasUsed": "0x1c37c",
      "logs": [
        {
          "address": "0x7ef8e99980da5bcedcf7c10f41e55f759f6a174b",
          "topics": [
            "0xff3af4543fe27fe802a7e783645cde2354445198a2bdef27f5b8ea942766bd33",
            "0x0000000000000000000000000000000000000000000000000000000000000003",
            "0x00000000000000000000000090f79bf6eb2c4f870365e785982e1f101e93b906"
          ],
          "data": "0x00000000000000000000000000000000000000000000000002c68af0bb140000",
          "blockHash": "0x0da62f0f4ab9254c7fdcae8b08043ff05e1dc2b23533adba58e593053ffdbc70",
          "blockNumber": "0x1a",
          "blockTimestamp": "0x69b86c51",
          "transactionHash": "0x1f764302b393985737b5b5968693811f2110361e16fc807d41379b4e2c74a69a",
          "transactionIndex": "0x0",
          "logIndex": "0x0",
          "removed": false
        },
        {
          "address": "0x7ef8e99980da5bcedcf7c10f41e55f759f6a174b",
          "topics": [
            "0xcec8c5e690163e894affec6ae8222b2ca759b87da012b2dbb1d84be7fe3282d8",
            "0x0000000000000000000000000000000000000000000000000000000000000003",
            "0x00000000000000000000000090f79bf6eb2c4f870365e785982e1f101e93b906"
          ],
          "data": "0x00000000000000000000000000000000000000000000000000d529ae9e860000",
          "blockHash": "0x0da62f0f4ab9254c7fdcae8b08043ff05e1dc2b23533adba58e593053ffdbc70",
          "blockNumber": "0x1a",
          "blockTimestamp": "0x69b86c51",
          "transactionHash": "0x1f764302b393985737b5b5968693811f2110361e16fc807d41379b4e2c74a69a",
          "transactionIndex": "0x0",
          "logIndex": "0x1",
          "removed": false
        },
        {
          "address": "0x82b769500e34362a76df81150e12c746093d954f",
          "topics": [
            "0xa571dce0a5e6a2c86a34a856ed7764eb6979352483d222a02bd4a306c3f1aaeb",
            "0x00000000000000000000000090f79bf6eb2c4f870365e785982e1f101e93b906"
          ],
          "data": "0x00000000000000000000000000000000000000000000000000000000000000010000000000000000000000000000000000000000000000000000000000000000000000000000000000000000000000000000000000000000000000000000000a",
          "blockHash": "0x0da62f0f4ab9254c7fdcae8b08043ff05e1dc2b23533adba58e593053ffdbc70",
          "blockNumber": "0x1a",
          "blockTimestamp": "0x69b86c51",
          "transactionHash": "0x1f764302b393985737b5b5968693811f2110361e16fc807d41379b4e2c74a69a",
          "transactionIndex": "0x0",
          "logIndex": "0x2",
          "removed": false
        },
        {
          "address": "0x66db6d191cd163f56197b767928a507df8b47aa7",
          "topics": [
            "0x02244c8529cb95e213ee542e76e7776342b3dabd10203d01472bbf4441be8929",
            "0x0000000000000000000000000000000000000000000000000000000000000003"
          ],
          "data": "0x",
          "blockHash": "0x0da62f0f4ab9254c7fdcae8b08043ff05e1dc2b23533adba58e593053ffdbc70",
          "blockNumber": "0x1a",
          "blockTimestamp": "0x69b86c51",
          "transactionHash": "0x1f764302b393985737b5b5968693811f2110361e16fc807d41379b4e2c74a69a",
          "transactionIndex": "0x0",
          "logIndex": "0x3",
          "removed": false
        }
      ],
      "logsBloom": "0x00000000000000000000800000000002000000200000000010000000000000001000000000000000004000000000000000000000020000002000000000000000000000000000008000000000000200000000000000000020000000000000000000000000000000000000000400000000000000020000000000000000000000200000000000000000000000000000000000000000000000000400000000000001000000000000000000000000000002000000000000802000000000000000480000000000000000000000000000000000400000100040000000000000000000000000001000000000000010000000000000000008000000000000000000000000",
      "type": "0x2",
      "transactionHash": "0x1f764302b393985737b5b5968693811f2110361e16fc807d41379b4e2c74a69a",
      "transactionIndex": "0x0",
      "blockHash": "0x0da62f0f4ab9254c7fdcae8b08043ff05e1dc2b23533adba58e593053ffdbc70",
      "blockNumber": "0x1a",
      "gasUsed": "0x1c37c",
      "effectiveGasPrice": "0x2482ac9",
      "blobGasPrice": "0x1",
      "from": "0x70997970c51812dc3a010c7d01b50e0d17dc79c8",
      "to": "0x66db6d191cd163f56197b767928a507df8b47aa7",
      "contractAddress": null
    },
    {
      "status": "0x1",
      "cumulativeGasUsed": "0x1c37c",
      "logs": [
        {
          "address": "0x7ef8e99980da5bcedcf7c10f41e55f759f6a174b",
          "topics": [
            "0xff3af4543fe27fe802a7e783645cde2354445198a2bdef27f5b8ea942766bd33",
            "0x0000000000000000000000000000000000000000000000000000000000000004",
            "0x00000000000000000000000015d34aaf54267db7d7c367839aaf71a00a2c6a65"
          ],
          "data": "0x00000000000000000000000000000000000000000000000002c68af0bb140000",
          "blockHash": "0x297a5006da094b4a2edc6c29133a4351353bdf2f17f99954d3fd0193fb8d187b",
          "blockNumber": "0x1b",
          "blockTimestamp": "0x69b86c51",
          "transactionHash": "0xf4f95549bfd973f984c9093980b023b2683128323e8ad4429db4af84b2af3645",
          "transactionIndex": "0x0",
          "logIndex": "0x0",
          "removed": false
        },
        {
          "address": "0x7ef8e99980da5bcedcf7c10f41e55f759f6a174b",
          "topics": [
            "0xcec8c5e690163e894affec6ae8222b2ca759b87da012b2dbb1d84be7fe3282d8",
            "0x0000000000000000000000000000000000000000000000000000000000000004",
            "0x00000000000000000000000015d34aaf54267db7d7c367839aaf71a00a2c6a65"
          ],
          "data": "0x00000000000000000000000000000000000000000000000000d529ae9e860000",
          "blockHash": "0x297a5006da094b4a2edc6c29133a4351353bdf2f17f99954d3fd0193fb8d187b",
          "blockNumber": "0x1b",
          "blockTimestamp": "0x69b86c51",
          "transactionHash": "0xf4f95549bfd973f984c9093980b023b2683128323e8ad4429db4af84b2af3645",
          "transactionIndex": "0x0",
          "logIndex": "0x1",
          "removed": false
        },
        {
          "address": "0x82b769500e34362a76df81150e12c746093d954f",
          "topics": [
            "0xa571dce0a5e6a2c86a34a856ed7764eb6979352483d222a02bd4a306c3f1aaeb",
            "0x00000000000000000000000015d34aaf54267db7d7c367839aaf71a00a2c6a65"
          ],
          "data": "0x00000000000000000000000000000000000000000000000000000000000000010000000000000000000000000000000000000000000000000000000000000000000000000000000000000000000000000000000000000000000000000000000a",
          "blockHash": "0x297a5006da094b4a2edc6c29133a4351353bdf2f17f99954d3fd0193fb8d187b",
          "blockNumber": "0x1b",
          "blockTimestamp": "0x69b86c51",
          "transactionHash": "0xf4f95549bfd973f984c9093980b023b2683128323e8ad4429db4af84b2af3645",
          "transactionIndex": "0x0",
          "logIndex": "0x2",
          "removed": false
        },
        {
          "address": "0x66db6d191cd163f56197b767928a507df8b47aa7",
          "topics": [
            "0x02244c8529cb95e213ee542e76e7776342b3dabd10203d01472bbf4441be8929",
            "0x0000000000000000000000000000000000000000000000000000000000000004"
          ],
          "data": "0x",
          "blockHash": "0x297a5006da094b4a2edc6c29133a4351353bdf2f17f99954d3fd0193fb8d187b",
          "blockNumber": "0x1b",
          "blockTimestamp": "0x69b86c51",
          "transactionHash": "0xf4f95549bfd973f984c9093980b023b2683128323e8ad4429db4af84b2af3645",
          "transactionIndex": "0x0",
          "logIndex": "0x3",
          "removed": false
        }
      ],
      "logsBloom": "0x00000000040000000000800000000002000000200000000010000000000000001000000000000000004000000000000000000000000000002000000000000000000000000000008000000000000200000000000000000020000000000000000008000000000000000000000400000000000000020000000000000000000000200000000000000000000000000000000000000000000000000000000100000001000000000000000000000000000002000000000000002000002000000000080000000000000000000000000000000000000000108040000000000000000004000000001000000000000000000000000000000008000000000000000000000000",
      "type": "0x2",
      "transactionHash": "0xf4f95549bfd973f984c9093980b023b2683128323e8ad4429db4af84b2af3645",
      "transactionIndex": "0x0",
      "blockHash": "0x297a5006da094b4a2edc6c29133a4351353bdf2f17f99954d3fd0193fb8d187b",
      "blockNumber": "0x1b",
      "gasUsed": "0x1c37c",
      "effectiveGasPrice": "0x1ffb57a",
      "blobGasPrice": "0x1",
      "from": "0x70997970c51812dc3a010c7d01b50e0d17dc79c8",
      "to": "0x66db6d191cd163f56197b767928a507df8b47aa7",
      "contractAddress": null
    },
    {
      "status": "0x1",
      "cumulativeGasUsed": "0xe63e",
      "logs": [
        {
          "address": "0x66db6d191cd163f56197b767928a507df8b47aa7",
          "topics": [
            "0xc06b551d984e333ac851ab20b1454a08d92740468f52ff54c0cd5270817f20a9",
            "0x0000000000000000000000000000000000000000000000000000000000000001",
            "0x00000000000000000000000070997970c51812dc3a010c7d01b50e0d17dc79c8"
          ],
          "data": "0x00000000000000000000000000000000000000000000000000000000000000200000000000000000000000000000000000000000000000000000000000000013697066733a2f2f66696e616c2d7265706f727400000000000000000000000000",
          "blockHash": "0xa1a56b8334f8a741cefbeb34454ff7351c64389f806964715926fb7bc1e6e5d1",
          "blockNumber": "0x1c",
          "blockTimestamp": "0x69b86c51",
          "transactionHash": "0xf861703605b6abcf6a19bf159e92c5408d855c20fa570036d3f867ae00dfc29d",
          "transactionIndex": "0x0",
          "logIndex": "0x0",
          "removed": false
        }
      ],
      "logsBloom": "0x00000000000000000002000000000000000000200000000000000000000000000000000000000000004000000000000000000000000000000000000000040000000000000000000000000000000000000000000000040000000000000000000000000800000000000000000000000000000000020000000000000000000000000000000000000000000000000000000000000000000000000000000000000000000000000000000000000000000000000000000000000000000000000000000000000000080000000001000000000000000000000000000000000000000040000000000004000000000000000000000001000000000000000000000000000000",
      "type": "0x2",
      "transactionHash": "0xf861703605b6abcf6a19bf159e92c5408d855c20fa570036d3f867ae00dfc29d",
      "transactionIndex": "0x0",
      "blockHash": "0xa1a56b8334f8a741cefbeb34454ff7351c64389f806964715926fb7bc1e6e5d1",
      "blockNumber": "0x1c",
      "gasUsed": "0xe63e",
      "effectiveGasPrice": "0x1c03cf8",
      "blobGasPrice": "0x1",
      "from": "0x70997970c51812dc3a010c7d01b50e0d17dc79c8",
      "to": "0x66db6d191cd163f56197b767928a507df8b47aa7",
      "contractAddress": null
    },
    {
      "status": "0x1",
      "cumulativeGasUsed": "0xe746",
      "logs": [
        {
          "address": "0x7ef8e99980da5bcedcf7c10f41e55f759f6a174b",
          "topics": [
            "0xff3af4543fe27fe802a7e783645cde2354445198a2bdef27f5b8ea942766bd33",
            "0x0000000000000000000000000000000000000000000000000000000000000001",
            "0x00000000000000000000000070997970c51812dc3a010c7d01b50e0d17dc79c8"
          ],
          "data": "0x0000000000000000000000000000000000000000000000000de0b6b3a7640000",
          "blockHash": "0x17760b3881b1093e1d6fd80671b1788bb41703b39540321d3be2b053ba4ada76",
          "blockNumber": "0x1d",
          "blockTimestamp": "0x69b86c51",
          "transactionHash": "0x30a8a63a2531f2c26a6d66997dbaa09d437b5de64fb940c7cd63e7def4e1166a",
          "transactionIndex": "0x0",
          "logIndex": "0x0",
          "removed": false
        },
        {
          "address": "0x66db6d191cd163f56197b767928a507df8b47aa7",
          "topics": [
            "0x02244c8529cb95e213ee542e76e7776342b3dabd10203d01472bbf4441be8929",
            "0x0000000000000000000000000000000000000000000000000000000000000001"
          ],
          "data": "0x",
          "blockHash": "0x17760b3881b1093e1d6fd80671b1788bb41703b39540321d3be2b053ba4ada76",
          "blockNumber": "0x1d",
          "blockTimestamp": "0x69b86c51",
          "transactionHash": "0x30a8a63a2531f2c26a6d66997dbaa09d437b5de64fb940c7cd63e7def4e1166a",
          "transactionIndex": "0x0",
          "logIndex": "0x1",
          "removed": false
        }
      ],
      "logsBloom": "0x00000000000000000002000000000000000000200000000010000000000000000000000000000000004000000000000000000000000000002000000000040000000000000000008000000000000200000000000000040000000000000000000000000800000000000000000400000000000000020000000000000000000000200000000000000000000000000000000000000000000000000000000000000000000000000000000000000000000000000000000000002000000000000000080000000000000000000000000000000000000000000000000000000000000040000000001000000000000000000000000001000000000000000000000000000000",
      "type": "0x2",
      "transactionHash": "0x30a8a63a2531f2c26a6d66997dbaa09d437b5de64fb940c7cd63e7def4e1166a",
      "transactionIndex": "0x0",
      "blockHash": "0x17760b3881b1093e1d6fd80671b1788bb41703b39540321d3be2b053ba4ada76",
      "blockNumber": "0x1d",
      "gasUsed": "0xe746",
      "effectiveGasPrice": "0x1886db6",
      "blobGasPrice": "0x1",
      "from": "0xf39fd6e51aad88f6f4ce6ab8827279cfffb92266",
      "to": "0x66db6d191cd163f56197b767928a507df8b47aa7",
      "contractAddress": null
    }
  ],
  "libraries": [],
  "pending": [],
  "returns": {},
  "timestamp": 1773694033810,
  "chain": 31337,
  "commit": null
}