{
  "transactions": [
    {
      "hash": "0xc1be3cb14653278420c347ad51e6c6a783f754b65dcb54c8d520d65d581370b1",
      "transactionType": "CALL",
      "contractName": null,
      "contractAddress": "0x66db6d191cd163f56197b767928a507df8b47aa7",
      "function": "createJob(bytes32,string,uint96,uint64)",
      "arguments": [
        "0xb635b0ee6e4c15c18d1b36f84d92442e53da477ae300027dd06478d4ee0559db",
        "ipfs://new-report",
        "1000000000000000000",
        "1773706866"
      ],
      "transaction": {
        "from": "0xf39fd6e51aad88f6f4ce6ab8827279cfffb92266",
        "to": "0x66db6d191cd163f56197b767928a507df8b47aa7",
        "gas": "0x47e6f",
        "value": "0xde0b6b3a7640000",
        "input": "0xa6d31083b635b0ee6e4c15c18d1b36f84d92442e53da477ae300027dd06478d4ee0559db00000000000000000000000000000000000000000000000000000000000000800000000000000000000000000000000000000000000000000de0b6b3a76400000000000000000000000000000000000000000000000000000000000069b89e720000000000000000000000000000000000000000000000000000000000000011697066733a2f2f6e65772d7265706f7274000000000000000000000000000000",
        "nonce": "0x2",
        "chainId": "0x7a69"
      },
      "additionalContracts": [],
      "isFixedGasLimit": false
    }
  ],
  "receipts": [
    {
      "status": "0x1",
      "cumulativeGasUsed": "0x340e5",
      "logs": [
        {
          "address": "0x7ef8e99980da5bcedcf7c10f41e55f759f6a174b",
          "topics": [
            "0x3f4da7a519eb172658739769a3d20463f3470478f1c47d9049453128e92bb52e",
            "0x0000000000000000000000000000000000000000000000000000000000000009"
          ],
          "data": "0x0000000000000000000000000000000000000000000000000de0b6b3a7640000",
          "blockHash": "0xd0142027d8fdacd87a7b290acf7dbf9f24930921e0b20dcaf538ccd5a3fe709f",
          "blockNumber": "0x2d",
          "blockTimestamp": "0x69b75342",
          "transactionHash": "0xc1be3cb14653278420c347ad51e6c6a783f754b65dcb54c8d520d65d581370b1",
          "transactionIndex": "0x0",
          "logIndex": "0x0",
          "removed": false
        },
        {
          "address": "0x66db6d191cd163f56197b767928a507df8b47aa7",
          "topics": [
            "0x1ee49ee641b21459160c4aa6648e943b5f32a7b884b002a1e966adb923c2cde9",
            "0x0000000000000000000000000000000000000000000000000000000000000009",
            "0x0000000000000000000000000000000000000000000000000000000000000000",
            "0x000000000000000000000000f39fd6e51aad88f6f4ce6ab8827279cfffb92266"
          ],
          "data": "0xb635b0ee6e4c15c18d1b36f84d92442e53da477ae300027dd06478d4ee0559db0000000000000000000000000000000000000000000000000de0b6b3a76400000000000000000000000000000000000000000000000000000000000069b89e720000000000000000000000000000000000000000000000000000000000000000",
          "blockHash": "0xd0142027d8fdacd87a7b290acf7dbf9f24930921e0b20dcaf538ccd5a3fe709f",
          "blockNumber": "0x2d",
          "blockTimestamp": "0x69b75342",
          "transactionHash": "0xc1be3cb14653278420c347ad51e6c6a783f754b65dcb54c8d520d65d581370b1",
          "transactionIndex": "0x0",
          "logIndex": "0x1",
          "removed": false
        }
      ],
      "logsBloom": "0x00000000000000000000000000000000000000200000000000000000000000000004000000000000004000000000000000000004000000000000000000200000000000000000000000000000000200000000000000000000000000000000000000000000020000000000000100000800000000020000000000000000000000008000000000000000000000000000000000001000000000000000000000000000000000000000028000000000000000000000000000000000000000000000080000000000000000200000000000000000000000002000000000000000000020000000001000000000000000000000000000000000000000000000000400800000",
      "type": "0x2",
      "transactionHash": "0xc1be3cb14653278420c347ad51e6c6a783f754b65dcb54c8d520d65d581370b1",
      "transactionIndex": "0x0",
      "blockHash": "0xd0142027d8fdacd87a7b290acf7dbf9f24930921e0b20dcaf538ccd5a3fe709f",
      "blockNumber": "0x2d",
      "gasUsed": "0x340e5",
      "effectiveGasPrice": "0x3bca2031",
      "blobGasPrice": "0x1",
      "from": "0xf39fd6e51aad88f6f4ce6ab8827279cfffb92266",
      "to": "0x66db6d191cd163f56197b767928a507df8b47aa7",
      "contractAddress": null
    }
  ],
  "libraries": [],
  "pending": [],
  "returns": {},
  "timestamp": 1773622082597,
  "chain": 31337,
  "commit": null
}